{
  "contractName": "CreToBit",
  "abi": [
    {
      "inputs": [],
      "payable": false,
      "stateMutability": "nonpayable",
      "type": "constructor"
    },
    {
      "anonymous": false,
      "inputs": [
        {
          "indexed": true,
          "internalType": "address",
          "name": "tokenOwner",
          "type": "address"
        },
        {
          "indexed": true,
          "internalType": "address",
          "name": "spender",
          "type": "address"
        },
        {
          "indexed": false,
          "internalType": "uint256",
          "name": "tokens",
          "type": "uint256"
        }
      ],
      "name": "Approval",
      "type": "event"
    },
    {
      "anonymous": false,
      "inputs": [
        {
          "indexed": true,
          "internalType": "address",
          "name": "burner",
          "type": "address"
        },
        {
          "indexed": false,
          "internalType": "uint256",
          "name": "value",
          "type": "uint256"
        }
      ],
      "name": "Burn",
      "type": "event"
    },
    {
      "anonymous": false,
      "inputs": [
        {
          "indexed": true,
          "internalType": "address",
          "name": "from",
          "type": "address"
        },
        {
          "indexed": true,
          "internalType": "address",
          "name": "to",
          "type": "address"
        },
        {
          "indexed": false,
          "internalType": "uint256",
          "name": "tokens",
          "type": "uint256"
        }
      ],
      "name": "Transfer",
      "type": "event"
    },
    {
      "payable": true,
      "stateMutability": "payable",
      "type": "fallback"
    },
    {
      "constant": true,
      "inputs": [
        {
          "internalType": "address",
          "name": "",
          "type": "address"
        }
      ],
      "name": "balances",
      "outputs": [
        {
          "internalType": "uint256",
          "name": "",
          "type": "uint256"
        }
      ],
      "payable": false,
      "stateMutability": "view",
      "type": "function"
    },
    {
      "constant": true,
      "inputs": [],
      "name": "boostBorrowFactor2x",
      "outputs": [
        {
          "internalType": "uint256",
          "name": "",
          "type": "uint256"
        }
      ],
      "payable": false,
      "stateMutability": "view",
      "type": "function"
    },
    {
      "constant": true,
      "inputs": [],
      "name": "boostBorrowFactorIndex",
      "outputs": [
        {
          "internalType": "uint256",
          "name": "",
          "type": "uint256"
        }
      ],
      "payable": false,
      "stateMutability": "view",
      "type": "function"
    },
    {
      "constant": true,
      "inputs": [],
      "name": "boostIncentive",
      "outputs": [
        {
          "internalType": "uint256",
          "name": "",
          "type": "uint256"
        }
      ],
      "payable": false,
      "stateMutability": "view",
      "type": "function"
    },
    {
      "constant": true,
      "inputs": [],
      "name": "borrowFactor",
      "outputs": [
        {
          "internalType": "uint256",
          "name": "",
          "type": "uint256"
        }
      ],
      "payable": false,
      "stateMutability": "view",
      "type": "function"
    },
    {
      "constant": true,
      "inputs": [],
      "name": "borrowX",
      "outputs": [
        {
          "internalType": "uint256",
          "name": "",
          "type": "uint256"
        }
      ],
      "payable": false,
      "stateMutability": "view",
      "type": "function"
    },
    {
      "constant": true,
      "inputs": [],
      "name": "borrowY",
      "outputs": [
        {
          "internalType": "uint256",
          "name": "",
          "type": "uint256"
        }
      ],
      "payable": false,
      "stateMutability": "view",
      "type": "function"
    },
    {
      "constant": true,
      "inputs": [],
      "name": "creditFactor",
      "outputs": [
        {
          "internalType": "uint256",
          "name": "",
          "type": "uint256"
        }
      ],
      "payable": false,
      "stateMutability": "view",
      "type": "function"
    },
    {
      "constant": true,
      "inputs": [],
      "name": "ctbAddress",
      "outputs": [
        {
          "internalType": "address",
          "name": "",
          "type": "address"
        }
      ],
      "payable": false,
      "stateMutability": "view",
      "type": "function"
    },
    {
      "constant": true,
      "inputs": [],
      "name": "debitFactor",
      "outputs": [
        {
          "internalType": "uint256",
          "name": "",
          "type": "uint256"
        }
      ],
      "payable": false,
      "stateMutability": "view",
      "type": "function"
    },
    {
      "constant": true,
      "inputs": [],
      "name": "decimals",
      "outputs": [
        {
          "internalType": "uint8",
          "name": "",
          "type": "uint8"
        }
      ],
      "payable": false,
      "stateMutability": "view",
      "type": "function"
    },
    {
      "constant": true,
      "inputs": [
        {
          "internalType": "address",
          "name": "",
          "type": "address"
        }
      ],
      "name": "depositedCTB",
      "outputs": [
        {
          "internalType": "uint256",
          "name": "",
          "type": "uint256"
        }
      ],
      "payable": false,
      "stateMutability": "view",
      "type": "function"
    },
    {
      "constant": true,
      "inputs": [
        {
          "internalType": "address",
          "name": "",
          "type": "address"
        }
      ],
      "name": "depositedETH",
      "outputs": [
        {
          "internalType": "uint256",
          "name": "",
          "type": "uint256"
        }
      ],
      "payable": false,
      "stateMutability": "view",
      "type": "function"
    },
    {
      "constant": true,
      "inputs": [],
      "name": "ethtouint",
      "outputs": [
        {
          "internalType": "uint256",
          "name": "",
          "type": "uint256"
        }
      ],
      "payable": false,
      "stateMutability": "view",
      "type": "function"
    },
    {
      "constant": true,
      "inputs": [],
      "name": "governanceFactor",
      "outputs": [
        {
          "internalType": "uint256",
          "name": "",
          "type": "uint256"
        }
      ],
      "payable": false,
      "stateMutability": "view",
      "type": "function"
    },
    {
      "constant": true,
      "inputs": [],
      "name": "icoEnd",
      "outputs": [
        {
          "internalType": "uint256",
          "name": "",
          "type": "uint256"
        }
      ],
      "payable": false,
      "stateMutability": "view",
      "type": "function"
    },
    {
      "constant": true,
      "inputs": [],
      "name": "icoLateRate",
      "outputs": [
        {
          "internalType": "uint256",
          "name": "",
          "type": "uint256"
        }
      ],
      "payable": false,
      "stateMutability": "view",
      "type": "function"
    },
    {
      "constant": true,
      "inputs": [],
      "name": "isIcoEnd",
      "outputs": [
        {
          "internalType": "bool",
          "name": "",
          "type": "bool"
        }
      ],
      "payable": false,
      "stateMutability": "view",
      "type": "function"
    },
    {
      "constant": true,
      "inputs": [],
      "name": "name",
      "outputs": [
        {
          "internalType": "string",
          "name": "",
          "type": "string"
        }
      ],
      "payable": false,
      "stateMutability": "view",
      "type": "function"
    },
    {
      "constant": true,
      "inputs": [
        {
          "internalType": "address",
          "name": "",
          "type": "address"
        }
      ],
      "name": "nextAvailablePayBackTime",
      "outputs": [
        {
          "internalType": "uint256",
          "name": "",
          "type": "uint256"
        }
      ],
      "payable": false,
      "stateMutability": "view",
      "type": "function"
    },
    {
      "constant": true,
      "inputs": [],
      "name": "owner",
      "outputs": [
        {
          "internalType": "address",
          "name": "",
          "type": "address"
        }
      ],
      "payable": false,
      "stateMutability": "view",
      "type": "function"
    },
    {
      "constant": true,
      "inputs": [],
      "name": "preboostOffsetFactor",
      "outputs": [
        {
          "internalType": "uint256",
          "name": "",
          "type": "uint256"
        }
      ],
      "payable": false,
      "stateMutability": "view",
      "type": "function"
    },
    {
      "constant": true,
      "inputs": [],
      "name": "symbol",
      "outputs": [
        {
          "internalType": "string",
          "name": "",
          "type": "string"
        }
      ],
      "payable": false,
      "stateMutability": "view",
      "type": "function"
    },
    {
      "constant": true,
      "inputs": [],
      "name": "timelock",
      "outputs": [
        {
          "internalType": "uint256",
          "name": "",
          "type": "uint256"
        }
      ],
      "payable": false,
      "stateMutability": "view",
      "type": "function"
    },
    {
      "constant": true,
      "inputs": [],
      "name": "totalDepositedCTB",
      "outputs": [
        {
          "internalType": "uint256",
          "name": "",
          "type": "uint256"
        }
      ],
      "payable": false,
      "stateMutability": "view",
      "type": "function"
    },
    {
      "constant": true,
      "inputs": [],
      "name": "totalDepositedETH",
      "outputs": [
        {
          "internalType": "uint256",
          "name": "",
          "type": "uint256"
        }
      ],
      "payable": false,
      "stateMutability": "view",
      "type": "function"
    },
    {
      "constant": true,
      "inputs": [],
      "name": "uinttoeth",
      "outputs": [
        {
          "internalType": "uint256",
          "name": "",
          "type": "uint256"
        }
      ],
      "payable": false,
      "stateMutability": "view",
      "type": "function"
    },
    {
      "constant": true,
      "inputs": [],
      "name": "returnCTBAddress",
      "outputs": [
        {
          "internalType": "address",
          "name": "",
          "type": "address"
        }
      ],
      "payable": false,
      "stateMutability": "view",
      "type": "function"
    },
    {
      "constant": true,
      "inputs": [],
      "name": "returnDepositCTB",
      "outputs": [
        {
          "internalType": "uint256",
          "name": "",
          "type": "uint256"
        }
      ],
      "payable": false,
      "stateMutability": "view",
      "type": "function"
    },
    {
      "constant": false,
      "inputs": [],
      "name": "transferOwnership",
      "outputs": [
        {
          "internalType": "address",
          "name": "",
          "type": "address"
        }
      ],
      "payable": false,
      "stateMutability": "nonpayable",
      "type": "function"
    },
    {
      "constant": true,
      "inputs": [],
      "name": "returnDepositETH",
      "outputs": [
        {
          "internalType": "uint256",
          "name": "",
          "type": "uint256"
        }
      ],
      "payable": false,
      "stateMutability": "view",
      "type": "function"
    },
    {
      "constant": false,
      "inputs": [],
      "name": "icoCTB",
      "outputs": [],
      "payable": true,
      "stateMutability": "payable",
      "type": "function"
    },
    {
      "constant": false,
      "inputs": [],
      "name": "makeIcoEnd",
      "outputs": [],
      "payable": false,
      "stateMutability": "nonpayable",
      "type": "function"
    },
    {
      "constant": false,
      "inputs": [],
      "name": "icoBurn",
      "outputs": [],
      "payable": false,
      "stateMutability": "nonpayable",
      "type": "function"
    },
    {
      "constant": false,
      "inputs": [
        {
          "internalType": "uint256",
          "name": "_amount",
          "type": "uint256"
        }
      ],
      "name": "burnToken",
      "outputs": [],
      "payable": false,
      "stateMutability": "nonpayable",
      "type": "function"
    },
    {
      "constant": true,
      "inputs": [],
      "name": "totalETH",
      "outputs": [
        {
          "internalType": "uint256",
          "name": "",
          "type": "uint256"
        }
      ],
      "payable": false,
      "stateMutability": "view",
      "type": "function"
    },
    {
      "constant": true,
      "inputs": [],
      "name": "totalSupply",
      "outputs": [
        {
          "internalType": "uint256",
          "name": "",
          "type": "uint256"
        }
      ],
      "payable": false,
      "stateMutability": "view",
      "type": "function"
    },
    {
      "constant": true,
      "inputs": [
        {
          "internalType": "address",
          "name": "_owner",
          "type": "address"
        },
        {
          "internalType": "address",
          "name": "delegate",
          "type": "address"
        }
      ],
      "name": "allowance",
      "outputs": [
        {
          "internalType": "uint256",
          "name": "",
          "type": "uint256"
        }
      ],
      "payable": false,
      "stateMutability": "view",
      "type": "function"
    },
    {
      "constant": true,
      "inputs": [
        {
          "internalType": "address",
          "name": "tokenOwner",
          "type": "address"
        }
      ],
      "name": "balanceOf",
      "outputs": [
        {
          "internalType": "uint256",
          "name": "",
          "type": "uint256"
        }
      ],
      "payable": false,
      "stateMutability": "view",
      "type": "function"
    },
    {
      "constant": false,
      "inputs": [
        {
          "internalType": "address payable",
          "name": "_to",
          "type": "address"
        },
        {
          "internalType": "uint256",
          "name": "_amount",
          "type": "uint256"
        }
      ],
      "name": "borrowETH",
      "outputs": [
        {
          "internalType": "uint256",
          "name": "",
          "type": "uint256"
        }
      ],
      "payable": true,
      "stateMutability": "payable",
      "type": "function"
    },
    {
      "constant": false,
      "inputs": [
        {
          "internalType": "uint256",
          "name": "_amount",
          "type": "uint256"
        }
      ],
      "name": "withDrawlAllETH",
      "outputs": [],
      "payable": false,
      "stateMutability": "nonpayable",
      "type": "function"
    },
    {
      "constant": false,
      "inputs": [
        {
          "internalType": "uint256",
          "name": "_amount",
          "type": "uint256"
        }
      ],
      "name": "paybackETH",
      "outputs": [
        {
          "internalType": "uint256",
          "name": "",
          "type": "uint256"
        }
      ],
      "payable": true,
      "stateMutability": "payable",
      "type": "function"
    },
    {
      "constant": false,
      "inputs": [
        {
          "internalType": "uint256",
          "name": "_amount",
          "type": "uint256"
        }
      ],
      "name": "adjustDebitFactor",
      "outputs": [
        {
          "internalType": "uint256",
          "name": "",
          "type": "uint256"
        }
      ],
      "payable": true,
      "stateMutability": "payable",
      "type": "function"
    },
    {
      "constant": false,
      "inputs": [
        {
          "internalType": "uint256",
          "name": "_amount",
          "type": "uint256"
        }
      ],
      "name": "adjustCrebitFactor",
      "outputs": [
        {
          "internalType": "uint256",
          "name": "",
          "type": "uint256"
        }
      ],
      "payable": true,
      "stateMutability": "payable",
      "type": "function"
    },
    {
      "constant": false,
      "inputs": [],
      "name": "boostBorrowFactor",
      "outputs": [
        {
          "internalType": "uint256",
          "name": "",
          "type": "uint256"
        }
      ],
      "payable": false,
      "stateMutability": "nonpayable",
      "type": "function"
    },
    {
      "constant": false,
      "inputs": [
        {
          "internalType": "address",
          "name": "receiver",
          "type": "address"
        },
        {
          "internalType": "uint256",
          "name": "numTokens",
          "type": "uint256"
        }
      ],
      "name": "transfer",
      "outputs": [
        {
          "internalType": "bool",
          "name": "",
          "type": "bool"
        }
      ],
      "payable": false,
      "stateMutability": "nonpayable",
      "type": "function"
    },
    {
      "constant": false,
      "inputs": [
        {
          "internalType": "uint256",
          "name": "amount",
          "type": "uint256"
        }
      ],
      "name": "mint",
      "outputs": [
        {
          "internalType": "bool",
          "name": "",
          "type": "bool"
        }
      ],
      "payable": false,
      "stateMutability": "nonpayable",
      "type": "function"
    },
    {
      "constant": false,
      "inputs": [
        {
          "internalType": "address",
          "name": "delegate",
          "type": "address"
        },
        {
          "internalType": "uint256",
          "name": "numTokens",
          "type": "uint256"
        }
      ],
      "name": "approve",
      "outputs": [
        {
          "internalType": "bool",
          "name": "",
          "type": "bool"
        }
      ],
      "payable": false,
      "stateMutability": "nonpayable",
      "type": "function"
    },
    {
      "constant": false,
      "inputs": [
        {
          "internalType": "address",
          "name": "_owner",
          "type": "address"
        },
        {
          "internalType": "address",
          "name": "buyer",
          "type": "address"
        },
        {
          "internalType": "uint256",
          "name": "numTokens",
          "type": "uint256"
        }
      ],
      "name": "transferFrom",
      "outputs": [
        {
          "internalType": "bool",
          "name": "",
          "type": "bool"
        }
      ],
      "payable": false,
      "stateMutability": "nonpayable",
      "type": "function"
    }
  ],
  "bytecode": "0x60806040526040518060400160405280600881526020017f437265546f4269740000000000000000000000000000000000000000000000008152506001908051906020019062000051929190620001f3565b50671bc16d674ec800006002556702c68af0bb140000600655670e92596fd62900006007556706f05b59d3b20000600855670d2f13f7789f000060095562278d004201600a55670de0b6b3a7640000600e556001600f5567016345785d8a00006010556706f05b59d3b20000601155671bc16d674ec80000601255670c7d713b49da00006013556611c37937e0800060145560786015556009601655600a601755348015620000ff57600080fd5b5062000110620001e960201b60201c565b600281905550336000806101000a81548173ffffffffffffffffffffffffffffffffffffffff021916908373ffffffffffffffffffffffffffffffffffffffff160217905550670de0b6b3a7640000600360003373ffffffffffffffffffffffffffffffffffffffff1673ffffffffffffffffffffffffffffffffffffffff1681526020019081526020016000208190555030600d60016101000a81548173ffffffffffffffffffffffffffffffffffffffff021916908373ffffffffffffffffffffffffffffffffffffffff160217905550620002a2565b6000600254905090565b828054600181600116156101000203166002900490600052602060002090601f016020900481019282601f106200023657805160ff191683800117855562000267565b8280016001018555821562000267579182015b828111156200026657825182559160200191906001019062000249565b5b5090506200027691906200027a565b5090565b6200029f91905b808211156200029b57600081600090555060010162000281565b5090565b90565b61256980620002b26000396000f3fe6080604052600436106102ae5760003560e01c80636fc88f9111610175578063a0712d68116100dc578063d2af782611610095578063da133e0a1161006f578063da133e0a14610de4578063dd62ed3e14610e0f578063f5db8bc714610e94578063f8c8b6fc14610ef9576102ae565b8063d2af782614610d4b578063d33219b414610d62578063d3bff53a14610d8d576102ae565b8063a0712d6814610be3578063a9059cbb14610c36578063bc6b39aa14610ca9578063c292614b14610ceb578063c469b5fc14610d16578063c74d601914610d41576102ae565b80638d95c7b51161012e5780638d95c7b514610a155780638da5cb5b14610a4057806395d89b4114610a975780639835c63814610b275780639842143814610b565780639fb2ac2514610b81576102ae565b80636fc88f911461088657806370a08231146108b1578063780bf06e146109165780637b47ec1a14610958578063880ad0af14610993578063899aa991146109ea576102ae565b806326f77dca1161021957806336bdee74116101d257806336bdee7414610755578063375670d41461078057806339208286146107ab5780633d96e6d7146108025780634207abcb14610819578063673bcf3714610844576102ae565b806326f77dca1461060357806327e235e31461062e578063291679e014610693578063313ce567146106ce57806332c87e10146106ff578063357a101f1461072a576102ae565b806318160ddd1161026b57806318160ddd146104995780631eab07dd146104c45780632052823b146104ef57806320b9cebc1461051a57806323b872dd1461054557806326eef3ac146105d8576102ae565b80630563451a146102b057806306fdde03146102db578063095ea7b31461036b5780630bf66a2f146103de578063115cf01e146104435780631754715c1461046e575b005b3480156102bc57600080fd5b506102c5610f5e565b6040518082815260200191505060405180910390f35b3480156102e757600080fd5b506102f0610f64565b6040518080602001828103825283818151815260200191508051906020019080838360005b83811015610330578082015181840152602081019050610315565b50505050905090810190601f16801561035d5780820380516001836020036101000a031916815260200191505b509250505060405180910390f35b34801561037757600080fd5b506103c46004803603604081101561038e57600080fd5b81019080803573ffffffffffffffffffffffffffffffffffffffff16906020019092919080359060200190929190505050611002565b604051808215151515815260200191505060405180910390f35b3480156103ea57600080fd5b5061042d6004803603602081101561040157600080fd5b81019080803573ffffffffffffffffffffffffffffffffffffffff1690602001909291905050506110f4565b6040518082815260200191505060405180910390f35b34801561044f57600080fd5b5061045861110c565b6040518082815260200191505060405180910390f35b34801561047a57600080fd5b50610483611112565b6040518082815260200191505060405180910390f35b3480156104a557600080fd5b506104ae611159565b6040518082815260200191505060405180910390f35b3480156104d057600080fd5b506104d9611163565b6040518082815260200191505060405180910390f35b3480156104fb57600080fd5b50610504611169565b6040518082815260200191505060405180910390f35b34801561052657600080fd5b5061052f6111b6565b6040518082815260200191505060405180910390f35b34801561055157600080fd5b506105be6004803603606081101561056857600080fd5b81019080803573ffffffffffffffffffffffffffffffffffffffff169060200190929190803573ffffffffffffffffffffffffffffffffffffffff169060200190929190803590602001909291905050506111bc565b604051808215151515815260200191505060405180910390f35b3480156105e457600080fd5b506105ed61152a565b6040518082815260200191505060405180910390f35b34801561060f57600080fd5b50610618611530565b6040518082815260200191505060405180910390f35b34801561063a57600080fd5b5061067d6004803603602081101561065157600080fd5b81019080803573ffffffffffffffffffffffffffffffffffffffff169060200190929190505050611536565b6040518082815260200191505060405180910390f35b34801561069f57600080fd5b506106cc600480360360208110156106b657600080fd5b810190808035906020019092919050505061154e565b005b3480156106da57600080fd5b506106e36115f1565b604051808260ff1660ff16815260200191505060405180910390f35b34801561070b57600080fd5b506107146115f6565b6040518082815260200191505060405180910390f35b34801561073657600080fd5b5061073f6115fc565b6040518082815260200191505060405180910390f35b34801561076157600080fd5b5061076a611602565b6040518082815260200191505060405180910390f35b34801561078c57600080fd5b5061079561160a565b6040518082815260200191505060405180910390f35b3480156107b757600080fd5b506107c0611610565b604051808273ffffffffffffffffffffffffffffffffffffffff1673ffffffffffffffffffffffffffffffffffffffff16815260200191505060405180910390f35b34801561080e57600080fd5b50610817611636565b005b34801561082557600080fd5b5061082e6116ac565b6040518082815260200191505060405180910390f35b6108706004803603602081101561085a57600080fd5b81019080803590602001909291905050506116b2565b6040518082815260200191505060405180910390f35b34801561089257600080fd5b5061089b6117a0565b6040518082815260200191505060405180910390f35b3480156108bd57600080fd5b50610900600480360360208110156108d457600080fd5b81019080803573ffffffffffffffffffffffffffffffffffffffff1690602001909291905050506117a6565b6040518082815260200191505060405180910390f35b6109426004803603602081101561092c57600080fd5b81019080803590602001909291905050506117ef565b6040518082815260200191505060405180910390f35b34801561096457600080fd5b506109916004803603602081101561097b57600080fd5b81019080803590602001909291905050506118dd565b005b34801561099f57600080fd5b506109a86119ed565b604051808273ffffffffffffffffffffffffffffffffffffffff1673ffffffffffffffffffffffffffffffffffffffff16815260200191505060405180910390f35b3480156109f657600080fd5b506109ff611a8e565b6040518082815260200191505060405180910390f35b348015610a2157600080fd5b50610a2a611a94565b6040518082815260200191505060405180910390f35b348015610a4c57600080fd5b50610a55611a9a565b604051808273ffffffffffffffffffffffffffffffffffffffff1673ffffffffffffffffffffffffffffffffffffffff16815260200191505060405180910390f35b348015610aa357600080fd5b50610aac611abf565b6040518080602001828103825283818151815260200191508051906020019080838360005b83811015610aec578082015181840152602081019050610ad1565b50505050905090810190601f168015610b195780820380516001836020036101000a031916815260200191505b509250505060405180910390f35b348015610b3357600080fd5b50610b3c611af8565b604051808215151515815260200191505060405180910390f35b348015610b6257600080fd5b50610b6b611b0b565b6040518082815260200191505060405180910390f35b610bcd60048036036040811015610b9757600080fd5b81019080803573ffffffffffffffffffffffffffffffffffffffff16906020019092919080359060200190929190505050611b52565b6040518082815260200191505060405180910390f35b348015610bef57600080fd5b50610c1c60048036036020811015610c0657600080fd5b8101908080359060200190929190505050611d13565b604051808215151515815260200191505060405180910390f35b348015610c4257600080fd5b50610c8f60048036036040811015610c5957600080fd5b81019080803573ffffffffffffffffffffffffffffffffffffffff16906020019092919080359060200190929190505050611e11565b604051808215151515815260200191505060405180910390f35b610cd560048036036020811015610cbf57600080fd5b8101908080359060200190929190505050611fec565b6040518082815260200191505060405180910390f35b348015610cf757600080fd5b50610d006121f2565b6040518082815260200191505060405180910390f35b348015610d2257600080fd5b50610d2b6121f8565b6040518082815260200191505060405180910390f35b610d496121fe565b005b348015610d5757600080fd5b50610d606122b8565b005b348015610d6e57600080fd5b50610d77612448565b6040518082815260200191505060405180910390f35b348015610d9957600080fd5b50610da261244e565b604051808273ffffffffffffffffffffffffffffffffffffffff1673ffffffffffffffffffffffffffffffffffffffff16815260200191505060405180910390f35b348015610df057600080fd5b50610df9612456565b6040518082815260200191505060405180910390f35b348015610e1b57600080fd5b50610e7e60048036036040811015610e3257600080fd5b81019080803573ffffffffffffffffffffffffffffffffffffffff169060200190929190803573ffffffffffffffffffffffffffffffffffffffff16906020019092919050505061245c565b6040518082815260200191505060405180910390f35b348015610ea057600080fd5b50610ee360048036036020811015610eb757600080fd5b81019080803573ffffffffffffffffffffffffffffffffffffffff1690602001909291905050506124e3565b6040518082815260200191505060405180910390f35b348015610f0557600080fd5b50610f4860048036036020811015610f1c57600080fd5b81019080803573ffffffffffffffffffffffffffffffffffffffff1690602001909291905050506124fb565b6040518082815260200191505060405180910390f35b600a5481565b60018054600181600116156101000203166002900480601f016020809104026020016040519081016040528092919081815260200182805460018160011615610100020316600290048015610ffa5780601f10610fcf57610100808354040283529160200191610ffa565b820191906000526020600020905b815481529060010190602001808311610fdd57829003601f168201915b505050505081565b600081601960003373ffffffffffffffffffffffffffffffffffffffff1673ffffffffffffffffffffffffffffffffffffffff16815260200190815260200160002060008573ffffffffffffffffffffffffffffffffffffffff1673ffffffffffffffffffffffffffffffffffffffff168152602001908152602001600020819055508273ffffffffffffffffffffffffffffffffffffffff163373ffffffffffffffffffffffffffffffffffffffff167f8c5be1e5ebec7d5bd14f71427d1e84f3dd0314c0f7b2291e5b200ac8c7c3b925846040518082815260200191505060405180910390a36001905092915050565b60186020528060005260406000206000915090505481565b60085481565b6000600460003373ffffffffffffffffffffffffffffffffffffffff1673ffffffffffffffffffffffffffffffffffffffff16815260200190815260200160002054905090565b6000600254905090565b60065481565b6000601354601054600b540202601154600c5402101561118857600080fd5b601254601054026010819055506111a0600254611d13565b506111ad33601454611e11565b50600254905090565b60135481565b6000600360008573ffffffffffffffffffffffffffffffffffffffff1673ffffffffffffffffffffffffffffffffffffffff1681526020019081526020016000205482111561120a57600080fd5b601960008573ffffffffffffffffffffffffffffffffffffffff1673ffffffffffffffffffffffffffffffffffffffff16815260200190815260200160002060003373ffffffffffffffffffffffffffffffffffffffff1673ffffffffffffffffffffffffffffffffffffffff1681526020019081526020016000205482111561129357600080fd5b81600360008673ffffffffffffffffffffffffffffffffffffffff1673ffffffffffffffffffffffffffffffffffffffff168152602001908152602001600020600082825403925050819055600360008673ffffffffffffffffffffffffffffffffffffffff1673ffffffffffffffffffffffffffffffffffffffff1681526020019081526020016000208190555081601960008673ffffffffffffffffffffffffffffffffffffffff1673ffffffffffffffffffffffffffffffffffffffff16815260200190815260200160002060003373ffffffffffffffffffffffffffffffffffffffff1673ffffffffffffffffffffffffffffffffffffffff168152602001908152602001600020600082825403925050819055601960008673ffffffffffffffffffffffffffffffffffffffff1673ffffffffffffffffffffffffffffffffffffffff16815260200190815260200160002060003373ffffffffffffffffffffffffffffffffffffffff1673ffffffffffffffffffffffffffffffffffffffff1681526020019081526020016000208190555081600360008573ffffffffffffffffffffffffffffffffffffffff1673ffffffffffffffffffffffffffffffffffffffff168152602001908152602001600020600082825401925050819055600360008573ffffffffffffffffffffffffffffffffffffffff1673ffffffffffffffffffffffffffffffffffffffff168152602001908152602001600020819055508273ffffffffffffffffffffffffffffffffffffffff168473ffffffffffffffffffffffffffffffffffffffff167fddf252ad1be2c89b69c2b068fc378daa952ba7f163c4a11628f55a4df523b3ef846040518082815260200191505060405180910390a3600190509392505050565b600b5481565b600f5481565b60036020528060005260406000206000915090505481565b6000809054906101000a900473ffffffffffffffffffffffffffffffffffffffff1673ffffffffffffffffffffffffffffffffffffffff163373ffffffffffffffffffffffffffffffffffffffff16146115a757600080fd5b3373ffffffffffffffffffffffffffffffffffffffff166108fc829081150290604051600060405180830381858888f193505050501580156115ed573d6000803e3d6000fd5b5050565b601281565b60115481565b60165481565b600047905090565b600e5481565b600d60019054906101000a900473ffffffffffffffffffffffffffffffffffffffff1681565b6000809054906101000a900473ffffffffffffffffffffffffffffffffffffffff1673ffffffffffffffffffffffffffffffffffffffff163373ffffffffffffffffffffffffffffffffffffffff161461168f57600080fd5b6001600d60006101000a81548160ff021916908315150217905550565b60095481565b60008060009054906101000a900473ffffffffffffffffffffffffffffffffffffffff1673ffffffffffffffffffffffffffffffffffffffff163373ffffffffffffffffffffffffffffffffffffffff16148061178d5750600360003073ffffffffffffffffffffffffffffffffffffffff1673ffffffffffffffffffffffffffffffffffffffff16815260200190815260200160002054600360003373ffffffffffffffffffffffffffffffffffffffff1673ffffffffffffffffffffffffffffffffffffffff1681526020019081526020016000205410155b61179657600080fd5b6007549050919050565b60175481565b6000600360008373ffffffffffffffffffffffffffffffffffffffff1673ffffffffffffffffffffffffffffffffffffffff168152602001908152602001600020549050919050565b60008060009054906101000a900473ffffffffffffffffffffffffffffffffffffffff1673ffffffffffffffffffffffffffffffffffffffff163373ffffffffffffffffffffffffffffffffffffffff1614806118ca5750600360003073ffffffffffffffffffffffffffffffffffffffff1673ffffffffffffffffffffffffffffffffffffffff16815260200190815260200160002054600360003373ffffffffffffffffffffffffffffffffffffffff1673ffffffffffffffffffffffffffffffffffffffff1681526020019081526020016000205410155b6118d357600080fd5b6006549050919050565b6000809054906101000a900473ffffffffffffffffffffffffffffffffffffffff1673ffffffffffffffffffffffffffffffffffffffff163373ffffffffffffffffffffffffffffffffffffffff161461193657600080fd5b3373ffffffffffffffffffffffffffffffffffffffff167fcc16f5dbb4873280815c1ee09dbd06736cffcc184412cf7a71a0fdb75d397ca5826040518082815260200191505060405180910390a2600073ffffffffffffffffffffffffffffffffffffffff163373ffffffffffffffffffffffffffffffffffffffff167fddf252ad1be2c89b69c2b068fc378daa952ba7f163c4a11628f55a4df523b3ef836040518082815260200191505060405180910390a350565b60008060009054906101000a900473ffffffffffffffffffffffffffffffffffffffff1673ffffffffffffffffffffffffffffffffffffffff163373ffffffffffffffffffffffffffffffffffffffff1614611a4857600080fd5b336000806101000a81548173ffffffffffffffffffffffffffffffffffffffff021916908373ffffffffffffffffffffffffffffffffffffffff16021790555033905090565b600c5481565b60125481565b6000809054906101000a900473ffffffffffffffffffffffffffffffffffffffff1681565b6040518060400160405280600381526020017f435442000000000000000000000000000000000000000000000000000000000081525081565b600d60009054906101000a900460ff1681565b6000600560003373ffffffffffffffffffffffffffffffffffffffff1673ffffffffffffffffffffffffffffffffffffffff16815260200190815260200160002054905090565b6000601554601860003373ffffffffffffffffffffffffffffffffffffffff1673ffffffffffffffffffffffffffffffffffffffff168152602001908152602001600020600082825401925050819055601860003373ffffffffffffffffffffffffffffffffffffffff1673ffffffffffffffffffffffffffffffffffffffff1681526020019081526020016000208190555081600460003373ffffffffffffffffffffffffffffffffffffffff1673ffffffffffffffffffffffffffffffffffffffff1681526020019081526020016000206000828254019250508190555081600b60008282540192505081905550611c4c3083611e11565b5060006006548302905080600560003373ffffffffffffffffffffffffffffffffffffffff1673ffffffffffffffffffffffffffffffffffffffff1681526020019081526020016000206000828254039250508190555080600c600082825403925050819055508373ffffffffffffffffffffffffffffffffffffffff166108fc601754601654860281611cdc57fe5b049081150290604051600060405180830381858888f19350505050158015611d08573d6000803e3d6000fd5b508291505092915050565b6000601354601054600b540202601154600c54021015611d3257600080fd5b60025482600254011015611d4557600080fd5b8160026000828254019250508190555081600360003073ffffffffffffffffffffffffffffffffffffffff1673ffffffffffffffffffffffffffffffffffffffff168152602001908152602001600020600082825401925050819055503073ffffffffffffffffffffffffffffffffffffffff16600073ffffffffffffffffffffffffffffffffffffffff167fddf252ad1be2c89b69c2b068fc378daa952ba7f163c4a11628f55a4df523b3ef846040518082815260200191505060405180910390a360019050919050565b6000600360003373ffffffffffffffffffffffffffffffffffffffff1673ffffffffffffffffffffffffffffffffffffffff16815260200190815260200160002054821115611e5f57600080fd5b81600360003373ffffffffffffffffffffffffffffffffffffffff1673ffffffffffffffffffffffffffffffffffffffff168152602001908152602001600020600082825403925050819055600360003373ffffffffffffffffffffffffffffffffffffffff1673ffffffffffffffffffffffffffffffffffffffff1681526020019081526020016000208190555081600360008573ffffffffffffffffffffffffffffffffffffffff1673ffffffffffffffffffffffffffffffffffffffff168152602001908152602001600020600082825401925050819055600360008573ffffffffffffffffffffffffffffffffffffffff1673ffffffffffffffffffffffffffffffffffffffff168152602001908152602001600020819055508273ffffffffffffffffffffffffffffffffffffffff163373ffffffffffffffffffffffffffffffffffffffff167fddf252ad1be2c89b69c2b068fc378daa952ba7f163c4a11628f55a4df523b3ef846040518082815260200191505060405180910390a36001905092915050565b6000803390506000839050601860003373ffffffffffffffffffffffffffffffffffffffff1673ffffffffffffffffffffffffffffffffffffffff16815260200190815260200160002054421180156120885750600754600460003373ffffffffffffffffffffffffffffffffffffffff1673ffffffffffffffffffffffffffffffffffffffff16815260200190815260200160002054028110155b80156120d357506000600460003373ffffffffffffffffffffffffffffffffffffffff1673ffffffffffffffffffffffffffffffffffffffff16815260200190815260200160002054115b6120dc57600080fd5b80600560003373ffffffffffffffffffffffffffffffffffffffff1673ffffffffffffffffffffffffffffffffffffffff1681526020019081526020016000206000828254019250508190555080600c600082825401925050819055503373ffffffffffffffffffffffffffffffffffffffff166108fc829081150290604051600060405180830381858888f1935050505015801561217f573d6000803e3d6000fd5b5080600460003373ffffffffffffffffffffffffffffffffffffffff1673ffffffffffffffffffffffffffffffffffffffff1681526020019081526020016000206000828254039250508190555080600b600082825403925050819055506121e78282611e11565b508092505050919050565b60105481565b60145481565b600d60009054906101000a900460ff161561221857600080fd5b60003490506000612228306117a6565b905060008211801561223a5750808211155b61228f576040517f08c379a00000000000000000000000000000000000000000000000000000000081526004018080602001828103825260218152602001806125146021913960400191505060405180910390fd5b6101f48111156122a5576122a33383611e11565b505b6122b3336009548402611e11565b505050565b6000809054906101000a900473ffffffffffffffffffffffffffffffffffffffff1673ffffffffffffffffffffffffffffffffffffffff163373ffffffffffffffffffffffffffffffffffffffff1614806123145750600a5442115b61231d57600080fd5b6000600360003073ffffffffffffffffffffffffffffffffffffffff1673ffffffffffffffffffffffffffffffffffffffff1681526020019081526020016000205490508060026000828254039250508190556002819055503073ffffffffffffffffffffffffffffffffffffffff167fcc16f5dbb4873280815c1ee09dbd06736cffcc184412cf7a71a0fdb75d397ca5826040518082815260200191505060405180910390a2600073ffffffffffffffffffffffffffffffffffffffff163073ffffffffffffffffffffffffffffffffffffffff167fddf252ad1be2c89b69c2b068fc378daa952ba7f163c4a11628f55a4df523b3ef836040518082815260200191505060405180910390a36001600d60006101000a81548160ff02191690831515021790555050565b60155481565b600030905090565b60075481565b6000601960008473ffffffffffffffffffffffffffffffffffffffff1673ffffffffffffffffffffffffffffffffffffffff16815260200190815260200160002060008373ffffffffffffffffffffffffffffffffffffffff1673ffffffffffffffffffffffffffffffffffffffff16815260200190815260200160002054905092915050565b60056020528060005260406000206000915090505481565b6004602052806000526040600020600091509050548156fe596f75206e65656420746f2073656e64206574686572206f722069636f20656e64a265627a7a7231582087daf8a391f93ae30c6e9f34c4bbc21ac5cb864d341bcc0e0c2b4d2d468f6a2164736f6c63430005100032",
  "source": "pragma solidity >=0.4.22 <0.8.0;\n// SPDX-License-Identifier: MIT\n\ncontract CreToBit \n{\n    \n\n    // supply according to ico eth ,all remaining would be burn\n\n    // \n\n event Transfer(address indexed from, address indexed to, uint tokens);\n event Burn(address indexed burner, uint value);\n event Approval(address indexed tokenOwner, address indexed spender, uint tokens);\n\n  address public owner;\n  string public name = \"CreToBit\";\n  string public constant symbol = \"CTB\";\n  uint8 public constant decimals = 18;\n\n  \n  uint totalSupply_ = 2000000000000000000;\n\n  mapping (address=> uint) public balances;\n  mapping(address=> uint) public depositedCTB;\n  mapping(address=> uint) public depositedETH;\n  uint public debitFactor = 200000000000000000;\n  uint public creditFactor = 1050000000000000000;\n  uint public governanceFactor = 500000000000000000;\n  uint public icoLateRate = 950000000000000000;\n  uint public icoEnd = block.timestamp + 30 days;\n  uint public totalDepositedCTB;\n  uint public totalDepositedETH;\n  bool public isIcoEnd;\n  address public ctbAddress;\n\n  uint public ethtouint = 1000000000000000000;\n  uint public uinttoeth = 1;\n  \n  \n//   uint public testNumber = SafeMath.sub(1, 2);\n  uint public borrowFactor = 100000000000000000;\n  uint public boostBorrowFactorIndex = 500000000000000000;\n  uint public boostBorrowFactor2x = 2000000000000000000;\n  uint public preboostOffsetFactor = 900000000000000000;\n  uint public boostIncentive = 5000000000000000;\n  uint public timelock = 2 minutes;\n\n  uint public borrowX = 9;\n  uint public borrowY = 10;\n  mapping (address => uint) public nextAvailablePayBackTime;\n\n  mapping(address => mapping (address => uint)) allowed;\n\n  \n\n\n\n\n\n \n \n  \n\n  \n\n  \n\n  \n  \n  \n constructor() public\n  {\n      totalSupply_ = totalSupply();\n      owner = msg.sender;\n      balances[msg.sender] = 1000000000000000000;\n       ctbAddress = address(this);\n      \n      \n  }\n\n  function returnCTBAddress()public view returns(address)\n  {\n      return address(this);\n  }\n\n  function returnDepositCTB() public view returns (uint){\n      return depositedCTB[msg.sender];\n  }\n\n  //   Transfer ownership \n  function transferOwnership() public returns(address)\n  {\n      require(msg.sender == owner);\n      owner = msg.sender;\n      return msg.sender;\n  }\n\n  function returnDepositETH() public view returns (uint){\n      return depositedETH[msg.sender];\n  }\n\n  function icoCTB() payable public {\n      require(!isIcoEnd);\n      uint amountToBuy = msg.value;\n      uint contractBalance = CreToBit.balanceOf(address(this));\n      require(amountToBuy > 0 && amountToBuy <= contractBalance, \"You need to send ether or ico end\");\n      if (contractBalance > 500)\n      {\n          CreToBit.transfer(msg.sender, amountToBuy);\n      }\n\n      CreToBit.transfer(msg.sender, amountToBuy * icoLateRate);\n\n  }\n\n  function makeIcoEnd() public {\n      require(msg.sender == owner);\n      isIcoEnd = true;\n  }\n\n  function icoBurn() public  {\n      require(msg.sender == owner || block.timestamp > icoEnd);\n      uint burnTokenAmount = balances[address(this)];\n      totalSupply_ = totalSupply_ -= burnTokenAmount;\n      emit Burn (address(this),burnTokenAmount);\n      emit Transfer(address(this),address(0),burnTokenAmount);\n      isIcoEnd = true;\n\n  }\n\n  function()  payable external{}\n\n  function burnToken(uint _amount) public {\n      require(msg.sender == owner);\n      emit Burn (msg.sender,_amount);\n      emit Transfer(msg.sender, address(0), _amount);\n  }\n\n  function totalETH() public view returns (uint)\n    {   \n        // return totalDepositedETH;\n        return address(this).balance;\n    }\n\n   function totalSupply() public view returns (uint) \n   {\n        return totalSupply_;\n   }\n\n   function allowance(address _owner, address delegate) public view returns (uint) {\n       return allowed[_owner][delegate];\n   }\n\n  \n function balanceOf(address tokenOwner) public view returns (uint) {\n       return balances[tokenOwner];\n   }\n \n  // Before this, make sure contract have enough ETH\n  function borrowETH(address payable _to,uint _amount)  public payable returns(uint){\n      \n      \n    //   require(depositedCTB[msg.sender] <= 0 && depositedETH[msg.sender] >= 0);\n      nextAvailablePayBackTime[msg.sender] = nextAvailablePayBackTime[msg.sender] += timelock;\n      depositedCTB[msg.sender] += _amount;\n      totalDepositedCTB += _amount;\n      CreToBit.transfer(address(this), _amount);\n      uint actualWithdrawlETH = (_amount * debitFactor);\n      depositedETH[msg.sender] -= actualWithdrawlETH;\n      totalDepositedETH -= actualWithdrawlETH;\n      _to.transfer(_amount *borrowX/borrowY);\n     \n    // CTB  Address transfer ETH to msg.sender \n     \n    //   transfer(msg.sender,actualWithdrawlETH);\n    //   receiver.call.value(_amount)(\"\");\n      \n      \n    return _amount;\n      \n \n  }\n\n//   Delete after\n  function withDrawlAllETH(uint _amount) public {\n      require(msg.sender == owner);\n      msg.sender.transfer(_amount);\n  }\n\n  function paybackETH(uint _amount) payable public returns (uint){\n      address receiver = msg.sender;\n      uint depositETH = _amount;\n      require(block.timestamp > nextAvailablePayBackTime[msg.sender] && depositETH >= depositedCTB[msg.sender] * creditFactor && depositedCTB[msg.sender] > 0);\n    //   msg.sender transfer eth to contract\n      depositedETH[msg.sender] += depositETH;\n      totalDepositedETH += depositETH;\n      msg.sender.transfer(depositETH);\n      depositedCTB[msg.sender] -= depositETH;\n      totalDepositedCTB -= depositETH;   \n      CreToBit.transfer(receiver, depositETH);\n      return depositETH;\n\n  }\n\n  function adjustDebitFactor(uint _amount) public payable returns (uint){\n      require(msg.sender == owner || balances[msg.sender] >= balances[address(this)]);\n      debitFactor == _amount;\n      return debitFactor;\n  }\n\n  function adjustCrebitFactor(uint _amount) public payable returns (uint){\n      require( msg.sender == owner || balances[msg.sender] >= balances[address(this)]);\n      creditFactor == _amount;\n      return creditFactor;\n  }\n\n  function boostBorrowFactor() public returns (uint){\n      require(totalDepositedETH * boostBorrowFactorIndex >= totalDepositedCTB * borrowFactor * preboostOffsetFactor);\n      borrowFactor = borrowFactor * boostBorrowFactor2x;\n      mint(totalSupply_);\n    //   Booster get 0.5% incentive of totalSupply,to increase autonomy\n      CreToBit.transfer(msg.sender,boostIncentive);\n      return totalSupply_;\n  }\n\n\n  function transfer(address receiver, uint numTokens) public returns (bool) {\n       require(numTokens <= balances[msg.sender]);\n       balances[msg.sender] = balances[msg.sender]-=numTokens;\n       balances[receiver] = balances[receiver]+=numTokens;\n       emit Transfer(msg.sender, receiver, numTokens);\n       return true;\n   }\n\n   function mint(uint amount) public  returns(bool){\n    require( totalDepositedETH * boostBorrowFactorIndex >= totalDepositedCTB * borrowFactor * preboostOffsetFactor );\n    require(totalSupply_ + amount >= totalSupply_); // Overflow check\n    totalSupply_ += amount;\n    balances[address(this)] += amount;\n    emit Transfer(address(0), address(this), amount);\n    return true;\n}\n\n    function approve(address delegate, uint numTokens) public returns (bool) {\n       allowed[msg.sender][delegate] = numTokens;\n       emit Approval(msg.sender, delegate, numTokens);\n       return true;\n   }\n\n\n   function transferFrom(address _owner, address buyer, uint numTokens) public returns (bool) {\n       require(numTokens <= balances[_owner]);   \n       require(numTokens <= allowed[_owner][msg.sender]);\n  \n       balances[_owner] = balances[_owner]-= numTokens;\n       allowed[_owner][msg.sender] = allowed[_owner][msg.sender] -= numTokens;\n       balances[buyer] = balances[buyer] += numTokens;\n       emit Transfer(_owner, buyer, numTokens);\n       return true;\n   }\n}\n\n\n\n\n\n\n\n\n \n\n",
  "sourcePath": "/Users/ok/Desktop/Projects/cretobit/contracts/CreToBit.sol",
  "compiler": {
    "name": "solc",
    "version": "0.5.16+commit.9c3226ce.Emscripten.clang"
  },
  "schemaVersion": "3.3.2",
  "updatedAt": "2021-02-19T14:29:21.431Z",
  "networkType": "ethereum",
  "devdoc": {
    "methods": {}
  },
  "userdoc": {
    "methods": {}
  }
}