{
  "contractName": "CreToBit",
  "abi": [
    {
      "inputs": [],
      "stateMutability": "nonpayable",
      "type": "constructor"
    },
    {
      "anonymous": false,
      "inputs": [
        {
          "indexed": true,
          "internalType": "address",
          "name": "tokenOwner",
          "type": "address"
        },
        {
          "indexed": true,
          "internalType": "address",
          "name": "spender",
          "type": "address"
        },
        {
          "indexed": false,
          "internalType": "uint256",
          "name": "tokens",
          "type": "uint256"
        }
      ],
      "name": "Approval",
      "type": "event"
    },
    {
      "anonymous": false,
      "inputs": [
        {
          "indexed": true,
          "internalType": "address",
          "name": "burner",
          "type": "address"
        },
        {
          "indexed": false,
          "internalType": "uint256",
          "name": "value",
          "type": "uint256"
        }
      ],
      "name": "Burn",
      "type": "event"
    },
    {
      "anonymous": false,
      "inputs": [
        {
          "indexed": true,
          "internalType": "address",
          "name": "from",
          "type": "address"
        },
        {
          "indexed": true,
          "internalType": "address",
          "name": "to",
          "type": "address"
        },
        {
          "indexed": false,
          "internalType": "uint256",
          "name": "tokens",
          "type": "uint256"
        }
      ],
      "name": "Transfer",
      "type": "event"
    },
    {
      "inputs": [
        {
          "internalType": "address",
          "name": "",
          "type": "address"
        }
      ],
      "name": "balances",
      "outputs": [
        {
          "internalType": "uint256",
          "name": "",
          "type": "uint256"
        }
      ],
      "stateMutability": "view",
      "type": "function",
      "constant": true
    },
    {
      "inputs": [],
      "name": "boostBorrowFactor2x",
      "outputs": [
        {
          "internalType": "uint256",
          "name": "",
          "type": "uint256"
        }
      ],
      "stateMutability": "view",
      "type": "function",
      "constant": true
    },
    {
      "inputs": [],
      "name": "boostBorrowFactorIndexX",
      "outputs": [
        {
          "internalType": "uint256",
          "name": "",
          "type": "uint256"
        }
      ],
      "stateMutability": "view",
      "type": "function",
      "constant": true
    },
    {
      "inputs": [],
      "name": "boostBorrowFactorIndexY",
      "outputs": [
        {
          "internalType": "uint256",
          "name": "",
          "type": "uint256"
        }
      ],
      "stateMutability": "view",
      "type": "function",
      "constant": true
    },
    {
      "inputs": [],
      "name": "boostIncentiveX",
      "outputs": [
        {
          "internalType": "uint256",
          "name": "",
          "type": "uint256"
        }
      ],
      "stateMutability": "view",
      "type": "function",
      "constant": true
    },
    {
      "inputs": [],
      "name": "boostIncentiveY",
      "outputs": [
        {
          "internalType": "uint256",
          "name": "",
          "type": "uint256"
        }
      ],
      "stateMutability": "view",
      "type": "function",
      "constant": true
    },
    {
      "inputs": [],
      "name": "borrowFactor",
      "outputs": [
        {
          "internalType": "uint256",
          "name": "",
          "type": "uint256"
        }
      ],
      "stateMutability": "view",
      "type": "function",
      "constant": true
    },
    {
      "inputs": [],
      "name": "borrowX",
      "outputs": [
        {
          "internalType": "uint256",
          "name": "",
          "type": "uint256"
        }
      ],
      "stateMutability": "view",
      "type": "function",
      "constant": true
    },
    {
      "inputs": [],
      "name": "borrowY",
      "outputs": [
        {
          "internalType": "uint256",
          "name": "",
          "type": "uint256"
        }
      ],
      "stateMutability": "view",
      "type": "function",
      "constant": true
    },
    {
      "inputs": [],
      "name": "ctbAddress",
      "outputs": [
        {
          "internalType": "address payable",
          "name": "",
          "type": "address"
        }
      ],
      "stateMutability": "view",
      "type": "function",
      "constant": true
    },
    {
      "inputs": [],
      "name": "decimals",
      "outputs": [
        {
          "internalType": "uint256",
          "name": "",
          "type": "uint256"
        }
      ],
      "stateMutability": "view",
      "type": "function",
      "constant": true
    },
    {
      "inputs": [
        {
          "internalType": "address",
          "name": "",
          "type": "address"
        }
      ],
      "name": "depositedCTB",
      "outputs": [
        {
          "internalType": "uint256",
          "name": "",
          "type": "uint256"
        }
      ],
      "stateMutability": "view",
      "type": "function",
      "constant": true
    },
    {
      "inputs": [
        {
          "internalType": "address",
          "name": "",
          "type": "address"
        }
      ],
      "name": "depositedETH",
      "outputs": [
        {
          "internalType": "uint256",
          "name": "",
          "type": "uint256"
        }
      ],
      "stateMutability": "view",
      "type": "function",
      "constant": true
    },
    {
      "inputs": [],
      "name": "ethtouint256",
      "outputs": [
        {
          "internalType": "uint256",
          "name": "",
          "type": "uint256"
        }
      ],
      "stateMutability": "view",
      "type": "function",
      "constant": true
    },
    {
      "inputs": [],
      "name": "governanceFactor",
      "outputs": [
        {
          "internalType": "uint256",
          "name": "",
          "type": "uint256"
        }
      ],
      "stateMutability": "view",
      "type": "function",
      "constant": true
    },
    {
      "inputs": [],
      "name": "icoEnd",
      "outputs": [
        {
          "internalType": "uint256",
          "name": "",
          "type": "uint256"
        }
      ],
      "stateMutability": "view",
      "type": "function",
      "constant": true
    },
    {
      "inputs": [],
      "name": "icoLateRateX",
      "outputs": [
        {
          "internalType": "uint256",
          "name": "",
          "type": "uint256"
        }
      ],
      "stateMutability": "view",
      "type": "function",
      "constant": true
    },
    {
      "inputs": [],
      "name": "icoLateRateY",
      "outputs": [
        {
          "internalType": "uint256",
          "name": "",
          "type": "uint256"
        }
      ],
      "stateMutability": "view",
      "type": "function",
      "constant": true
    },
    {
      "inputs": [],
      "name": "isIcoEnd",
      "outputs": [
        {
          "internalType": "bool",
          "name": "",
          "type": "bool"
        }
      ],
      "stateMutability": "view",
      "type": "function",
      "constant": true
    },
    {
      "inputs": [
        {
          "internalType": "address",
          "name": "",
          "type": "address"
        }
      ],
      "name": "lastRewardBalance",
      "outputs": [
        {
          "internalType": "uint256",
          "name": "",
          "type": "uint256"
        }
      ],
      "stateMutability": "view",
      "type": "function",
      "constant": true
    },
    {
      "inputs": [],
      "name": "name",
      "outputs": [
        {
          "internalType": "string",
          "name": "",
          "type": "string"
        }
      ],
      "stateMutability": "view",
      "type": "function",
      "constant": true
    },
    {
      "inputs": [
        {
          "internalType": "address",
          "name": "",
          "type": "address"
        }
      ],
      "name": "nextAvailablePayBackTime",
      "outputs": [
        {
          "internalType": "uint256",
          "name": "",
          "type": "uint256"
        }
      ],
      "stateMutability": "view",
      "type": "function",
      "constant": true
    },
    {
      "inputs": [],
      "name": "owner",
      "outputs": [
        {
          "internalType": "address",
          "name": "",
          "type": "address"
        }
      ],
      "stateMutability": "view",
      "type": "function",
      "constant": true
    },
    {
      "inputs": [],
      "name": "payBackX",
      "outputs": [
        {
          "internalType": "uint256",
          "name": "",
          "type": "uint256"
        }
      ],
      "stateMutability": "view",
      "type": "function",
      "constant": true
    },
    {
      "inputs": [],
      "name": "payBackY",
      "outputs": [
        {
          "internalType": "uint256",
          "name": "",
          "type": "uint256"
        }
      ],
      "stateMutability": "view",
      "type": "function",
      "constant": true
    },
    {
      "inputs": [],
      "name": "preboostOffsetFactorX",
      "outputs": [
        {
          "internalType": "uint256",
          "name": "",
          "type": "uint256"
        }
      ],
      "stateMutability": "view",
      "type": "function",
      "constant": true
    },
    {
      "inputs": [],
      "name": "preboostOffsetFactorY",
      "outputs": [
        {
          "internalType": "uint256",
          "name": "",
          "type": "uint256"
        }
      ],
      "stateMutability": "view",
      "type": "function",
      "constant": true
    },
    {
      "inputs": [],
      "name": "symbol",
      "outputs": [
        {
          "internalType": "string",
          "name": "",
          "type": "string"
        }
      ],
      "stateMutability": "view",
      "type": "function",
      "constant": true
    },
    {
      "inputs": [],
      "name": "timelock",
      "outputs": [
        {
          "internalType": "uint256",
          "name": "",
          "type": "uint256"
        }
      ],
      "stateMutability": "view",
      "type": "function",
      "constant": true
    },
    {
      "inputs": [],
      "name": "totalDepositedCTB",
      "outputs": [
        {
          "internalType": "uint256",
          "name": "",
          "type": "uint256"
        }
      ],
      "stateMutability": "view",
      "type": "function",
      "constant": true
    },
    {
      "inputs": [],
      "name": "totalDepositedETH",
      "outputs": [
        {
          "internalType": "uint256",
          "name": "",
          "type": "uint256"
        }
      ],
      "stateMutability": "view",
      "type": "function",
      "constant": true
    },
    {
      "inputs": [],
      "name": "uint256toeth",
      "outputs": [
        {
          "internalType": "uint256",
          "name": "",
          "type": "uint256"
        }
      ],
      "stateMutability": "view",
      "type": "function",
      "constant": true
    },
    {
      "inputs": [],
      "name": "updatedFactor",
      "outputs": [
        {
          "internalType": "uint256",
          "name": "",
          "type": "uint256"
        }
      ],
      "stateMutability": "view",
      "type": "function",
      "constant": true
    },
    {
      "stateMutability": "payable",
      "type": "receive",
      "payable": true
    },
    {
      "inputs": [],
      "name": "ableToClaimAmount",
      "outputs": [
        {
          "internalType": "uint256",
          "name": "",
          "type": "uint256"
        }
      ],
      "stateMutability": "view",
      "type": "function",
      "constant": true
    },
    {
      "inputs": [
        {
          "internalType": "address payable",
          "name": "_to",
          "type": "address"
        }
      ],
      "name": "holderIncentive",
      "outputs": [
        {
          "internalType": "uint256",
          "name": "",
          "type": "uint256"
        }
      ],
      "stateMutability": "payable",
      "type": "function",
      "payable": true
    },
    {
      "inputs": [],
      "name": "returnLastRewardBalance",
      "outputs": [
        {
          "internalType": "uint256",
          "name": "",
          "type": "uint256"
        }
      ],
      "stateMutability": "view",
      "type": "function",
      "constant": true
    },
    {
      "inputs": [],
      "name": "returnCTBAddress",
      "outputs": [
        {
          "internalType": "address",
          "name": "",
          "type": "address"
        }
      ],
      "stateMutability": "view",
      "type": "function",
      "constant": true
    },
    {
      "inputs": [],
      "name": "returnDepositCTB",
      "outputs": [
        {
          "internalType": "uint256",
          "name": "",
          "type": "uint256"
        }
      ],
      "stateMutability": "view",
      "type": "function",
      "constant": true
    },
    {
      "inputs": [],
      "name": "transferOwnership",
      "outputs": [
        {
          "internalType": "address",
          "name": "",
          "type": "address"
        }
      ],
      "stateMutability": "nonpayable",
      "type": "function"
    },
    {
      "inputs": [],
      "name": "returnDepositETH",
      "outputs": [
        {
          "internalType": "uint256",
          "name": "",
          "type": "uint256"
        }
      ],
      "stateMutability": "view",
      "type": "function",
      "constant": true
    },
    {
      "inputs": [],
      "name": "icoCTB",
      "outputs": [],
      "stateMutability": "payable",
      "type": "function",
      "payable": true
    },
    {
      "inputs": [],
      "name": "makeIcoEnd",
      "outputs": [],
      "stateMutability": "nonpayable",
      "type": "function"
    },
    {
      "inputs": [],
      "name": "icoBurn",
      "outputs": [],
      "stateMutability": "nonpayable",
      "type": "function"
    },
    {
      "inputs": [
        {
          "internalType": "uint256",
          "name": "_amount",
          "type": "uint256"
        }
      ],
      "name": "burnToken",
      "outputs": [],
      "stateMutability": "nonpayable",
      "type": "function"
    },
    {
      "inputs": [],
      "name": "totalETH",
      "outputs": [
        {
          "internalType": "uint256",
          "name": "",
          "type": "uint256"
        }
      ],
      "stateMutability": "view",
      "type": "function",
      "constant": true
    },
    {
      "inputs": [],
      "name": "returnFactor",
      "outputs": [
        {
          "internalType": "uint256",
          "name": "",
          "type": "uint256"
        }
      ],
      "stateMutability": "nonpayable",
      "type": "function"
    },
    {
      "inputs": [],
      "name": "totalSupply",
      "outputs": [
        {
          "internalType": "uint256",
          "name": "",
          "type": "uint256"
        }
      ],
      "stateMutability": "view",
      "type": "function",
      "constant": true
    },
    {
      "inputs": [
        {
          "internalType": "address",
          "name": "_owner",
          "type": "address"
        },
        {
          "internalType": "address",
          "name": "delegate",
          "type": "address"
        }
      ],
      "name": "allowance",
      "outputs": [
        {
          "internalType": "uint256",
          "name": "",
          "type": "uint256"
        }
      ],
      "stateMutability": "view",
      "type": "function",
      "constant": true
    },
    {
      "inputs": [
        {
          "internalType": "address",
          "name": "tokenOwner",
          "type": "address"
        }
      ],
      "name": "balanceOf",
      "outputs": [
        {
          "internalType": "uint256",
          "name": "",
          "type": "uint256"
        }
      ],
      "stateMutability": "view",
      "type": "function",
      "constant": true
    },
    {
      "inputs": [
        {
          "internalType": "address payable",
          "name": "_to",
          "type": "address"
        },
        {
          "internalType": "uint256",
          "name": "_amount",
          "type": "uint256"
        }
      ],
      "name": "borrowETH",
      "outputs": [
        {
          "internalType": "uint256",
          "name": "",
          "type": "uint256"
        }
      ],
      "stateMutability": "payable",
      "type": "function",
      "payable": true
    },
    {
      "inputs": [
        {
          "internalType": "address payable",
          "name": "recipient",
          "type": "address"
        },
        {
          "internalType": "uint256",
          "name": "_amount",
          "type": "uint256"
        }
      ],
      "name": "transferEther",
      "outputs": [],
      "stateMutability": "nonpayable",
      "type": "function"
    },
    {
      "inputs": [],
      "name": "getDepositCTB",
      "outputs": [],
      "stateMutability": "payable",
      "type": "function",
      "payable": true
    },
    {
      "inputs": [
        {
          "internalType": "uint256",
          "name": "_debitX",
          "type": "uint256"
        },
        {
          "internalType": "uint256",
          "name": "_debitY",
          "type": "uint256"
        }
      ],
      "name": "adjustDebitFactor",
      "outputs": [
        {
          "internalType": "uint256",
          "name": "",
          "type": "uint256"
        }
      ],
      "stateMutability": "payable",
      "type": "function",
      "payable": true
    },
    {
      "inputs": [
        {
          "internalType": "uint256",
          "name": "_payBackX",
          "type": "uint256"
        },
        {
          "internalType": "uint256",
          "name": "_payBackY",
          "type": "uint256"
        }
      ],
      "name": "adjustCrebitFactor",
      "outputs": [
        {
          "internalType": "uint256",
          "name": "",
          "type": "uint256"
        }
      ],
      "stateMutability": "payable",
      "type": "function",
      "payable": true
    },
    {
      "inputs": [],
      "name": "governanceMint",
      "outputs": [
        {
          "internalType": "uint256",
          "name": "",
          "type": "uint256"
        }
      ],
      "stateMutability": "nonpayable",
      "type": "function"
    },
    {
      "inputs": [
        {
          "internalType": "address",
          "name": "receiver",
          "type": "address"
        },
        {
          "internalType": "uint256",
          "name": "numTokens",
          "type": "uint256"
        }
      ],
      "name": "transfer",
      "outputs": [
        {
          "internalType": "bool",
          "name": "",
          "type": "bool"
        }
      ],
      "stateMutability": "nonpayable",
      "type": "function"
    },
    {
      "inputs": [
        {
          "internalType": "uint256",
          "name": "amount",
          "type": "uint256"
        }
      ],
      "name": "mint",
      "outputs": [
        {
          "internalType": "bool",
          "name": "",
          "type": "bool"
        }
      ],
      "stateMutability": "nonpayable",
      "type": "function"
    },
    {
      "inputs": [
        {
          "internalType": "address",
          "name": "delegate",
          "type": "address"
        },
        {
          "internalType": "uint256",
          "name": "numTokens",
          "type": "uint256"
        }
      ],
      "name": "approve",
      "outputs": [
        {
          "internalType": "bool",
          "name": "",
          "type": "bool"
        }
      ],
      "stateMutability": "nonpayable",
      "type": "function"
    },
    {
      "inputs": [
        {
          "internalType": "address",
          "name": "_owner",
          "type": "address"
        },
        {
          "internalType": "address",
          "name": "buyer",
          "type": "address"
        },
        {
          "internalType": "uint256",
          "name": "numTokens",
          "type": "uint256"
        }
      ],
      "name": "transferFrom",
      "outputs": [
        {
          "internalType": "bool",
          "name": "",
          "type": "bool"
        }
      ],
      "stateMutability": "nonpayable",
      "type": "function"
    }
  ],
  "bytecode": "0x60806040526040518060400160405280600881526020017f437265546f4269740000000000000000000000000000000000000000000000008152506001908051906020019062000051929190620001f8565b5060126103e80260025560126101f402600655605f600755606460085562278d004201600a55670de0b6b3a7640000600f55600160105567016345785d8a00006011556001601255600260135560026014556009601555600a601655600160175560c86018556001601955605f601c556064601d55606e601e556064601f55348015620000dd57600080fd5b50620000ee620001ee60201b60201c565b600281905550336000806101000a81548173ffffffffffffffffffffffffffffffffffffffff021916908373ffffffffffffffffffffffffffffffffffffffff160217905550600f54600102600360003373ffffffffffffffffffffffffffffffffffffffff1673ffffffffffffffffffffffffffffffffffffffff16815260200190815260200160002081905550600f5460010260036000600d60019054906101000a900473ffffffffffffffffffffffffffffffffffffffff1673ffffffffffffffffffffffffffffffffffffffff1673ffffffffffffffffffffffffffffffffffffffff16815260200190815260200160002081905550620002ae565b6000600254905090565b828054600181600116156101000203166002900490600052602060002090601f0160209004810192826200023057600085556200027c565b82601f106200024b57805160ff19168380011785556200027c565b828001600101855582156200027c579182015b828111156200027b5782518255916020019190600101906200025e565b5b5090506200028b91906200028f565b5090565b5b80821115620002aa57600081600090555060010162000290565b5090565b612c9580620002be6000396000f3fe6080604052600436106103905760003560e01c8063899aa991116101dc578063c1d800f611610102578063d3bff53a116100a0578063f46e1fce1161006f578063f46e1fce146111e1578063f5db8bc71461120c578063f8c8b6fc14611271578063fa994d9b146112d657610484565b8063d3bff53a146110c5578063d99409ff14611106578063dd62ed3e14611131578063f34286cd146111b657610484565b8063c8240a57116100dc578063c8240a5714610feb578063c8de345114611037578063d2af782614611083578063d33219b41461109a57610484565b8063c1d800f614610f8b578063c292614b14610fb6578063c74d601914610fe157610484565b8063984214381161017a578063a9059cbb11610149578063a9059cbb14610e99578063a9b78b5614610f0a578063b5fa88d714610f35578063bb63374614610f6057610484565b80639842143814610d905780639fb2ac2514610dbb578063a0712d6814610e1d578063a5ce94ac14610e6e57610484565b806392eac1f3116101b657806392eac1f314610c7d57806394e7dbb914610ca857806395d89b4114610cd35780639835c63814610d6357610484565b8063899aa99114610be65780638d95c7b514610c115780638da5cb5b14610c3c57610484565b8063332d1a38116102c15780635b39045e1161025f578063757116ea1161022e578063757116ea14610b14578063774e304214610b3f5780637b47ec1a14610b6a578063880ad0af14610ba557610484565b80635b39045e146109f45780635fc0d9e014610a1f5780636fc88f9114610a8457806370a0823114610aaf57610484565b8063392082861161029b57806339208286146109465780633ac27422146109875780633d96e6d7146109b2578063571d8304146109c957610484565b8063332d1a3814610898578063357a101f146108f057806336bdee741461091b57610484565b806312714bac1161032e57806323b872dd1161030857806323b872dd1461074c57806326eef3ac146107dd57806327e235e314610808578063313ce5671461086d57610484565b806312714bac146106cb5780631754715c146106f657806318160ddd1461072157610484565b806306fdde031161036a57806306fdde031461053a578063095ea7b3146105ca5780630bf66a2f1461063b578063115cf01e146106a057610484565b80630563451a1461048957806305b1137b146104b457806306dc51a21461050f57610484565b3661048457600034905080600c6000828254019250508190555080600560003373ffffffffffffffffffffffffffffffffffffffff1673ffffffffffffffffffffffffffffffffffffffff1681526020019081526020016000206000828254019250508190555080602160003073ffffffffffffffffffffffffffffffffffffffff1673ffffffffffffffffffffffffffffffffffffffff16815260200190815260200160002060003373ffffffffffffffffffffffffffffffffffffffff1673ffffffffffffffffffffffffffffffffffffffff1681526020019081526020016000206000828254019250508190555050005b600080fd5b34801561049557600080fd5b5061049e6112e0565b6040518082815260200191505060405180910390f35b3480156104c057600080fd5b5061050d600480360360408110156104d757600080fd5b81019080803573ffffffffffffffffffffffffffffffffffffffff169060200190929190803590602001909291905050506112e6565b005b34801561051b57600080fd5b50610524611331565b6040518082815260200191505060405180910390f35b34801561054657600080fd5b5061054f611337565b6040518080602001828103825283818151815260200191508051906020019080838360005b8381101561058f578082015181840152602081019050610574565b50505050905090810190601f1680156105bc5780820380516001836020036101000a031916815260200191505b509250505060405180910390f35b3480156105d657600080fd5b50610623600480360360408110156105ed57600080fd5b81019080803573ffffffffffffffffffffffffffffffffffffffff169060200190929190803590602001909291905050506113d5565b60405180821515815260200191505060405180910390f35b34801561064757600080fd5b5061068a6004803603602081101561065e57600080fd5b81019080803573ffffffffffffffffffffffffffffffffffffffff1690602001909291905050506114c7565b6040518082815260200191505060405180910390f35b3480156106ac57600080fd5b506106b56114de565b6040518082815260200191505060405180910390f35b3480156106d757600080fd5b506106e06114e4565b6040518082815260200191505060405180910390f35b34801561070257600080fd5b5061070b6114ea565b6040518082815260200191505060405180910390f35b34801561072d57600080fd5b50610736611531565b6040518082815260200191505060405180910390f35b34801561075857600080fd5b506107c56004803603606081101561076f57600080fd5b81019080803573ffffffffffffffffffffffffffffffffffffffff169060200190929190803573ffffffffffffffffffffffffffffffffffffffff1690602001909291908035906020019092919050505061153b565b60405180821515815260200191505060405180910390f35b3480156107e957600080fd5b506107f26118a9565b6040518082815260200191505060405180910390f35b34801561081457600080fd5b506108576004803603602081101561082b57600080fd5b81019080803573ffffffffffffffffffffffffffffffffffffffff1690602001909291905050506118af565b6040518082815260200191505060405180910390f35b34801561087957600080fd5b506108826118c7565b6040518082815260200191505060405180910390f35b6108da600480360360208110156108ae57600080fd5b81019080803573ffffffffffffffffffffffffffffffffffffffff1690602001909291905050506118cc565b6040518082815260200191505060405180910390f35b3480156108fc57600080fd5b50610905611b48565b6040518082815260200191505060405180910390f35b34801561092757600080fd5b50610930611b4e565b6040518082815260200191505060405180910390f35b34801561095257600080fd5b5061095b611b56565b604051808273ffffffffffffffffffffffffffffffffffffffff16815260200191505060405180910390f35b34801561099357600080fd5b5061099c611b7c565b6040518082815260200191505060405180910390f35b3480156109be57600080fd5b506109c7611b82565b005b3480156109d557600080fd5b506109de611bf7565b6040518082815260200191505060405180910390f35b348015610a0057600080fd5b50610a09611c58565b6040518082815260200191505060405180910390f35b348015610a2b57600080fd5b50610a6e60048036036020811015610a4257600080fd5b81019080803573ffffffffffffffffffffffffffffffffffffffff169060200190929190505050611c5e565b6040518082815260200191505060405180910390f35b348015610a9057600080fd5b50610a99611c76565b6040518082815260200191505060405180910390f35b348015610abb57600080fd5b50610afe60048036036020811015610ad257600080fd5b81019080803573ffffffffffffffffffffffffffffffffffffffff169060200190929190505050611c7c565b6040518082815260200191505060405180910390f35b348015610b2057600080fd5b50610b29611cc5565b6040518082815260200191505060405180910390f35b348015610b4b57600080fd5b50610b54611ccb565b6040518082815260200191505060405180910390f35b348015610b7657600080fd5b50610ba360048036036020811015610b8d57600080fd5b8101908080359060200190929190505050611d02565b005b348015610bb157600080fd5b50610bba611e11565b604051808273ffffffffffffffffffffffffffffffffffffffff16815260200191505060405180910390f35b348015610bf257600080fd5b50610bfb611eb2565b6040518082815260200191505060405180910390f35b348015610c1d57600080fd5b50610c26611eb8565b6040518082815260200191505060405180910390f35b348015610c4857600080fd5b50610c51611ebe565b604051808273ffffffffffffffffffffffffffffffffffffffff16815260200191505060405180910390f35b348015610c8957600080fd5b50610c92611ee2565b6040518082815260200191505060405180910390f35b348015610cb457600080fd5b50610cbd611ee8565b6040518082815260200191505060405180910390f35b348015610cdf57600080fd5b50610ce8611eee565b6040518080602001828103825283818151815260200191508051906020019080838360005b83811015610d28578082015181840152602081019050610d0d565b50505050905090810190601f168015610d555780820380516001836020036101000a031916815260200191505b509250505060405180910390f35b348015610d6f57600080fd5b50610d78611f27565b60405180821515815260200191505060405180910390f35b348015610d9c57600080fd5b50610da5611f3a565b6040518082815260200191505060405180910390f35b610e0760048036036040811015610dd157600080fd5b81019080803573ffffffffffffffffffffffffffffffffffffffff16906020019092919080359060200190929190505050611f81565b6040518082815260200191505060405180910390f35b348015610e2957600080fd5b50610e5660048036036020811015610e4057600080fd5b810190808035906020019092919050505061218a565b60405180821515815260200191505060405180910390f35b348015610e7a57600080fd5b50610e8361229a565b6040518082815260200191505060405180910390f35b348015610ea557600080fd5b50610ef260048036036040811015610ebc57600080fd5b81019080803573ffffffffffffffffffffffffffffffffffffffff169060200190929190803590602001909291905050506122a0565b60405180821515815260200191505060405180910390f35b348015610f1657600080fd5b50610f1f61247b565b6040518082815260200191505060405180910390f35b348015610f4157600080fd5b50610f4a612481565b6040518082815260200191505060405180910390f35b348015610f6c57600080fd5b50610f75612487565b6040518082815260200191505060405180910390f35b348015610f9757600080fd5b50610fa061248d565b6040518082815260200191505060405180910390f35b348015610fc257600080fd5b50610fcb6124d4565b6040518082815260200191505060405180910390f35b610fe96124da565b005b6110216004803603604081101561100157600080fd5b8101908080359060200190929190803590602001909291905050506125a2565b6040518082815260200191505060405180910390f35b61106d6004803603604081101561104d57600080fd5b8101908080359060200190929190803590602001909291905050506126aa565b6040518082815260200191505060405180910390f35b34801561108f57600080fd5b506110986127b2565b005b3480156110a657600080fd5b506110af612941565b6040518082815260200191505060405180910390f35b3480156110d157600080fd5b506110da612947565b604051808273ffffffffffffffffffffffffffffffffffffffff16815260200191505060405180910390f35b34801561111257600080fd5b5061111b61294f565b6040518082815260200191505060405180910390f35b34801561113d57600080fd5b506111a06004803603604081101561115457600080fd5b81019080803573ffffffffffffffffffffffffffffffffffffffff169060200190929190803573ffffffffffffffffffffffffffffffffffffffff169060200190929190505050612996565b6040518082815260200191505060405180910390f35b3480156111c257600080fd5b506111cb612a1d565b6040518082815260200191505060405180910390f35b3480156111ed57600080fd5b506111f6612a23565b6040518082815260200191505060405180910390f35b34801561121857600080fd5b5061125b6004803603602081101561122f57600080fd5b81019080803573ffffffffffffffffffffffffffffffffffffffff169060200190929190505050612a29565b6040518082815260200191505060405180910390f35b34801561127d57600080fd5b506112c06004803603602081101561129457600080fd5b81019080803573ffffffffffffffffffffffffffffffffffffffff169060200190929190505050612a41565b6040518082815260200191505060405180910390f35b6112de612a59565b005b600a5481565b8173ffffffffffffffffffffffffffffffffffffffff166108fc829081150290604051600060405180830381858888f1935050505015801561132c573d6000803e3d6000fd5b505050565b601e5481565b60018054600181600116156101000203166002900480601f0160208091040260200160405190810160405280929190818152602001828054600181600116156101000203166002900480156113cd5780601f106113a2576101008083540402835291602001916113cd565b820191906000526020600020905b8154815290600101906020018083116113b057829003601f168201915b505050505081565b600081602160003373ffffffffffffffffffffffffffffffffffffffff1673ffffffffffffffffffffffffffffffffffffffff16815260200190815260200160002060008573ffffffffffffffffffffffffffffffffffffffff1673ffffffffffffffffffffffffffffffffffffffff168152602001908152602001600020819055508273ffffffffffffffffffffffffffffffffffffffff163373ffffffffffffffffffffffffffffffffffffffff167f8c5be1e5ebec7d5bd14f71427d1e84f3dd0314c0f7b2291e5b200ac8c7c3b925846040518082815260200191505060405180910390a36001905092915050565b602080528060005260406000206000915090505481565b60065481565b60155481565b6000600460003373ffffffffffffffffffffffffffffffffffffffff1673ffffffffffffffffffffffffffffffffffffffff16815260200190815260200160002054905090565b6000600254905090565b6000600360008573ffffffffffffffffffffffffffffffffffffffff1673ffffffffffffffffffffffffffffffffffffffff1681526020019081526020016000205482111561158957600080fd5b602160008573ffffffffffffffffffffffffffffffffffffffff1673ffffffffffffffffffffffffffffffffffffffff16815260200190815260200160002060003373ffffffffffffffffffffffffffffffffffffffff1673ffffffffffffffffffffffffffffffffffffffff1681526020019081526020016000205482111561161257600080fd5b81600360008673ffffffffffffffffffffffffffffffffffffffff1673ffffffffffffffffffffffffffffffffffffffff168152602001908152602001600020600082825403925050819055600360008673ffffffffffffffffffffffffffffffffffffffff1673ffffffffffffffffffffffffffffffffffffffff1681526020019081526020016000208190555081602160008673ffffffffffffffffffffffffffffffffffffffff1673ffffffffffffffffffffffffffffffffffffffff16815260200190815260200160002060003373ffffffffffffffffffffffffffffffffffffffff1673ffffffffffffffffffffffffffffffffffffffff168152602001908152602001600020600082825403925050819055602160008673ffffffffffffffffffffffffffffffffffffffff1673ffffffffffffffffffffffffffffffffffffffff16815260200190815260200160002060003373ffffffffffffffffffffffffffffffffffffffff1673ffffffffffffffffffffffffffffffffffffffff1681526020019081526020016000208190555081600360008573ffffffffffffffffffffffffffffffffffffffff1673ffffffffffffffffffffffffffffffffffffffff168152602001908152602001600020600082825401925050819055600360008573ffffffffffffffffffffffffffffffffffffffff1673ffffffffffffffffffffffffffffffffffffffff168152602001908152602001600020819055508273ffffffffffffffffffffffffffffffffffffffff168473ffffffffffffffffffffffffffffffffffffffff167fddf252ad1be2c89b69c2b068fc378daa952ba7f163c4a11628f55a4df523b3ef846040518082815260200191505060405180910390a3600190509392505050565b600b5481565b60036020528060005260406000206000915090505481565b601281565b6000601b60003373ffffffffffffffffffffffffffffffffffffffff1673ffffffffffffffffffffffffffffffffffffffff16815260200190815260200160002054421161191957600080fd5b60b4601b60003373ffffffffffffffffffffffffffffffffffffffff1673ffffffffffffffffffffffffffffffffffffffff16815260200190815260200160002060008282540192505081905550600061197230611c7c565b61197a611b4e565b0390506000600460003373ffffffffffffffffffffffffffffffffffffffff1673ffffffffffffffffffffffffffffffffffffffff1681526020019081526020016000205482816119c757fe5b0490506000601a60003373ffffffffffffffffffffffffffffffffffffffff1673ffffffffffffffffffffffffffffffffffffffff16815260200190815260200160002054828481611a1557fe5b0403905060008111611a2657600080fd5b600460003373ffffffffffffffffffffffffffffffffffffffff1673ffffffffffffffffffffffffffffffffffffffff16815260200190815260200160002054600960003373ffffffffffffffffffffffffffffffffffffffff1673ffffffffffffffffffffffffffffffffffffffff1681526020019081526020016000208190555080601a60003373ffffffffffffffffffffffffffffffffffffffff1673ffffffffffffffffffffffffffffffffffffffff168152602001908152602001600020600082825401925050819055508473ffffffffffffffffffffffffffffffffffffffff166108fc829081150290604051600060405180830381858888f19350505050158015611b3c573d6000803e3d6000fd5b50809350505050919050565b601c5481565b600047905090565b600d60019054906101000a900473ffffffffffffffffffffffffffffffffffffffff1681565b600f5481565b60008054906101000a900473ffffffffffffffffffffffffffffffffffffffff1673ffffffffffffffffffffffffffffffffffffffff163373ffffffffffffffffffffffffffffffffffffffff1614611bda57600080fd5b6001600d60006101000a81548160ff021916908315150217905550565b6000601654601554600b540281611c0a57fe5b04601354601254600c540281611c1c57fe5b041015611c2857600080fd5b611c3360025461218a565b50611c4f336018546017546002540281611c4957fe5b046122a0565b50600254905090565b60185481565b60096020528060005260406000206000915090505481565b601d5481565b6000600360008373ffffffffffffffffffffffffffffffffffffffff1673ffffffffffffffffffffffffffffffffffffffff168152602001908152602001600020549050919050565b60075481565b600080611cd6611b4e565b90506000611ce330611c7c565b90506001818381611cf057fe5b0401600e81905550600e549250505090565b60008054906101000a900473ffffffffffffffffffffffffffffffffffffffff1673ffffffffffffffffffffffffffffffffffffffff163373ffffffffffffffffffffffffffffffffffffffff1614611d5a57600080fd5b3373ffffffffffffffffffffffffffffffffffffffff167fcc16f5dbb4873280815c1ee09dbd06736cffcc184412cf7a71a0fdb75d397ca5826040518082815260200191505060405180910390a2600073ffffffffffffffffffffffffffffffffffffffff163373ffffffffffffffffffffffffffffffffffffffff167fddf252ad1be2c89b69c2b068fc378daa952ba7f163c4a11628f55a4df523b3ef836040518082815260200191505060405180910390a350565b60008060009054906101000a900473ffffffffffffffffffffffffffffffffffffffff1673ffffffffffffffffffffffffffffffffffffffff163373ffffffffffffffffffffffffffffffffffffffff1614611e6c57600080fd5b336000806101000a81548173ffffffffffffffffffffffffffffffffffffffff021916908373ffffffffffffffffffffffffffffffffffffffff16021790555033905090565b600c5481565b60145481565b60008054906101000a900473ffffffffffffffffffffffffffffffffffffffff1681565b60165481565b60105481565b6040518060400160405280600381526020017f435442000000000000000000000000000000000000000000000000000000000081525081565b600d60009054906101000a900460ff1681565b6000600560003373ffffffffffffffffffffffffffffffffffffffff1673ffffffffffffffffffffffffffffffffffffffff16815260200190815260200160002054905090565b600080600560003373ffffffffffffffffffffffffffffffffffffffff1673ffffffffffffffffffffffffffffffffffffffff168152602001908152602001600020541015611fcf57600080fd5b601954602060003373ffffffffffffffffffffffffffffffffffffffff1673ffffffffffffffffffffffffffffffffffffffff168152602001908152602001600020600082825401925050819055602060003373ffffffffffffffffffffffffffffffffffffffff1673ffffffffffffffffffffffffffffffffffffffff1681526020019081526020016000208190555081600460003373ffffffffffffffffffffffffffffffffffffffff1673ffffffffffffffffffffffffffffffffffffffff1681526020019081526020016000206000828254019250508190555081600b600082825401925050819055506120c730836122a0565b506000601d54601c548402816120d957fe5b04905080600560003373ffffffffffffffffffffffffffffffffffffffff1673ffffffffffffffffffffffffffffffffffffffff1681526020019081526020016000206000828254039250508190555080600c600082825403925050819055508373ffffffffffffffffffffffffffffffffffffffff166108fc829081150290604051600060405180830381858888f1935050505015801561217f573d6000803e3d6000fd5b508291505092915050565b6000601654601554600b54028161219d57fe5b04601354601254600c5402816121af57fe5b0410156121bb57600080fd5b600254826002540110156121ce57600080fd5b8160026000828254019250508190555081600360003073ffffffffffffffffffffffffffffffffffffffff1673ffffffffffffffffffffffffffffffffffffffff168152602001908152602001600020600082825401925050819055503073ffffffffffffffffffffffffffffffffffffffff16600073ffffffffffffffffffffffffffffffffffffffff167fddf252ad1be2c89b69c2b068fc378daa952ba7f163c4a11628f55a4df523b3ef846040518082815260200191505060405180910390a360019050919050565b60085481565b6000600360003373ffffffffffffffffffffffffffffffffffffffff1673ffffffffffffffffffffffffffffffffffffffff168152602001908152602001600020548211156122ee57600080fd5b81600360003373ffffffffffffffffffffffffffffffffffffffff1673ffffffffffffffffffffffffffffffffffffffff168152602001908152602001600020600082825403925050819055600360003373ffffffffffffffffffffffffffffffffffffffff1673ffffffffffffffffffffffffffffffffffffffff1681526020019081526020016000208190555081600360008573ffffffffffffffffffffffffffffffffffffffff1673ffffffffffffffffffffffffffffffffffffffff168152602001908152602001600020600082825401925050819055600360008573ffffffffffffffffffffffffffffffffffffffff1673ffffffffffffffffffffffffffffffffffffffff168152602001908152602001600020819055508273ffffffffffffffffffffffffffffffffffffffff163373ffffffffffffffffffffffffffffffffffffffff167fddf252ad1be2c89b69c2b068fc378daa952ba7f163c4a11628f55a4df523b3ef846040518082815260200191505060405180910390a36001905092915050565b60135481565b60175481565b600e5481565b6000601a60003373ffffffffffffffffffffffffffffffffffffffff1673ffffffffffffffffffffffffffffffffffffffff16815260200190815260200160002054905090565b60115481565b600d60009054906101000a900460ff16156124f457600080fd5b6000349050600061250430611c7c565b90506000821180156125165750808211155b61256b576040517f08c379a0000000000000000000000000000000000000000000000000000000008152600401808060200182810382526021815260200180612c3f6021913960400191505060405180910390fd5b60126101f4028111156125845761258233836122a0565b505b61259d3360085460075485028161259757fe5b046122a0565b505050565b60008060009054906101000a900473ffffffffffffffffffffffffffffffffffffffff1673ffffffffffffffffffffffffffffffffffffffff163373ffffffffffffffffffffffffffffffffffffffff16148061267d5750600360003073ffffffffffffffffffffffffffffffffffffffff1673ffffffffffffffffffffffffffffffffffffffff16815260200190815260200160002054600360003373ffffffffffffffffffffffffffffffffffffffff1673ffffffffffffffffffffffffffffffffffffffff1681526020019081526020016000205410155b61268657600080fd5b82601c8190555081601d81905550601d54601c54816126a157fe5b04905092915050565b60008060009054906101000a900473ffffffffffffffffffffffffffffffffffffffff1673ffffffffffffffffffffffffffffffffffffffff163373ffffffffffffffffffffffffffffffffffffffff1614806127855750600360003073ffffffffffffffffffffffffffffffffffffffff1673ffffffffffffffffffffffffffffffffffffffff16815260200190815260200160002054600360003373ffffffffffffffffffffffffffffffffffffffff1673ffffffffffffffffffffffffffffffffffffffff1681526020019081526020016000205410155b61278e57600080fd5b82601e8190555081601f81905550601f54601e54816127a957fe5b04905092915050565b60008054906101000a900473ffffffffffffffffffffffffffffffffffffffff1673ffffffffffffffffffffffffffffffffffffffff163373ffffffffffffffffffffffffffffffffffffffff16148061280d5750600a5442115b61281657600080fd5b6000600360003073ffffffffffffffffffffffffffffffffffffffff1673ffffffffffffffffffffffffffffffffffffffff1681526020019081526020016000205490508060026000828254039250508190556002819055503073ffffffffffffffffffffffffffffffffffffffff167fcc16f5dbb4873280815c1ee09dbd06736cffcc184412cf7a71a0fdb75d397ca5826040518082815260200191505060405180910390a2600073ffffffffffffffffffffffffffffffffffffffff163073ffffffffffffffffffffffffffffffffffffffff167fddf252ad1be2c89b69c2b068fc378daa952ba7f163c4a11628f55a4df523b3ef836040518082815260200191505060405180910390a36001600d60006101000a81548160ff02191690831515021790555050565b60195481565b600030905090565b6000600960003373ffffffffffffffffffffffffffffffffffffffff1673ffffffffffffffffffffffffffffffffffffffff16815260200190815260200160002054905090565b6000602160008473ffffffffffffffffffffffffffffffffffffffff1673ffffffffffffffffffffffffffffffffffffffff16815260200190815260200160002060008373ffffffffffffffffffffffffffffffffffffffff1673ffffffffffffffffffffffffffffffffffffffff16815260200190815260200160002054905092915050565b60125481565b601f5481565b60056020528060005260406000206000915090505481565b60046020528060005260406000206000915090505481565b6000600560003373ffffffffffffffffffffffffffffffffffffffff1673ffffffffffffffffffffffffffffffffffffffff1681526020019081526020016000205410158015612ae957506000600460003373ffffffffffffffffffffffffffffffffffffffff1673ffffffffffffffffffffffffffffffffffffffff1681526020019081526020016000205410155b8015612b335750602060003373ffffffffffffffffffffffffffffffffffffffff1673ffffffffffffffffffffffffffffffffffffffff1681526020019081526020016000205442115b612b3c57600080fd5b601954602060003373ffffffffffffffffffffffffffffffffffffffff1673ffffffffffffffffffffffffffffffffffffffff168152602001908152602001600020600082825401925050819055602060003373ffffffffffffffffffffffffffffffffffffffff1673ffffffffffffffffffffffffffffffffffffffff16815260200190815260200160002081905550600034905080600460003373ffffffffffffffffffffffffffffffffffffffff1673ffffffffffffffffffffffffffffffffffffffff1681526020019081526020016000206000828254039250508190555080600b60008282540392505081905550612c3a30338361153b565b505056fe596f75206e65656420746f2073656e64206574686572206f722069636f20656e64a2646970667358221220e58c90b4a1010e4c3377d7c9dc9021b4a99b2805ac7c6ae70bfdb25be88de08464736f6c63430007060033",
  "immutableReferences": {},
  "source": "pragma solidity ^0.7.6;\n// SPDX-License-Identifier: MIT\n\ncontract  CreToBit  \n{\n    \n\n    // supply according to ico eth ,all remaining would be burn\n\n    // \n\n event Transfer(address indexed from, address indexed to, uint256 tokens);\n event Burn(address indexed burner, uint256 value);\n event Approval(address indexed tokenOwner, address indexed spender, uint256 tokens);\n\n  address public owner;\n  string public name = \"CreToBit\";\n  string public constant symbol = \"CTB\";\n  uint256 public constant decimals = 18;\n\n  \n  uint256 totalSupply_ = 1000 * decimals;\n\n  mapping (address=> uint256) public balances;\n  mapping(address=> uint256) public depositedCTB;\n  mapping(address=> uint256) public depositedETH;\n//   uint256 public debitFactor = 200000000000000000;\n//   uint256 public creditFactor = 1050000000000000000;\n  uint256 public governanceFactor = 500 * decimals;\n  uint256 public icoLateRateX = 95;\n  uint256 public icoLateRateY = 100;\n  mapping (address=> uint256)public lastRewardBalance;\n\n  uint256 public icoEnd = block.timestamp + 30 days;\n  uint256 public totalDepositedCTB;\n  uint256 public totalDepositedETH;\n  bool public isIcoEnd;\n  address payable public  ctbAddress;\n  uint256 public updatedFactor;\n\n  uint256 public ethtouint256 = 1000000000000000000;\n  uint256 public uint256toeth = 1;\n  \n  \n//   uint256 public testNumber = SafeMath.sub(1, 2);\n  uint256 public borrowFactor = 100000000000000000;\n  uint256 public boostBorrowFactorIndexX = 1;\n  uint256 public boostBorrowFactorIndexY = 2;\n\n  uint256 public boostBorrowFactor2x = 2;\n  uint256 public preboostOffsetFactorX = 9;\n  uint256 public preboostOffsetFactorY = 10;\n  uint256 public boostIncentiveX = 1;\n  uint256 public boostIncentiveY = 200;\n  uint256 public timelock = 1 seconds;\n  mapping (address=> uint256) ableToClaim;\n  mapping (address=> uint256)nextRewardClaim;\n  \n\n  uint256 public borrowX = 95;\n  uint256 public borrowY = 100;\n\n  uint256 public payBackX = 110;\n  uint256 public payBackY = 100;\n  \n  mapping (address => uint256) public nextAvailablePayBackTime;\n\n  mapping(address => mapping (address => uint256)) allowed;\n\n  \n\n\n\n\n\n \n \n  \n\n  \n\n  \n\n  \n  \n  \n constructor() public\n  {\n      totalSupply_ = totalSupply();\n      owner = msg.sender;\n    //   if revert in migrate , see if this enough for first transfer\n      balances[msg.sender] = 1*ethtouint256;\n      balances[ctbAddress] = 1*ethtouint256;\n      \n      \n  }\n\n  function ableToClaimAmount() public view returns (uint256)\n  {\n      return ableToClaim[msg.sender];\n  }\n\n\n  function holderIncentive(address payable _to) public payable  returns(uint256){\n\n    require(block.timestamp > nextRewardClaim[msg.sender]);\n    nextRewardClaim[msg.sender] += 3 minutes;\n    uint256 rewards = totalETH() - balanceOf(address(this)) ;\n    uint256 div = rewards/ depositedCTB[msg.sender];\n    uint256 rewardDistribute = rewards/div - ableToClaim[msg.sender];\n    require( rewardDistribute > 0);\n    lastRewardBalance[msg.sender] =  depositedCTB[msg.sender];\n    ableToClaim[msg.sender] += rewardDistribute;\n    _to.transfer(rewardDistribute);\n\n    \n    return rewardDistribute;\n\n  }\n\n\n  function returnLastRewardBalance() public view returns (uint256)\n  {\n      return lastRewardBalance[msg.sender];\n  }\n\n  function returnCTBAddress()public view returns(address)\n  {\n      return address(this);\n  }\n\n  function returnDepositCTB() public view returns (uint256){\n      return depositedCTB[msg.sender];\n  }\n\n  //   Transfer ownership \n  function transferOwnership() public returns(address)\n  {\n      require(msg.sender == owner);\n      owner = msg.sender;\n      return msg.sender;\n  }\n\n  function returnDepositETH() public view returns (uint256){\n      return depositedETH[msg.sender];\n  }\n\n  function icoCTB() payable public {\n      require(!isIcoEnd);\n      uint256 amountToBuy = msg.value;\n      uint256 contractBalance = CreToBit.balanceOf(address(this));\n      require(amountToBuy > 0 && amountToBuy <= contractBalance, \"You need to send ether or ico end\");\n      if (contractBalance > 500 * decimals)\n      {\n          CreToBit.transfer(msg.sender, amountToBuy);\n      }\n\n      CreToBit.transfer(msg.sender, amountToBuy *icoLateRateX/icoLateRateY );\n\n  }\n\n  function makeIcoEnd() public {\n      require(msg.sender == owner);\n      isIcoEnd = true;\n  }\n\n  function icoBurn() public  {\n      require(msg.sender == owner || block.timestamp > icoEnd);\n      uint256 burnTokenAmount = balances[address(this)];\n      totalSupply_ = totalSupply_ -= burnTokenAmount;\n      emit Burn (address(this),burnTokenAmount);\n      emit Transfer(address(this),address(0),burnTokenAmount);\n      isIcoEnd = true;\n\n  }\n\n \n\n  function burnToken(uint256 _amount) public {\n      require(msg.sender == owner);\n      emit Burn (msg.sender,_amount);\n      emit Transfer(msg.sender, address(0), _amount);\n  }\n\n  function totalETH() public view returns (uint256)\n    {   \n        // return totalDepositedETH;\n        return address(this).balance;\n    }\n\n    function returnFactor() public  returns (uint256)\n    {\n        uint256 ethA = CreToBit.totalETH();\n        uint256 ctbA = CreToBit.balanceOf(address(this));\n        updatedFactor = (ethA/ctbA) + 1;\n\n        return updatedFactor;\n    }\n\n   function totalSupply() public view returns (uint256) \n   {\n        return totalSupply_;\n   }\n\n   function allowance(address _owner, address delegate) public view returns (uint256) {\n       return allowed[_owner][delegate];\n   }\n\n  \n function balanceOf(address tokenOwner) public view returns (uint256) {\n       return balances[tokenOwner];\n   }\n \n  // Before this, make sure contract have enough ETH\n  function borrowETH(address payable _to,uint256 _amount)  public payable returns(uint256){\n      \n      \n      require(depositedETH[msg.sender] >= 0);\n      nextAvailablePayBackTime[msg.sender] = nextAvailablePayBackTime[msg.sender] += timelock;\n      depositedCTB[msg.sender] += _amount;\n      totalDepositedCTB += _amount;\n      CreToBit.transfer(address(this), _amount);\n\n      uint256 actualWithdrawlETH = _amount *borrowX/borrowY;\n      depositedETH[msg.sender] -= actualWithdrawlETH;\n      totalDepositedETH -= actualWithdrawlETH;\n      _to.transfer(actualWithdrawlETH);\n          return _amount;\n      }\n\n\n     function transferEther(address payable recipient,uint256 _amount) public  {\n      recipient.transfer(_amount);\n  }\n\n  receive() payable external {\n      uint256 _amount = msg.value;\n      totalDepositedETH += _amount;\n      depositedETH[msg.sender] += _amount;\n      allowed[address(this)][msg.sender] += _amount;\n      \n  }\n\n\n \n  function getDepositCTB() public payable {\n     \n      require(depositedETH[msg.sender] >= 0 && depositedCTB[msg.sender] >= 0 && block.timestamp > nextAvailablePayBackTime[msg.sender]);\n      nextAvailablePayBackTime[msg.sender] = nextAvailablePayBackTime[msg.sender] += timelock;\n      uint256 _amount = msg.value;\n      depositedCTB[msg.sender] -= _amount;\n      totalDepositedCTB -= _amount;\n      // This can send back eth from contract to msg.sender\n    //   msg.sender.transfer(_amount);\n      transferFrom(address(this), msg.sender, _amount);\n  }\n\n\n  \n\n      \n\n\n    //   function paybackETH() payable public{\n    //   require(block.timestamp > nextAvailablePayBackTime[msg.sender]);\n    //   nextAvailablePayBackTime[msg.sender] = nextAvailablePayBackTime[msg.sender] += timelock;\n    //   require(msg.value  >= depositedCTB[msg.sender] * payBackX / payBackY); \n    //   totalDepositedETH += msg.value;\n    //   depositedETH[msg.sender] += msg.value;\n    //   totalDepositedCTB -= msg.value;\n    //   depositedCTB[msg.sender] -= msg.value;\n      \n    //   msg.sender.transfer(msg.value);\n\n    //   }\n\n    \n\n    \n\n\n//   Delete after testing\n//   function withDrawlAllETH(uint256 _amount) public {\n//       require(msg.sender == owner);\n//       msg.sender.transfer(_amount);\n//   }\n\n  \n\n  function adjustDebitFactor(uint256 _debitX,uint256 _debitY) public payable returns (uint256){\n      require(msg.sender == owner || balances[msg.sender] >= balances[address(this)]);\n      borrowX = _debitX;\n      borrowY = _debitY;\n      return borrowX/borrowY;\n  }\n\n  function adjustCrebitFactor(uint256 _payBackX,uint256 _payBackY) public payable returns (uint256){\n      require( msg.sender == owner || balances[msg.sender] >= balances[address(this)]);\n      payBackX = _payBackX;\n      payBackY = _payBackY;\n      return payBackX/payBackY;\n  }\n\n  function governanceMint() public returns (uint256){\n      require(totalDepositedETH * boostBorrowFactorIndexX/boostBorrowFactorIndexY >= totalDepositedCTB *  preboostOffsetFactorX/preboostOffsetFactorY);\n      mint(totalSupply_);\n    //   Booster get 0.5% incentive of totalSupply,to increase autonomy\n      CreToBit.transfer(msg.sender,totalSupply_ * boostIncentiveX / boostIncentiveY);\n      return totalSupply_;\n  }\n\n\n  function transfer(address receiver, uint256 numTokens) public returns (bool) {\n       require(numTokens <= balances[msg.sender]);\n       balances[msg.sender] = balances[msg.sender]-=numTokens;\n       balances[receiver] = balances[receiver]+=numTokens;\n       emit Transfer(msg.sender, receiver, numTokens);\n       return true;\n   }\n\n   function mint(uint256 amount) public  returns(bool){\n    require(totalDepositedETH * boostBorrowFactorIndexX / boostBorrowFactorIndexY >= totalDepositedCTB *  preboostOffsetFactorX/preboostOffsetFactorY);\n    require(totalSupply_ + amount >= totalSupply_); // Overflow check\n    totalSupply_ += amount;\n    balances[address(this)] += amount;\n    emit Transfer(address(0), address(this), amount);\n    return true;\n}\n\n    function approve(address delegate, uint256 numTokens) public returns (bool) {\n       allowed[msg.sender][delegate] = numTokens;\n       emit Approval(msg.sender, delegate, numTokens);\n       return true;\n   }\n\n\n   function transferFrom(address _owner, address buyer, uint256 numTokens) public returns (bool) {\n       require(numTokens <= balances[_owner]);   \n       require(numTokens <= allowed[_owner][msg.sender]);\n  \n       balances[_owner] = balances[_owner]-= numTokens;\n       allowed[_owner][msg.sender] = allowed[_owner][msg.sender] -= numTokens;\n       balances[buyer] = balances[buyer] += numTokens;\n       emit Transfer(_owner, buyer, numTokens);\n       return true;\n   }\n}\n\n\n\n\n\n\n\n\n \n\n",
  "sourcePath": "/Users/ok/Desktop/Projects/cretobit/contracts/CreToBit.sol",
  "compiler": {
    "name": "solc",
    "version": "0.7.6+commit.7338295f.Emscripten.clang"
  },
  "schemaVersion": "3.3.2",
  "updatedAt": "2021-02-20T14:31:08.064Z",
  "networkType": "ethereum",
  "devdoc": {
    "kind": "dev",
    "methods": {},
    "version": 1
  },
  "userdoc": {
    "kind": "user",
    "methods": {},
    "version": 1
  }
}