{
  "contractName": "CreToBit",
  "abi": [
    {
      "inputs": [],
      "payable": false,
      "stateMutability": "nonpayable",
      "type": "constructor"
    },
    {
      "anonymous": false,
      "inputs": [
        {
          "indexed": true,
          "internalType": "address",
          "name": "tokenOwner",
          "type": "address"
        },
        {
          "indexed": true,
          "internalType": "address",
          "name": "spender",
          "type": "address"
        },
        {
          "indexed": false,
          "internalType": "uint256",
          "name": "tokens",
          "type": "uint256"
        }
      ],
      "name": "Approval",
      "type": "event"
    },
    {
      "anonymous": false,
      "inputs": [
        {
          "indexed": true,
          "internalType": "address",
          "name": "burner",
          "type": "address"
        },
        {
          "indexed": false,
          "internalType": "uint256",
          "name": "value",
          "type": "uint256"
        }
      ],
      "name": "Burn",
      "type": "event"
    },
    {
      "anonymous": false,
      "inputs": [
        {
          "indexed": true,
          "internalType": "address",
          "name": "from",
          "type": "address"
        },
        {
          "indexed": true,
          "internalType": "address",
          "name": "to",
          "type": "address"
        },
        {
          "indexed": false,
          "internalType": "uint256",
          "name": "tokens",
          "type": "uint256"
        }
      ],
      "name": "Transfer",
      "type": "event"
    },
    {
      "constant": true,
      "inputs": [
        {
          "internalType": "address",
          "name": "",
          "type": "address"
        }
      ],
      "name": "balances",
      "outputs": [
        {
          "internalType": "uint256",
          "name": "",
          "type": "uint256"
        }
      ],
      "payable": false,
      "stateMutability": "view",
      "type": "function"
    },
    {
      "constant": true,
      "inputs": [],
      "name": "boostBorrowFactor2x",
      "outputs": [
        {
          "internalType": "uint256",
          "name": "",
          "type": "uint256"
        }
      ],
      "payable": false,
      "stateMutability": "view",
      "type": "function"
    },
    {
      "constant": true,
      "inputs": [],
      "name": "boostBorrowFactorIndex",
      "outputs": [
        {
          "internalType": "uint256",
          "name": "",
          "type": "uint256"
        }
      ],
      "payable": false,
      "stateMutability": "view",
      "type": "function"
    },
    {
      "constant": true,
      "inputs": [],
      "name": "borrowFactor",
      "outputs": [
        {
          "internalType": "uint256",
          "name": "",
          "type": "uint256"
        }
      ],
      "payable": false,
      "stateMutability": "view",
      "type": "function"
    },
    {
      "constant": true,
      "inputs": [],
      "name": "creditFactor",
      "outputs": [
        {
          "internalType": "uint256",
          "name": "",
          "type": "uint256"
        }
      ],
      "payable": false,
      "stateMutability": "view",
      "type": "function"
    },
    {
      "constant": true,
      "inputs": [],
      "name": "debitFactor",
      "outputs": [
        {
          "internalType": "uint256",
          "name": "",
          "type": "uint256"
        }
      ],
      "payable": false,
      "stateMutability": "view",
      "type": "function"
    },
    {
      "constant": true,
      "inputs": [],
      "name": "decimals",
      "outputs": [
        {
          "internalType": "uint8",
          "name": "",
          "type": "uint8"
        }
      ],
      "payable": false,
      "stateMutability": "view",
      "type": "function"
    },
    {
      "constant": true,
      "inputs": [
        {
          "internalType": "address",
          "name": "",
          "type": "address"
        }
      ],
      "name": "depositedCTB",
      "outputs": [
        {
          "internalType": "uint256",
          "name": "",
          "type": "uint256"
        }
      ],
      "payable": false,
      "stateMutability": "view",
      "type": "function"
    },
    {
      "constant": true,
      "inputs": [
        {
          "internalType": "address",
          "name": "",
          "type": "address"
        }
      ],
      "name": "depositedETH",
      "outputs": [
        {
          "internalType": "uint256",
          "name": "",
          "type": "uint256"
        }
      ],
      "payable": false,
      "stateMutability": "view",
      "type": "function"
    },
    {
      "constant": true,
      "inputs": [],
      "name": "ethtouint256",
      "outputs": [
        {
          "internalType": "uint256",
          "name": "",
          "type": "uint256"
        }
      ],
      "payable": false,
      "stateMutability": "view",
      "type": "function"
    },
    {
      "constant": true,
      "inputs": [],
      "name": "governanceFactor",
      "outputs": [
        {
          "internalType": "uint256",
          "name": "",
          "type": "uint256"
        }
      ],
      "payable": false,
      "stateMutability": "view",
      "type": "function"
    },
    {
      "constant": true,
      "inputs": [],
      "name": "icoEnd",
      "outputs": [
        {
          "internalType": "uint256",
          "name": "",
          "type": "uint256"
        }
      ],
      "payable": false,
      "stateMutability": "view",
      "type": "function"
    },
    {
      "constant": true,
      "inputs": [],
      "name": "icoLateRate",
      "outputs": [
        {
          "internalType": "uint256",
          "name": "",
          "type": "uint256"
        }
      ],
      "payable": false,
      "stateMutability": "view",
      "type": "function"
    },
    {
      "constant": true,
      "inputs": [],
      "name": "name",
      "outputs": [
        {
          "internalType": "string",
          "name": "",
          "type": "string"
        }
      ],
      "payable": false,
      "stateMutability": "view",
      "type": "function"
    },
    {
      "constant": true,
      "inputs": [
        {
          "internalType": "address",
          "name": "",
          "type": "address"
        }
      ],
      "name": "nextAvailablePayBackTime",
      "outputs": [
        {
          "internalType": "uint256",
          "name": "",
          "type": "uint256"
        }
      ],
      "payable": false,
      "stateMutability": "view",
      "type": "function"
    },
    {
      "constant": true,
      "inputs": [],
      "name": "owner",
      "outputs": [
        {
          "internalType": "address",
          "name": "",
          "type": "address"
        }
      ],
      "payable": false,
      "stateMutability": "view",
      "type": "function"
    },
    {
      "constant": true,
      "inputs": [],
      "name": "preboostOffsetFactor",
      "outputs": [
        {
          "internalType": "uint256",
          "name": "",
          "type": "uint256"
        }
      ],
      "payable": false,
      "stateMutability": "view",
      "type": "function"
    },
    {
      "constant": true,
      "inputs": [],
      "name": "symbol",
      "outputs": [
        {
          "internalType": "string",
          "name": "",
          "type": "string"
        }
      ],
      "payable": false,
      "stateMutability": "view",
      "type": "function"
    },
    {
      "constant": true,
      "inputs": [],
      "name": "timelock",
      "outputs": [
        {
          "internalType": "uint256",
          "name": "",
          "type": "uint256"
        }
      ],
      "payable": false,
      "stateMutability": "view",
      "type": "function"
    },
    {
      "constant": true,
      "inputs": [],
      "name": "totalDepositedCTB",
      "outputs": [
        {
          "internalType": "uint256",
          "name": "",
          "type": "uint256"
        }
      ],
      "payable": false,
      "stateMutability": "view",
      "type": "function"
    },
    {
      "constant": true,
      "inputs": [],
      "name": "totalDepositedETH",
      "outputs": [
        {
          "internalType": "uint256",
          "name": "",
          "type": "uint256"
        }
      ],
      "payable": false,
      "stateMutability": "view",
      "type": "function"
    },
    {
      "constant": true,
      "inputs": [],
      "name": "uint256toeth",
      "outputs": [
        {
          "internalType": "uint256",
          "name": "",
          "type": "uint256"
        }
      ],
      "payable": false,
      "stateMutability": "view",
      "type": "function"
    },
    {
      "constant": true,
      "inputs": [],
      "name": "returnDepositCTB",
      "outputs": [
        {
          "internalType": "uint256",
          "name": "",
          "type": "uint256"
        }
      ],
      "payable": false,
      "stateMutability": "view",
      "type": "function"
    },
    {
      "constant": true,
      "inputs": [],
      "name": "returnDepositETH",
      "outputs": [
        {
          "internalType": "uint256",
          "name": "",
          "type": "uint256"
        }
      ],
      "payable": false,
      "stateMutability": "view",
      "type": "function"
    },
    {
      "constant": false,
      "inputs": [],
      "name": "icoCTB",
      "outputs": [],
      "payable": true,
      "stateMutability": "payable",
      "type": "function"
    },
    {
      "constant": false,
      "inputs": [],
      "name": "icoBurn",
      "outputs": [],
      "payable": false,
      "stateMutability": "nonpayable",
      "type": "function"
    },
    {
      "constant": false,
      "inputs": [
        {
          "internalType": "uint256",
          "name": "_amount",
          "type": "uint256"
        }
      ],
      "name": "burnToken",
      "outputs": [],
      "payable": false,
      "stateMutability": "nonpayable",
      "type": "function"
    },
    {
      "constant": true,
      "inputs": [],
      "name": "totalETH",
      "outputs": [
        {
          "internalType": "uint256",
          "name": "",
          "type": "uint256"
        }
      ],
      "payable": false,
      "stateMutability": "view",
      "type": "function"
    },
    {
      "constant": true,
      "inputs": [],
      "name": "totalSupply",
      "outputs": [
        {
          "internalType": "uint256",
          "name": "",
          "type": "uint256"
        }
      ],
      "payable": false,
      "stateMutability": "view",
      "type": "function"
    },
    {
      "constant": true,
      "inputs": [
        {
          "internalType": "address",
          "name": "_owner",
          "type": "address"
        },
        {
          "internalType": "address",
          "name": "delegate",
          "type": "address"
        }
      ],
      "name": "allowance",
      "outputs": [
        {
          "internalType": "uint256",
          "name": "",
          "type": "uint256"
        }
      ],
      "payable": false,
      "stateMutability": "view",
      "type": "function"
    },
    {
      "constant": true,
      "inputs": [
        {
          "internalType": "address",
          "name": "tokenOwner",
          "type": "address"
        }
      ],
      "name": "balanceOf",
      "outputs": [
        {
          "internalType": "uint256",
          "name": "",
          "type": "uint256"
        }
      ],
      "payable": false,
      "stateMutability": "view",
      "type": "function"
    },
    {
      "constant": false,
      "inputs": [
        {
          "internalType": "uint256",
          "name": "_amount",
          "type": "uint256"
        },
        {
          "internalType": "address payable",
          "name": "ctbAddress",
          "type": "address"
        }
      ],
      "name": "borrowETH",
      "outputs": [
        {
          "internalType": "uint256",
          "name": "",
          "type": "uint256"
        }
      ],
      "payable": true,
      "stateMutability": "payable",
      "type": "function"
    },
    {
      "constant": false,
      "inputs": [
        {
          "internalType": "uint256",
          "name": "_amount",
          "type": "uint256"
        }
      ],
      "name": "paybackETH",
      "outputs": [
        {
          "internalType": "uint256",
          "name": "",
          "type": "uint256"
        }
      ],
      "payable": true,
      "stateMutability": "payable",
      "type": "function"
    },
    {
      "constant": false,
      "inputs": [
        {
          "internalType": "uint256",
          "name": "_amount",
          "type": "uint256"
        }
      ],
      "name": "adjustDebitFactor",
      "outputs": [
        {
          "internalType": "uint256",
          "name": "",
          "type": "uint256"
        }
      ],
      "payable": true,
      "stateMutability": "payable",
      "type": "function"
    },
    {
      "constant": false,
      "inputs": [
        {
          "internalType": "uint256",
          "name": "_amount",
          "type": "uint256"
        }
      ],
      "name": "adjustCrebitFactor",
      "outputs": [
        {
          "internalType": "uint256",
          "name": "",
          "type": "uint256"
        }
      ],
      "payable": true,
      "stateMutability": "payable",
      "type": "function"
    },
    {
      "constant": false,
      "inputs": [],
      "name": "boostBorrowFactor",
      "outputs": [
        {
          "internalType": "uint256",
          "name": "",
          "type": "uint256"
        }
      ],
      "payable": false,
      "stateMutability": "nonpayable",
      "type": "function"
    },
    {
      "constant": false,
      "inputs": [
        {
          "internalType": "address",
          "name": "receiver",
          "type": "address"
        },
        {
          "internalType": "uint256",
          "name": "numTokens",
          "type": "uint256"
        }
      ],
      "name": "transfer",
      "outputs": [
        {
          "internalType": "bool",
          "name": "",
          "type": "bool"
        }
      ],
      "payable": false,
      "stateMutability": "nonpayable",
      "type": "function"
    },
    {
      "constant": false,
      "inputs": [
        {
          "internalType": "uint256",
          "name": "amount",
          "type": "uint256"
        }
      ],
      "name": "mint",
      "outputs": [
        {
          "internalType": "bool",
          "name": "",
          "type": "bool"
        }
      ],
      "payable": false,
      "stateMutability": "nonpayable",
      "type": "function"
    },
    {
      "constant": false,
      "inputs": [
        {
          "internalType": "address",
          "name": "delegate",
          "type": "address"
        },
        {
          "internalType": "uint256",
          "name": "numTokens",
          "type": "uint256"
        }
      ],
      "name": "approve",
      "outputs": [
        {
          "internalType": "bool",
          "name": "",
          "type": "bool"
        }
      ],
      "payable": false,
      "stateMutability": "nonpayable",
      "type": "function"
    },
    {
      "constant": false,
      "inputs": [
        {
          "internalType": "address",
          "name": "_owner",
          "type": "address"
        },
        {
          "internalType": "address",
          "name": "buyer",
          "type": "address"
        },
        {
          "internalType": "uint256",
          "name": "numTokens",
          "type": "uint256"
        }
      ],
      "name": "transferFrom",
      "outputs": [
        {
          "internalType": "bool",
          "name": "",
          "type": "bool"
        }
      ],
      "payable": false,
      "stateMutability": "nonpayable",
      "type": "function"
    }
  ],
  "bytecode": "0x60806040526040518060400160405280600881526020017f437265546f42697400000000000000000000000000000000000000000000000081525060019080519060200190620000519291906200019d565b50671bc16d674ec80000600255670d2f13f7789f0000600655670e92596fd62900006007556706f05b59d3b20000600855670d2f13f7789f000060095562278d004201600a55670de0b6b3a7640000600d556001600e5567016345785d8a0000600f556706f05b59d3b20000601055671bc16d674ec80000601155670c7d713b49da00006012556078601355348015620000ea57600080fd5b50620000fb6200019360201b60201c565b600281905550336000806101000a81548173ffffffffffffffffffffffffffffffffffffffff021916908373ffffffffffffffffffffffffffffffffffffffff160217905550670de0b6b3a7640000600360003373ffffffffffffffffffffffffffffffffffffffff1673ffffffffffffffffffffffffffffffffffffffff168152602001908152602001600020819055506200024c565b6000600254905090565b828054600181600116156101000203166002900490600052602060002090601f016020900481019282601f10620001e057805160ff191683800117855562000211565b8280016001018555821562000211579182015b8281111562000210578251825591602001919060010190620001f3565b5b50905062000220919062000224565b5090565b6200024991905b80821115620002455760008160009055506001016200022b565b5090565b90565b612126806200025c6000396000f3fe60806040526004361061023b5760003560e01c8063780bf06e1161012e578063ad2843df116100ab578063d33219b41161006f578063d33219b414610b42578063da133e0a14610b6d578063dd62ed3e14610b98578063f5db8bc714610c1d578063f8c8b6fc14610c825761023b565b8063ad2843df14610a52578063bc6b39aa14610ab4578063c292614b14610af6578063c74d601914610b21578063d2af782614610b2b5761023b565b806394e7dbb9116100f257806394e7dbb9146108a657806395d89b41146108d15780639842143814610961578063a0712d681461098c578063a9059cbb146109df5761023b565b8063780bf06e1461077c5780637b47ec1a146107be578063899aa991146107f95780638d95c7b5146108245780638da5cb5b1461084f5761023b565b806323b872dd116101bc57806336bdee741161018057806336bdee74146106545780633ac274221461067f5780634207abcb146106aa578063673bcf37146106d557806370a08231146107175761023b565b806323b872dd146104d557806326eef3ac1461056857806327e235e314610593578063313ce567146105f857806332c87e10146106295761023b565b80631754715c116102035780631754715c146103fe57806318160ddd146104295780631eab07dd146104545780632052823b1461047f57806320b9cebc146104aa5761023b565b80630563451a1461024057806306fdde031461026b578063095ea7b3146102fb5780630bf66a2f1461036e578063115cf01e146103d3575b600080fd5b34801561024c57600080fd5b50610255610ce7565b6040518082815260200191505060405180910390f35b34801561027757600080fd5b50610280610ced565b6040518080602001828103825283818151815260200191508051906020019080838360005b838110156102c05780820151818401526020810190506102a5565b50505050905090810190601f1680156102ed5780820380516001836020036101000a031916815260200191505b509250505060405180910390f35b34801561030757600080fd5b506103546004803603604081101561031e57600080fd5b81019080803573ffffffffffffffffffffffffffffffffffffffff16906020019092919080359060200190929190505050610d8b565b604051808215151515815260200191505060405180910390f35b34801561037a57600080fd5b506103bd6004803603602081101561039157600080fd5b81019080803573ffffffffffffffffffffffffffffffffffffffff169060200190929190505050610e7d565b6040518082815260200191505060405180910390f35b3480156103df57600080fd5b506103e8610e95565b6040518082815260200191505060405180910390f35b34801561040a57600080fd5b50610413610e9b565b6040518082815260200191505060405180910390f35b34801561043557600080fd5b5061043e610ee2565b6040518082815260200191505060405180910390f35b34801561046057600080fd5b50610469610eec565b6040518082815260200191505060405180910390f35b34801561048b57600080fd5b50610494610ef2565b6040518082815260200191505060405180910390f35b3480156104b657600080fd5b506104bf610f32565b6040518082815260200191505060405180910390f35b3480156104e157600080fd5b5061054e600480360360608110156104f857600080fd5b81019080803573ffffffffffffffffffffffffffffffffffffffff169060200190929190803573ffffffffffffffffffffffffffffffffffffffff16906020019092919080359060200190929190505050610f38565b604051808215151515815260200191505060405180910390f35b34801561057457600080fd5b5061057d6112a6565b6040518082815260200191505060405180910390f35b34801561059f57600080fd5b506105e2600480360360208110156105b657600080fd5b81019080803573ffffffffffffffffffffffffffffffffffffffff1690602001909291905050506112ac565b6040518082815260200191505060405180910390f35b34801561060457600080fd5b5061060d6112c4565b604051808260ff1660ff16815260200191505060405180910390f35b34801561063557600080fd5b5061063e6112c9565b6040518082815260200191505060405180910390f35b34801561066057600080fd5b506106696112cf565b6040518082815260200191505060405180910390f35b34801561068b57600080fd5b506106946112d7565b6040518082815260200191505060405180910390f35b3480156106b657600080fd5b506106bf6112dd565b6040518082815260200191505060405180910390f35b610701600480360360208110156106eb57600080fd5b81019080803590602001909291905050506112e3565b6040518082815260200191505060405180910390f35b34801561072357600080fd5b506107666004803603602081101561073a57600080fd5b81019080803573ffffffffffffffffffffffffffffffffffffffff1690602001909291905050506113d1565b6040518082815260200191505060405180910390f35b6107a86004803603602081101561079257600080fd5b810190808035906020019092919050505061141a565b6040518082815260200191505060405180910390f35b3480156107ca57600080fd5b506107f7600480360360208110156107e157600080fd5b8101908080359060200190929190505050611508565b005b34801561080557600080fd5b5061080e611618565b6040518082815260200191505060405180910390f35b34801561083057600080fd5b5061083961161e565b6040518082815260200191505060405180910390f35b34801561085b57600080fd5b50610864611624565b604051808273ffffffffffffffffffffffffffffffffffffffff1673ffffffffffffffffffffffffffffffffffffffff16815260200191505060405180910390f35b3480156108b257600080fd5b506108bb611649565b6040518082815260200191505060405180910390f35b3480156108dd57600080fd5b506108e661164f565b6040518080602001828103825283818151815260200191508051906020019080838360005b8381101561092657808201518184015260208101905061090b565b50505050905090810190601f1680156109535780820380516001836020036101000a031916815260200191505b509250505060405180910390f35b34801561096d57600080fd5b50610976611688565b6040518082815260200191505060405180910390f35b34801561099857600080fd5b506109c5600480360360208110156109af57600080fd5b81019080803590602001909291905050506116cf565b604051808215151515815260200191505060405180910390f35b3480156109eb57600080fd5b50610a3860048036036040811015610a0257600080fd5b81019080803573ffffffffffffffffffffffffffffffffffffffff169060200190929190803590602001909291905050506117cd565b604051808215151515815260200191505060405180910390f35b610a9e60048036036040811015610a6857600080fd5b8101908080359060200190929190803573ffffffffffffffffffffffffffffffffffffffff1690602001909291905050506119a8565b6040518082815260200191505060405180910390f35b610ae060048036036020811015610aca57600080fd5b8101908080359060200190929190505050611bf2565b6040518082815260200191505060405180910390f35b348015610b0257600080fd5b50610b0b611df2565b6040518082815260200191505060405180910390f35b610b29611df8565b005b348015610b3757600080fd5b50610b40611e98565b005b348015610b4e57600080fd5b50610b5761200d565b6040518082815260200191505060405180910390f35b348015610b7957600080fd5b50610b82612013565b6040518082815260200191505060405180910390f35b348015610ba457600080fd5b50610c0760048036036040811015610bbb57600080fd5b81019080803573ffffffffffffffffffffffffffffffffffffffff169060200190929190803573ffffffffffffffffffffffffffffffffffffffff169060200190929190505050612019565b6040518082815260200191505060405180910390f35b348015610c2957600080fd5b50610c6c60048036036020811015610c4057600080fd5b81019080803573ffffffffffffffffffffffffffffffffffffffff1690602001909291905050506120a0565b6040518082815260200191505060405180910390f35b348015610c8e57600080fd5b50610cd160048036036020811015610ca557600080fd5b81019080803573ffffffffffffffffffffffffffffffffffffffff1690602001909291905050506120b8565b6040518082815260200191505060405180910390f35b600a5481565b60018054600181600116156101000203166002900480601f016020809104026020016040519081016040528092919081815260200182805460018160011615610100020316600290048015610d835780601f10610d5857610100808354040283529160200191610d83565b820191906000526020600020905b815481529060010190602001808311610d6657829003601f168201915b505050505081565b600081601560003373ffffffffffffffffffffffffffffffffffffffff1673ffffffffffffffffffffffffffffffffffffffff16815260200190815260200160002060008573ffffffffffffffffffffffffffffffffffffffff1673ffffffffffffffffffffffffffffffffffffffff168152602001908152602001600020819055508273ffffffffffffffffffffffffffffffffffffffff163373ffffffffffffffffffffffffffffffffffffffff167f8c5be1e5ebec7d5bd14f71427d1e84f3dd0314c0f7b2291e5b200ac8c7c3b925846040518082815260200191505060405180910390a36001905092915050565b60146020528060005260406000206000915090505481565b60085481565b6000600460003373ffffffffffffffffffffffffffffffffffffffff1673ffffffffffffffffffffffffffffffffffffffff16815260200190815260200160002054905090565b6000600254905090565b60065481565b6000601254600f54600b540202601054600c54021015610f1157600080fd5b601154600f5402600f81905550610f296002546116cf565b50600254905090565b60125481565b6000600360008573ffffffffffffffffffffffffffffffffffffffff1673ffffffffffffffffffffffffffffffffffffffff16815260200190815260200160002054821115610f8657600080fd5b601560008573ffffffffffffffffffffffffffffffffffffffff1673ffffffffffffffffffffffffffffffffffffffff16815260200190815260200160002060003373ffffffffffffffffffffffffffffffffffffffff1673ffffffffffffffffffffffffffffffffffffffff1681526020019081526020016000205482111561100f57600080fd5b81600360008673ffffffffffffffffffffffffffffffffffffffff1673ffffffffffffffffffffffffffffffffffffffff168152602001908152602001600020600082825403925050819055600360008673ffffffffffffffffffffffffffffffffffffffff1673ffffffffffffffffffffffffffffffffffffffff1681526020019081526020016000208190555081601560008673ffffffffffffffffffffffffffffffffffffffff1673ffffffffffffffffffffffffffffffffffffffff16815260200190815260200160002060003373ffffffffffffffffffffffffffffffffffffffff1673ffffffffffffffffffffffffffffffffffffffff168152602001908152602001600020600082825403925050819055601560008673ffffffffffffffffffffffffffffffffffffffff1673ffffffffffffffffffffffffffffffffffffffff16815260200190815260200160002060003373ffffffffffffffffffffffffffffffffffffffff1673ffffffffffffffffffffffffffffffffffffffff1681526020019081526020016000208190555081600360008573ffffffffffffffffffffffffffffffffffffffff1673ffffffffffffffffffffffffffffffffffffffff168152602001908152602001600020600082825401925050819055600360008573ffffffffffffffffffffffffffffffffffffffff1673ffffffffffffffffffffffffffffffffffffffff168152602001908152602001600020819055508273ffffffffffffffffffffffffffffffffffffffff168473ffffffffffffffffffffffffffffffffffffffff167fddf252ad1be2c89b69c2b068fc378daa952ba7f163c4a11628f55a4df523b3ef846040518082815260200191505060405180910390a3600190509392505050565b600b5481565b60036020528060005260406000206000915090505481565b601281565b60105481565b600047905090565b600d5481565b60095481565b60008060009054906101000a900473ffffffffffffffffffffffffffffffffffffffff1673ffffffffffffffffffffffffffffffffffffffff163373ffffffffffffffffffffffffffffffffffffffff1614806113be5750600360003073ffffffffffffffffffffffffffffffffffffffff1673ffffffffffffffffffffffffffffffffffffffff16815260200190815260200160002054600360003373ffffffffffffffffffffffffffffffffffffffff1673ffffffffffffffffffffffffffffffffffffffff1681526020019081526020016000205410155b6113c757600080fd5b6007549050919050565b6000600360008373ffffffffffffffffffffffffffffffffffffffff1673ffffffffffffffffffffffffffffffffffffffff168152602001908152602001600020549050919050565b60008060009054906101000a900473ffffffffffffffffffffffffffffffffffffffff1673ffffffffffffffffffffffffffffffffffffffff163373ffffffffffffffffffffffffffffffffffffffff1614806114f55750600360003073ffffffffffffffffffffffffffffffffffffffff1673ffffffffffffffffffffffffffffffffffffffff16815260200190815260200160002054600360003373ffffffffffffffffffffffffffffffffffffffff1673ffffffffffffffffffffffffffffffffffffffff1681526020019081526020016000205410155b6114fe57600080fd5b6006549050919050565b6000809054906101000a900473ffffffffffffffffffffffffffffffffffffffff1673ffffffffffffffffffffffffffffffffffffffff163373ffffffffffffffffffffffffffffffffffffffff161461156157600080fd5b3373ffffffffffffffffffffffffffffffffffffffff167fcc16f5dbb4873280815c1ee09dbd06736cffcc184412cf7a71a0fdb75d397ca5826040518082815260200191505060405180910390a2600073ffffffffffffffffffffffffffffffffffffffff163373ffffffffffffffffffffffffffffffffffffffff167fddf252ad1be2c89b69c2b068fc378daa952ba7f163c4a11628f55a4df523b3ef836040518082815260200191505060405180910390a350565b600c5481565b60115481565b6000809054906101000a900473ffffffffffffffffffffffffffffffffffffffff1681565b600e5481565b6040518060400160405280600381526020017f435442000000000000000000000000000000000000000000000000000000000081525081565b6000600560003373ffffffffffffffffffffffffffffffffffffffff1673ffffffffffffffffffffffffffffffffffffffff16815260200190815260200160002054905090565b6000601254600f54600b540202601054600c540210156116ee57600080fd5b6002548260025401101561170157600080fd5b8160026000828254019250508190555081600360003073ffffffffffffffffffffffffffffffffffffffff1673ffffffffffffffffffffffffffffffffffffffff168152602001908152602001600020600082825401925050819055503073ffffffffffffffffffffffffffffffffffffffff16600073ffffffffffffffffffffffffffffffffffffffff167fddf252ad1be2c89b69c2b068fc378daa952ba7f163c4a11628f55a4df523b3ef846040518082815260200191505060405180910390a360019050919050565b6000600360003373ffffffffffffffffffffffffffffffffffffffff1673ffffffffffffffffffffffffffffffffffffffff1681526020019081526020016000205482111561181b57600080fd5b81600360003373ffffffffffffffffffffffffffffffffffffffff1673ffffffffffffffffffffffffffffffffffffffff168152602001908152602001600020600082825403925050819055600360003373ffffffffffffffffffffffffffffffffffffffff1673ffffffffffffffffffffffffffffffffffffffff1681526020019081526020016000208190555081600360008573ffffffffffffffffffffffffffffffffffffffff1673ffffffffffffffffffffffffffffffffffffffff168152602001908152602001600020600082825401925050819055600360008573ffffffffffffffffffffffffffffffffffffffff1673ffffffffffffffffffffffffffffffffffffffff168152602001908152602001600020819055508273ffffffffffffffffffffffffffffffffffffffff163373ffffffffffffffffffffffffffffffffffffffff167fddf252ad1be2c89b69c2b068fc378daa952ba7f163c4a11628f55a4df523b3ef846040518082815260200191505060405180910390a36001905092915050565b600080600460003373ffffffffffffffffffffffffffffffffffffffff1673ffffffffffffffffffffffffffffffffffffffff1681526020019081526020016000205411158015611a3957506000600560003373ffffffffffffffffffffffffffffffffffffffff1673ffffffffffffffffffffffffffffffffffffffff1681526020019081526020016000205410155b611a4257600080fd5b601354601460003373ffffffffffffffffffffffffffffffffffffffff1673ffffffffffffffffffffffffffffffffffffffff168152602001908152602001600020600082825401925050819055601460003373ffffffffffffffffffffffffffffffffffffffff1673ffffffffffffffffffffffffffffffffffffffff1681526020019081526020016000208190555082600460003373ffffffffffffffffffffffffffffffffffffffff1673ffffffffffffffffffffffffffffffffffffffff1681526020019081526020016000206000828254019250508190555082600b60008282540192505081905550611b3a30846117cd565b5060006006548402905080600560003373ffffffffffffffffffffffffffffffffffffffff1673ffffffffffffffffffffffffffffffffffffffff1681526020019081526020016000206000828254039250508190555080600c600082825403925050819055508273ffffffffffffffffffffffffffffffffffffffff166108fc829081150290604051600060405180830381858888f19350505050158015611be7573d6000803e3d6000fd5b508091505092915050565b600080829050601460003373ffffffffffffffffffffffffffffffffffffffff1673ffffffffffffffffffffffffffffffffffffffff1681526020019081526020016000205442118015611c895750600754600460003373ffffffffffffffffffffffffffffffffffffffff1673ffffffffffffffffffffffffffffffffffffffff16815260200190815260200160002054028110155b8015611cd457506000600460003373ffffffffffffffffffffffffffffffffffffffff1673ffffffffffffffffffffffffffffffffffffffff16815260200190815260200160002054115b611cdd57600080fd5b80600560003373ffffffffffffffffffffffffffffffffffffffff1673ffffffffffffffffffffffffffffffffffffffff1681526020019081526020016000206000828254019250508190555080600c600082825401925050819055503373ffffffffffffffffffffffffffffffffffffffff166108fc829081150290604051600060405180830381858888f19350505050158015611d80573d6000803e3d6000fd5b5080600460003373ffffffffffffffffffffffffffffffffffffffff1673ffffffffffffffffffffffffffffffffffffffff1681526020019081526020016000206000828254039250508190555080600b60008282540392505081905550611de833826117cd565b5080915050919050565b600f5481565b60003490506000611e08306113d1565b9050600082118015611e1a5750808211155b611e6f576040517f08c379a00000000000000000000000000000000000000000000000000000000081526004018080602001828103825260218152602001806120d16021913960400191505060405180910390fd5b6101f4811115611e8557611e8333836117cd565b505b611e933360095484026117cd565b505050565b6000809054906101000a900473ffffffffffffffffffffffffffffffffffffffff1673ffffffffffffffffffffffffffffffffffffffff163373ffffffffffffffffffffffffffffffffffffffff161480611ef45750600a5442115b611efd57600080fd5b6000600360003073ffffffffffffffffffffffffffffffffffffffff1673ffffffffffffffffffffffffffffffffffffffff1681526020019081526020016000205490508060026000828254039250508190556002819055503073ffffffffffffffffffffffffffffffffffffffff167fcc16f5dbb4873280815c1ee09dbd06736cffcc184412cf7a71a0fdb75d397ca5826040518082815260200191505060405180910390a2600073ffffffffffffffffffffffffffffffffffffffff163073ffffffffffffffffffffffffffffffffffffffff167fddf252ad1be2c89b69c2b068fc378daa952ba7f163c4a11628f55a4df523b3ef836040518082815260200191505060405180910390a350565b60135481565b60075481565b6000601560008473ffffffffffffffffffffffffffffffffffffffff1673ffffffffffffffffffffffffffffffffffffffff16815260200190815260200160002060008373ffffffffffffffffffffffffffffffffffffffff1673ffffffffffffffffffffffffffffffffffffffff16815260200190815260200160002054905092915050565b60056020528060005260406000206000915090505481565b6004602052806000526040600020600091509050548156fe596f75206e65656420746f2073656e64206574686572206f722069636f20656e64a265627a7a7231582078b65881da0599917d1455db97adf836efdf1f7f9341d6c7f65e3062c3c2a48864736f6c63430005100032",
  "source": "pragma solidity >=0.4.22 <0.8.0;\n// SPDX-License-Identifier: MIT\n\ncontract CreToBit \n{\n    \n\n    // supply according to ico eth ,all remaining would be burn\n\n    // \n\n event Transfer(address indexed from, address indexed to, uint tokens);\n event Burn(address indexed burner, uint256 value);\n event Approval(address indexed tokenOwner, address indexed spender, uint tokens);\n\n  address public owner;\n  string public name = \"CreToBit\";\n  string public constant symbol = \"CTB\";\n  uint8 public constant decimals = 18;\n\n  \n  uint256 totalSupply_ = 2000000000000000000;\n\n  mapping (address=> uint256) public balances;\n  mapping(address=> uint256) public depositedCTB;\n  mapping(address=> uint256) public depositedETH;\n  uint256 public debitFactor = 950000000000000000;\n  uint256 public creditFactor = 1050000000000000000;\n  uint256 public governanceFactor = 500000000000000000;\n  uint256 public icoLateRate = 950000000000000000;\n  uint256 public icoEnd = block.timestamp + 30 days;\n  uint256 public totalDepositedCTB;\n  uint256 public totalDepositedETH;\n\n  uint256 public ethtouint256 = 1000000000000000000;\n  uint256 public uint256toeth = 1;\n  \n  \n//   uint256 public testNumber = SafeMath.sub(1, 2);\n  uint256 public borrowFactor = 100000000000000000;\n  uint256 public boostBorrowFactorIndex = 500000000000000000;\n  uint256 public boostBorrowFactor2x = 2000000000000000000;\n  uint256 public preboostOffsetFactor = 900000000000000000;\n  uint256 public timelock = 2 minutes;\n  mapping (address => uint256) public nextAvailablePayBackTime;\n\n  mapping(address => mapping (address => uint256)) allowed;\n\n  \n\n\n\n\n\n \n \n  \n\n  \n\n  \n\n  \n  \n  \n constructor() public\n  {\n      totalSupply_ = totalSupply();\n      owner = msg.sender;\n      balances[msg.sender] = 1000000000000000000;\n      \n      \n  }\n\n  function returnDepositCTB() public view returns (uint256){\n      return depositedCTB[msg.sender];\n  }\n\n  function returnDepositETH() public view returns (uint256){\n      return depositedETH[msg.sender];\n  }\n\n  function icoCTB() payable public {\n      uint256 amountToBuy = msg.value;\n      uint256 contractBalance = CreToBit.balanceOf(address(this));\n      require(amountToBuy > 0 && amountToBuy <= contractBalance, \"You need to send ether or ico end\");\n      if (contractBalance > 500)\n      {\n          CreToBit.transfer(msg.sender, amountToBuy);\n      }\n\n      CreToBit.transfer(msg.sender, amountToBuy * icoLateRate);\n\n  }\n\n  function icoBurn() public  {\n      require(msg.sender == owner || block.timestamp > icoEnd);\n      uint256 burnTokenAmount = balances[address(this)];\n      totalSupply_ = totalSupply_ -= burnTokenAmount;\n      emit Burn (address(this),burnTokenAmount);\n      emit Transfer(address(this),address(0),burnTokenAmount);\n\n  }\n\n  function burnToken(uint256 _amount) public {\n      require(msg.sender == owner);\n      emit Burn (msg.sender,_amount);\n      emit Transfer(msg.sender, address(0), _amount);\n  }\n\n  function totalETH() public view returns (uint256)\n    {   \n        // return totalDepositedETH;\n        return address(this).balance;\n    }\n\n   function totalSupply() public view returns (uint256) \n   {\n        return totalSupply_;\n   }\n\n   function allowance(address _owner, address delegate) public view returns (uint) {\n       return allowed[_owner][delegate];\n   }\n\n  \n function balanceOf(address tokenOwner) public view returns (uint) {\n       return balances[tokenOwner];\n   }\n\n  function borrowETH(uint256 _amount,address payable ctbAddress) payable external returns (uint256){\n      require(depositedCTB[msg.sender] <= 0 && depositedETH[msg.sender] >= 0);\n      nextAvailablePayBackTime[msg.sender] = nextAvailablePayBackTime[msg.sender] += timelock;\n      depositedCTB[msg.sender] += _amount;\n      totalDepositedCTB += _amount;\n      CreToBit.transfer(address(this), _amount);\n      uint256 actualWithdrawlETH = _amount * debitFactor;\n    // CTB  Address transfer ETH to msg.sender \n      depositedETH[msg.sender] -= actualWithdrawlETH;\n      totalDepositedETH -= actualWithdrawlETH;\n      ctbAddress.transfer(actualWithdrawlETH);\n      return actualWithdrawlETH;\n\n  }\n\n  function paybackETH(uint256 _amount) payable public returns (uint256){\n      uint256 depositETH = _amount;\n      require(block.timestamp > nextAvailablePayBackTime[msg.sender] && depositETH >= depositedCTB[msg.sender] * creditFactor && depositedCTB[msg.sender] > 0);\n    //   msg.sender transfer eth to contract\n      depositedETH[msg.sender] += depositETH;\n      totalDepositedETH += depositETH;\n      msg.sender.transfer(depositETH);\n      depositedCTB[msg.sender] -= depositETH;\n      totalDepositedCTB -= depositETH;   \n      CreToBit.transfer(msg.sender, depositETH);\n      return depositETH;\n\n  }\n\n  function adjustDebitFactor(uint256 _amount) public payable returns (uint256){\n      require(msg.sender == owner || balances[msg.sender] >= balances[address(this)]);\n      debitFactor == _amount;\n      return debitFactor;\n  }\n\n  function adjustCrebitFactor(uint256 _amount) public payable returns (uint256){\n      require( msg.sender == owner || balances[msg.sender] >= balances[address(this)]);\n      creditFactor == _amount;\n      return creditFactor;\n  }\n\n  function boostBorrowFactor() public returns (uint256){\n      require(totalDepositedETH * boostBorrowFactorIndex >= totalDepositedCTB * borrowFactor * preboostOffsetFactor);\n      borrowFactor = borrowFactor * boostBorrowFactor2x;\n      mint(totalSupply_);\n      return totalSupply_;\n  }\n\n\n  function transfer(address receiver, uint numTokens) public returns (bool) {\n       require(numTokens <= balances[msg.sender]);\n       balances[msg.sender] = balances[msg.sender]-=numTokens;\n       balances[receiver] = balances[receiver]+=numTokens;\n       emit Transfer(msg.sender, receiver, numTokens);\n       return true;\n   }\n\n   function mint(uint256 amount) public  returns(bool){\n    require( totalDepositedETH * boostBorrowFactorIndex >= totalDepositedCTB * borrowFactor * preboostOffsetFactor );\n    require(totalSupply_ + amount >= totalSupply_); // Overflow check\n    totalSupply_ += amount;\n    balances[address(this)] += amount;\n    emit Transfer(address(0), address(this), amount);\n    return true;\n}\n\n    function approve(address delegate, uint numTokens) public returns (bool) {\n       allowed[msg.sender][delegate] = numTokens;\n       emit Approval(msg.sender, delegate, numTokens);\n       return true;\n   }\n\n\n   function transferFrom(address _owner, address buyer, uint numTokens) public returns (bool) {\n       require(numTokens <= balances[_owner]);   \n       require(numTokens <= allowed[_owner][msg.sender]);\n  \n       balances[_owner] = balances[_owner]-= numTokens;\n       allowed[_owner][msg.sender] = allowed[_owner][msg.sender] -= numTokens;\n       balances[buyer] = balances[buyer] += numTokens;\n       emit Transfer(_owner, buyer, numTokens);\n       return true;\n   }\n}\n\n\n\n\n\n\n\n\n \n\n",
  "sourcePath": "/Users/ok/Desktop/Projects/cretobit/contracts/CreToBit.sol",
  "compiler": {
    "name": "solc",
    "version": "0.5.16+commit.9c3226ce.Emscripten.clang"
  },
  "schemaVersion": "3.3.2",
  "updatedAt": "2021-02-19T05:31:54.540Z",
  "networkType": "ethereum",
  "devdoc": {
    "methods": {}
  },
  "userdoc": {
    "methods": {}
  }
}