{
  "contractName": "CreToBit",
  "abi": [
    {
      "inputs": [],
      "payable": false,
      "stateMutability": "nonpayable",
      "type": "constructor"
    },
    {
      "anonymous": false,
      "inputs": [
        {
          "indexed": true,
          "internalType": "address",
          "name": "tokenOwner",
          "type": "address"
        },
        {
          "indexed": true,
          "internalType": "address",
          "name": "spender",
          "type": "address"
        },
        {
          "indexed": false,
          "internalType": "uint256",
          "name": "tokens",
          "type": "uint256"
        }
      ],
      "name": "Approval",
      "type": "event"
    },
    {
      "anonymous": false,
      "inputs": [
        {
          "indexed": true,
          "internalType": "address",
          "name": "burner",
          "type": "address"
        },
        {
          "indexed": false,
          "internalType": "uint256",
          "name": "value",
          "type": "uint256"
        }
      ],
      "name": "Burn",
      "type": "event"
    },
    {
      "anonymous": false,
      "inputs": [
        {
          "indexed": true,
          "internalType": "address",
          "name": "from",
          "type": "address"
        },
        {
          "indexed": true,
          "internalType": "address",
          "name": "to",
          "type": "address"
        },
        {
          "indexed": false,
          "internalType": "uint256",
          "name": "tokens",
          "type": "uint256"
        }
      ],
      "name": "Transfer",
      "type": "event"
    },
    {
      "constant": true,
      "inputs": [
        {
          "internalType": "address",
          "name": "",
          "type": "address"
        }
      ],
      "name": "balances",
      "outputs": [
        {
          "internalType": "uint256",
          "name": "",
          "type": "uint256"
        }
      ],
      "payable": false,
      "stateMutability": "view",
      "type": "function"
    },
    {
      "constant": true,
      "inputs": [],
      "name": "boostBorrowFactor2x",
      "outputs": [
        {
          "internalType": "uint256",
          "name": "",
          "type": "uint256"
        }
      ],
      "payable": false,
      "stateMutability": "view",
      "type": "function"
    },
    {
      "constant": true,
      "inputs": [],
      "name": "boostBorrowFactorIndex",
      "outputs": [
        {
          "internalType": "uint256",
          "name": "",
          "type": "uint256"
        }
      ],
      "payable": false,
      "stateMutability": "view",
      "type": "function"
    },
    {
      "constant": true,
      "inputs": [],
      "name": "boostIncentive",
      "outputs": [
        {
          "internalType": "uint256",
          "name": "",
          "type": "uint256"
        }
      ],
      "payable": false,
      "stateMutability": "view",
      "type": "function"
    },
    {
      "constant": true,
      "inputs": [],
      "name": "borrowFactor",
      "outputs": [
        {
          "internalType": "uint256",
          "name": "",
          "type": "uint256"
        }
      ],
      "payable": false,
      "stateMutability": "view",
      "type": "function"
    },
    {
      "constant": true,
      "inputs": [],
      "name": "creditFactor",
      "outputs": [
        {
          "internalType": "uint256",
          "name": "",
          "type": "uint256"
        }
      ],
      "payable": false,
      "stateMutability": "view",
      "type": "function"
    },
    {
      "constant": true,
      "inputs": [],
      "name": "debitFactor",
      "outputs": [
        {
          "internalType": "uint256",
          "name": "",
          "type": "uint256"
        }
      ],
      "payable": false,
      "stateMutability": "view",
      "type": "function"
    },
    {
      "constant": true,
      "inputs": [],
      "name": "decimals",
      "outputs": [
        {
          "internalType": "uint8",
          "name": "",
          "type": "uint8"
        }
      ],
      "payable": false,
      "stateMutability": "view",
      "type": "function"
    },
    {
      "constant": true,
      "inputs": [
        {
          "internalType": "address",
          "name": "",
          "type": "address"
        }
      ],
      "name": "depositedCTB",
      "outputs": [
        {
          "internalType": "uint256",
          "name": "",
          "type": "uint256"
        }
      ],
      "payable": false,
      "stateMutability": "view",
      "type": "function"
    },
    {
      "constant": true,
      "inputs": [
        {
          "internalType": "address",
          "name": "",
          "type": "address"
        }
      ],
      "name": "depositedETH",
      "outputs": [
        {
          "internalType": "uint256",
          "name": "",
          "type": "uint256"
        }
      ],
      "payable": false,
      "stateMutability": "view",
      "type": "function"
    },
    {
      "constant": true,
      "inputs": [],
      "name": "ethtouint256",
      "outputs": [
        {
          "internalType": "uint256",
          "name": "",
          "type": "uint256"
        }
      ],
      "payable": false,
      "stateMutability": "view",
      "type": "function"
    },
    {
      "constant": true,
      "inputs": [],
      "name": "governanceFactor",
      "outputs": [
        {
          "internalType": "uint256",
          "name": "",
          "type": "uint256"
        }
      ],
      "payable": false,
      "stateMutability": "view",
      "type": "function"
    },
    {
      "constant": true,
      "inputs": [],
      "name": "icoEnd",
      "outputs": [
        {
          "internalType": "uint256",
          "name": "",
          "type": "uint256"
        }
      ],
      "payable": false,
      "stateMutability": "view",
      "type": "function"
    },
    {
      "constant": true,
      "inputs": [],
      "name": "icoLateRate",
      "outputs": [
        {
          "internalType": "uint256",
          "name": "",
          "type": "uint256"
        }
      ],
      "payable": false,
      "stateMutability": "view",
      "type": "function"
    },
    {
      "constant": true,
      "inputs": [],
      "name": "isIcoEnd",
      "outputs": [
        {
          "internalType": "bool",
          "name": "",
          "type": "bool"
        }
      ],
      "payable": false,
      "stateMutability": "view",
      "type": "function"
    },
    {
      "constant": true,
      "inputs": [],
      "name": "name",
      "outputs": [
        {
          "internalType": "string",
          "name": "",
          "type": "string"
        }
      ],
      "payable": false,
      "stateMutability": "view",
      "type": "function"
    },
    {
      "constant": true,
      "inputs": [
        {
          "internalType": "address",
          "name": "",
          "type": "address"
        }
      ],
      "name": "nextAvailablePayBackTime",
      "outputs": [
        {
          "internalType": "uint256",
          "name": "",
          "type": "uint256"
        }
      ],
      "payable": false,
      "stateMutability": "view",
      "type": "function"
    },
    {
      "constant": true,
      "inputs": [],
      "name": "owner",
      "outputs": [
        {
          "internalType": "address",
          "name": "",
          "type": "address"
        }
      ],
      "payable": false,
      "stateMutability": "view",
      "type": "function"
    },
    {
      "constant": true,
      "inputs": [],
      "name": "preboostOffsetFactor",
      "outputs": [
        {
          "internalType": "uint256",
          "name": "",
          "type": "uint256"
        }
      ],
      "payable": false,
      "stateMutability": "view",
      "type": "function"
    },
    {
      "constant": true,
      "inputs": [],
      "name": "symbol",
      "outputs": [
        {
          "internalType": "string",
          "name": "",
          "type": "string"
        }
      ],
      "payable": false,
      "stateMutability": "view",
      "type": "function"
    },
    {
      "constant": true,
      "inputs": [],
      "name": "timelock",
      "outputs": [
        {
          "internalType": "uint256",
          "name": "",
          "type": "uint256"
        }
      ],
      "payable": false,
      "stateMutability": "view",
      "type": "function"
    },
    {
      "constant": true,
      "inputs": [],
      "name": "totalDepositedCTB",
      "outputs": [
        {
          "internalType": "uint256",
          "name": "",
          "type": "uint256"
        }
      ],
      "payable": false,
      "stateMutability": "view",
      "type": "function"
    },
    {
      "constant": true,
      "inputs": [],
      "name": "totalDepositedETH",
      "outputs": [
        {
          "internalType": "uint256",
          "name": "",
          "type": "uint256"
        }
      ],
      "payable": false,
      "stateMutability": "view",
      "type": "function"
    },
    {
      "constant": true,
      "inputs": [],
      "name": "uint256toeth",
      "outputs": [
        {
          "internalType": "uint256",
          "name": "",
          "type": "uint256"
        }
      ],
      "payable": false,
      "stateMutability": "view",
      "type": "function"
    },
    {
      "constant": true,
      "inputs": [],
      "name": "returnDepositCTB",
      "outputs": [
        {
          "internalType": "uint256",
          "name": "",
          "type": "uint256"
        }
      ],
      "payable": false,
      "stateMutability": "view",
      "type": "function"
    },
    {
      "constant": false,
      "inputs": [],
      "name": "transferOwnership",
      "outputs": [
        {
          "internalType": "address",
          "name": "",
          "type": "address"
        }
      ],
      "payable": false,
      "stateMutability": "nonpayable",
      "type": "function"
    },
    {
      "constant": true,
      "inputs": [],
      "name": "returnDepositETH",
      "outputs": [
        {
          "internalType": "uint256",
          "name": "",
          "type": "uint256"
        }
      ],
      "payable": false,
      "stateMutability": "view",
      "type": "function"
    },
    {
      "constant": false,
      "inputs": [],
      "name": "icoCTB",
      "outputs": [],
      "payable": true,
      "stateMutability": "payable",
      "type": "function"
    },
    {
      "constant": false,
      "inputs": [],
      "name": "makeIcoEnd",
      "outputs": [],
      "payable": false,
      "stateMutability": "nonpayable",
      "type": "function"
    },
    {
      "constant": false,
      "inputs": [],
      "name": "icoBurn",
      "outputs": [],
      "payable": false,
      "stateMutability": "nonpayable",
      "type": "function"
    },
    {
      "constant": false,
      "inputs": [
        {
          "internalType": "uint256",
          "name": "_amount",
          "type": "uint256"
        }
      ],
      "name": "burnToken",
      "outputs": [],
      "payable": false,
      "stateMutability": "nonpayable",
      "type": "function"
    },
    {
      "constant": true,
      "inputs": [],
      "name": "totalETH",
      "outputs": [
        {
          "internalType": "uint256",
          "name": "",
          "type": "uint256"
        }
      ],
      "payable": false,
      "stateMutability": "view",
      "type": "function"
    },
    {
      "constant": true,
      "inputs": [],
      "name": "totalSupply",
      "outputs": [
        {
          "internalType": "uint256",
          "name": "",
          "type": "uint256"
        }
      ],
      "payable": false,
      "stateMutability": "view",
      "type": "function"
    },
    {
      "constant": true,
      "inputs": [
        {
          "internalType": "address",
          "name": "_owner",
          "type": "address"
        },
        {
          "internalType": "address",
          "name": "delegate",
          "type": "address"
        }
      ],
      "name": "allowance",
      "outputs": [
        {
          "internalType": "uint256",
          "name": "",
          "type": "uint256"
        }
      ],
      "payable": false,
      "stateMutability": "view",
      "type": "function"
    },
    {
      "constant": true,
      "inputs": [
        {
          "internalType": "address",
          "name": "tokenOwner",
          "type": "address"
        }
      ],
      "name": "balanceOf",
      "outputs": [
        {
          "internalType": "uint256",
          "name": "",
          "type": "uint256"
        }
      ],
      "payable": false,
      "stateMutability": "view",
      "type": "function"
    },
    {
      "constant": false,
      "inputs": [
        {
          "internalType": "uint256",
          "name": "_amount",
          "type": "uint256"
        },
        {
          "internalType": "address payable",
          "name": "ctbAddress",
          "type": "address"
        }
      ],
      "name": "borrowETH",
      "outputs": [
        {
          "internalType": "uint256",
          "name": "",
          "type": "uint256"
        }
      ],
      "payable": true,
      "stateMutability": "payable",
      "type": "function"
    },
    {
      "constant": false,
      "inputs": [
        {
          "internalType": "uint256",
          "name": "_amount",
          "type": "uint256"
        }
      ],
      "name": "paybackETH",
      "outputs": [
        {
          "internalType": "uint256",
          "name": "",
          "type": "uint256"
        }
      ],
      "payable": true,
      "stateMutability": "payable",
      "type": "function"
    },
    {
      "constant": false,
      "inputs": [
        {
          "internalType": "uint256",
          "name": "_amount",
          "type": "uint256"
        }
      ],
      "name": "adjustDebitFactor",
      "outputs": [
        {
          "internalType": "uint256",
          "name": "",
          "type": "uint256"
        }
      ],
      "payable": true,
      "stateMutability": "payable",
      "type": "function"
    },
    {
      "constant": false,
      "inputs": [
        {
          "internalType": "uint256",
          "name": "_amount",
          "type": "uint256"
        }
      ],
      "name": "adjustCrebitFactor",
      "outputs": [
        {
          "internalType": "uint256",
          "name": "",
          "type": "uint256"
        }
      ],
      "payable": true,
      "stateMutability": "payable",
      "type": "function"
    },
    {
      "constant": false,
      "inputs": [],
      "name": "boostBorrowFactor",
      "outputs": [
        {
          "internalType": "uint256",
          "name": "",
          "type": "uint256"
        }
      ],
      "payable": false,
      "stateMutability": "nonpayable",
      "type": "function"
    },
    {
      "constant": false,
      "inputs": [
        {
          "internalType": "address",
          "name": "receiver",
          "type": "address"
        },
        {
          "internalType": "uint256",
          "name": "numTokens",
          "type": "uint256"
        }
      ],
      "name": "transfer",
      "outputs": [
        {
          "internalType": "bool",
          "name": "",
          "type": "bool"
        }
      ],
      "payable": false,
      "stateMutability": "nonpayable",
      "type": "function"
    },
    {
      "constant": false,
      "inputs": [
        {
          "internalType": "uint256",
          "name": "amount",
          "type": "uint256"
        }
      ],
      "name": "mint",
      "outputs": [
        {
          "internalType": "bool",
          "name": "",
          "type": "bool"
        }
      ],
      "payable": false,
      "stateMutability": "nonpayable",
      "type": "function"
    },
    {
      "constant": false,
      "inputs": [
        {
          "internalType": "address",
          "name": "delegate",
          "type": "address"
        },
        {
          "internalType": "uint256",
          "name": "numTokens",
          "type": "uint256"
        }
      ],
      "name": "approve",
      "outputs": [
        {
          "internalType": "bool",
          "name": "",
          "type": "bool"
        }
      ],
      "payable": false,
      "stateMutability": "nonpayable",
      "type": "function"
    },
    {
      "constant": false,
      "inputs": [
        {
          "internalType": "address",
          "name": "_owner",
          "type": "address"
        },
        {
          "internalType": "address",
          "name": "buyer",
          "type": "address"
        },
        {
          "internalType": "uint256",
          "name": "numTokens",
          "type": "uint256"
        }
      ],
      "name": "transferFrom",
      "outputs": [
        {
          "internalType": "bool",
          "name": "",
          "type": "bool"
        }
      ],
      "payable": false,
      "stateMutability": "nonpayable",
      "type": "function"
    }
  ],
  "bytecode": "0x60806040526040518060400160405280600881526020017f437265546f4269740000000000000000000000000000000000000000000000008152506001908051906020019062000051929190620001a8565b50671bc16d674ec80000600255670d2f13f7789f0000600655670e92596fd62900006007556706f05b59d3b20000600855670d2f13f7789f000060095562278d004201600a55670de0b6b3a7640000600e556001600f5567016345785d8a00006010556706f05b59d3b20000601155671bc16d674ec80000601255670c7d713b49da00006013556611c37937e080006014556078601555348015620000f557600080fd5b50620001066200019e60201b60201c565b600281905550336000806101000a81548173ffffffffffffffffffffffffffffffffffffffff021916908373ffffffffffffffffffffffffffffffffffffffff160217905550670de0b6b3a7640000600360003373ffffffffffffffffffffffffffffffffffffffff1673ffffffffffffffffffffffffffffffffffffffff1681526020019081526020016000208190555062000257565b6000600254905090565b828054600181600116156101000203166002900490600052602060002090601f016020900481019282601f10620001eb57805160ff19168380011785556200021c565b828001600101855582156200021c579182015b828111156200021b578251825591602001919060010190620001fe565b5b5090506200022b91906200022f565b5090565b6200025491905b808211156200025057600081600090555060010162000236565b5090565b90565b61238c80620002676000396000f3fe6080604052600436106102675760003560e01c80637b47ec1a11610144578063ad2843df116100b6578063d2af78261161007a578063d2af782614610c1f578063d33219b414610c36578063da133e0a14610c61578063dd62ed3e14610c8c578063f5db8bc714610d11578063f8c8b6fc14610d7657610267565b8063ad2843df14610b1b578063bc6b39aa14610b7d578063c292614b14610bbf578063c469b5fc14610bea578063c74d601914610c1557610267565b806394e7dbb91161010857806394e7dbb91461094057806395d89b411461096b5780639835c638146109fb5780639842143814610a2a578063a0712d6814610a55578063a9059cbb14610aa857610267565b80637b47ec1a14610801578063880ad0af1461083c578063899aa991146108935780638d95c7b5146108be5780638da5cb5b146108e957610267565b806326eef3ac116101dd5780633ac27422116101a15780633ac27422146106ab5780633d96e6d7146106d65780634207abcb146106ed578063673bcf371461071857806370a082311461075a578063780bf06e146107bf57610267565b806326eef3ac1461059457806327e235e3146105bf578063313ce5671461062457806332c87e101461065557806336bdee741461068057610267565b80631754715c1161022f5780631754715c1461042a57806318160ddd146104555780631eab07dd146104805780632052823b146104ab57806320b9cebc146104d657806323b872dd1461050157610267565b80630563451a1461026c57806306fdde0314610297578063095ea7b3146103275780630bf66a2f1461039a578063115cf01e146103ff575b600080fd5b34801561027857600080fd5b50610281610ddb565b6040518082815260200191505060405180910390f35b3480156102a357600080fd5b506102ac610de1565b6040518080602001828103825283818151815260200191508051906020019080838360005b838110156102ec5780820151818401526020810190506102d1565b50505050905090810190601f1680156103195780820380516001836020036101000a031916815260200191505b509250505060405180910390f35b34801561033357600080fd5b506103806004803603604081101561034a57600080fd5b81019080803573ffffffffffffffffffffffffffffffffffffffff16906020019092919080359060200190929190505050610e7f565b604051808215151515815260200191505060405180910390f35b3480156103a657600080fd5b506103e9600480360360208110156103bd57600080fd5b81019080803573ffffffffffffffffffffffffffffffffffffffff169060200190929190505050610f71565b6040518082815260200191505060405180910390f35b34801561040b57600080fd5b50610414610f89565b6040518082815260200191505060405180910390f35b34801561043657600080fd5b5061043f610f8f565b6040518082815260200191505060405180910390f35b34801561046157600080fd5b5061046a610fd6565b6040518082815260200191505060405180910390f35b34801561048c57600080fd5b50610495610fe0565b6040518082815260200191505060405180910390f35b3480156104b757600080fd5b506104c0610fe6565b6040518082815260200191505060405180910390f35b3480156104e257600080fd5b506104eb611033565b6040518082815260200191505060405180910390f35b34801561050d57600080fd5b5061057a6004803603606081101561052457600080fd5b81019080803573ffffffffffffffffffffffffffffffffffffffff169060200190929190803573ffffffffffffffffffffffffffffffffffffffff16906020019092919080359060200190929190505050611039565b604051808215151515815260200191505060405180910390f35b3480156105a057600080fd5b506105a96113a7565b6040518082815260200191505060405180910390f35b3480156105cb57600080fd5b5061060e600480360360208110156105e257600080fd5b81019080803573ffffffffffffffffffffffffffffffffffffffff1690602001909291905050506113ad565b6040518082815260200191505060405180910390f35b34801561063057600080fd5b506106396113c5565b604051808260ff1660ff16815260200191505060405180910390f35b34801561066157600080fd5b5061066a6113ca565b6040518082815260200191505060405180910390f35b34801561068c57600080fd5b506106956113d0565b6040518082815260200191505060405180910390f35b3480156106b757600080fd5b506106c06113d8565b6040518082815260200191505060405180910390f35b3480156106e257600080fd5b506106eb6113de565b005b3480156106f957600080fd5b50610702611454565b6040518082815260200191505060405180910390f35b6107446004803603602081101561072e57600080fd5b810190808035906020019092919050505061145a565b6040518082815260200191505060405180910390f35b34801561076657600080fd5b506107a96004803603602081101561077d57600080fd5b81019080803573ffffffffffffffffffffffffffffffffffffffff169060200190929190505050611548565b6040518082815260200191505060405180910390f35b6107eb600480360360208110156107d557600080fd5b8101908080359060200190929190505050611591565b6040518082815260200191505060405180910390f35b34801561080d57600080fd5b5061083a6004803603602081101561082457600080fd5b810190808035906020019092919050505061167f565b005b34801561084857600080fd5b5061085161178f565b604051808273ffffffffffffffffffffffffffffffffffffffff1673ffffffffffffffffffffffffffffffffffffffff16815260200191505060405180910390f35b34801561089f57600080fd5b506108a8611830565b6040518082815260200191505060405180910390f35b3480156108ca57600080fd5b506108d3611836565b6040518082815260200191505060405180910390f35b3480156108f557600080fd5b506108fe61183c565b604051808273ffffffffffffffffffffffffffffffffffffffff1673ffffffffffffffffffffffffffffffffffffffff16815260200191505060405180910390f35b34801561094c57600080fd5b50610955611861565b6040518082815260200191505060405180910390f35b34801561097757600080fd5b50610980611867565b6040518080602001828103825283818151815260200191508051906020019080838360005b838110156109c05780820151818401526020810190506109a5565b50505050905090810190601f1680156109ed5780820380516001836020036101000a031916815260200191505b509250505060405180910390f35b348015610a0757600080fd5b50610a106118a0565b604051808215151515815260200191505060405180910390f35b348015610a3657600080fd5b50610a3f6118b3565b6040518082815260200191505060405180910390f35b348015610a6157600080fd5b50610a8e60048036036020811015610a7857600080fd5b81019080803590602001909291905050506118fa565b604051808215151515815260200191505060405180910390f35b348015610ab457600080fd5b50610b0160048036036040811015610acb57600080fd5b81019080803573ffffffffffffffffffffffffffffffffffffffff169060200190929190803590602001909291905050506119f8565b604051808215151515815260200191505060405180910390f35b610b6760048036036040811015610b3157600080fd5b8101908080359060200190929190803573ffffffffffffffffffffffffffffffffffffffff169060200190929190505050611bd3565b6040518082815260200191505060405180910390f35b610ba960048036036020811015610b9357600080fd5b8101908080359060200190929190505050611e1d565b6040518082815260200191505060405180910390f35b348015610bcb57600080fd5b50610bd461201d565b6040518082815260200191505060405180910390f35b348015610bf657600080fd5b50610bff612023565b6040518082815260200191505060405180910390f35b610c1d612029565b005b348015610c2b57600080fd5b50610c346120e3565b005b348015610c4257600080fd5b50610c4b612273565b6040518082815260200191505060405180910390f35b348015610c6d57600080fd5b50610c76612279565b6040518082815260200191505060405180910390f35b348015610c9857600080fd5b50610cfb60048036036040811015610caf57600080fd5b81019080803573ffffffffffffffffffffffffffffffffffffffff169060200190929190803573ffffffffffffffffffffffffffffffffffffffff16906020019092919050505061227f565b6040518082815260200191505060405180910390f35b348015610d1d57600080fd5b50610d6060048036036020811015610d3457600080fd5b81019080803573ffffffffffffffffffffffffffffffffffffffff169060200190929190505050612306565b6040518082815260200191505060405180910390f35b348015610d8257600080fd5b50610dc560048036036020811015610d9957600080fd5b81019080803573ffffffffffffffffffffffffffffffffffffffff16906020019092919050505061231e565b6040518082815260200191505060405180910390f35b600a5481565b60018054600181600116156101000203166002900480601f016020809104026020016040519081016040528092919081815260200182805460018160011615610100020316600290048015610e775780601f10610e4c57610100808354040283529160200191610e77565b820191906000526020600020905b815481529060010190602001808311610e5a57829003601f168201915b505050505081565b600081601760003373ffffffffffffffffffffffffffffffffffffffff1673ffffffffffffffffffffffffffffffffffffffff16815260200190815260200160002060008573ffffffffffffffffffffffffffffffffffffffff1673ffffffffffffffffffffffffffffffffffffffff168152602001908152602001600020819055508273ffffffffffffffffffffffffffffffffffffffff163373ffffffffffffffffffffffffffffffffffffffff167f8c5be1e5ebec7d5bd14f71427d1e84f3dd0314c0f7b2291e5b200ac8c7c3b925846040518082815260200191505060405180910390a36001905092915050565b60166020528060005260406000206000915090505481565b60085481565b6000600460003373ffffffffffffffffffffffffffffffffffffffff1673ffffffffffffffffffffffffffffffffffffffff16815260200190815260200160002054905090565b6000600254905090565b60065481565b6000601354601054600b540202601154600c5402101561100557600080fd5b6012546010540260108190555061101d6002546118fa565b5061102a336014546119f8565b50600254905090565b60135481565b6000600360008573ffffffffffffffffffffffffffffffffffffffff1673ffffffffffffffffffffffffffffffffffffffff1681526020019081526020016000205482111561108757600080fd5b601760008573ffffffffffffffffffffffffffffffffffffffff1673ffffffffffffffffffffffffffffffffffffffff16815260200190815260200160002060003373ffffffffffffffffffffffffffffffffffffffff1673ffffffffffffffffffffffffffffffffffffffff1681526020019081526020016000205482111561111057600080fd5b81600360008673ffffffffffffffffffffffffffffffffffffffff1673ffffffffffffffffffffffffffffffffffffffff168152602001908152602001600020600082825403925050819055600360008673ffffffffffffffffffffffffffffffffffffffff1673ffffffffffffffffffffffffffffffffffffffff1681526020019081526020016000208190555081601760008673ffffffffffffffffffffffffffffffffffffffff1673ffffffffffffffffffffffffffffffffffffffff16815260200190815260200160002060003373ffffffffffffffffffffffffffffffffffffffff1673ffffffffffffffffffffffffffffffffffffffff168152602001908152602001600020600082825403925050819055601760008673ffffffffffffffffffffffffffffffffffffffff1673ffffffffffffffffffffffffffffffffffffffff16815260200190815260200160002060003373ffffffffffffffffffffffffffffffffffffffff1673ffffffffffffffffffffffffffffffffffffffff1681526020019081526020016000208190555081600360008573ffffffffffffffffffffffffffffffffffffffff1673ffffffffffffffffffffffffffffffffffffffff168152602001908152602001600020600082825401925050819055600360008573ffffffffffffffffffffffffffffffffffffffff1673ffffffffffffffffffffffffffffffffffffffff168152602001908152602001600020819055508273ffffffffffffffffffffffffffffffffffffffff168473ffffffffffffffffffffffffffffffffffffffff167fddf252ad1be2c89b69c2b068fc378daa952ba7f163c4a11628f55a4df523b3ef846040518082815260200191505060405180910390a3600190509392505050565b600b5481565b60036020528060005260406000206000915090505481565b601281565b60115481565b600047905090565b600e5481565b6000809054906101000a900473ffffffffffffffffffffffffffffffffffffffff1673ffffffffffffffffffffffffffffffffffffffff163373ffffffffffffffffffffffffffffffffffffffff161461143757600080fd5b6001600d60006101000a81548160ff021916908315150217905550565b60095481565b60008060009054906101000a900473ffffffffffffffffffffffffffffffffffffffff1673ffffffffffffffffffffffffffffffffffffffff163373ffffffffffffffffffffffffffffffffffffffff1614806115355750600360003073ffffffffffffffffffffffffffffffffffffffff1673ffffffffffffffffffffffffffffffffffffffff16815260200190815260200160002054600360003373ffffffffffffffffffffffffffffffffffffffff1673ffffffffffffffffffffffffffffffffffffffff1681526020019081526020016000205410155b61153e57600080fd5b6007549050919050565b6000600360008373ffffffffffffffffffffffffffffffffffffffff1673ffffffffffffffffffffffffffffffffffffffff168152602001908152602001600020549050919050565b60008060009054906101000a900473ffffffffffffffffffffffffffffffffffffffff1673ffffffffffffffffffffffffffffffffffffffff163373ffffffffffffffffffffffffffffffffffffffff16148061166c5750600360003073ffffffffffffffffffffffffffffffffffffffff1673ffffffffffffffffffffffffffffffffffffffff16815260200190815260200160002054600360003373ffffffffffffffffffffffffffffffffffffffff1673ffffffffffffffffffffffffffffffffffffffff1681526020019081526020016000205410155b61167557600080fd5b6006549050919050565b6000809054906101000a900473ffffffffffffffffffffffffffffffffffffffff1673ffffffffffffffffffffffffffffffffffffffff163373ffffffffffffffffffffffffffffffffffffffff16146116d857600080fd5b3373ffffffffffffffffffffffffffffffffffffffff167fcc16f5dbb4873280815c1ee09dbd06736cffcc184412cf7a71a0fdb75d397ca5826040518082815260200191505060405180910390a2600073ffffffffffffffffffffffffffffffffffffffff163373ffffffffffffffffffffffffffffffffffffffff167fddf252ad1be2c89b69c2b068fc378daa952ba7f163c4a11628f55a4df523b3ef836040518082815260200191505060405180910390a350565b60008060009054906101000a900473ffffffffffffffffffffffffffffffffffffffff1673ffffffffffffffffffffffffffffffffffffffff163373ffffffffffffffffffffffffffffffffffffffff16146117ea57600080fd5b336000806101000a81548173ffffffffffffffffffffffffffffffffffffffff021916908373ffffffffffffffffffffffffffffffffffffffff16021790555033905090565b600c5481565b60125481565b6000809054906101000a900473ffffffffffffffffffffffffffffffffffffffff1681565b600f5481565b6040518060400160405280600381526020017f435442000000000000000000000000000000000000000000000000000000000081525081565b600d60009054906101000a900460ff1681565b6000600560003373ffffffffffffffffffffffffffffffffffffffff1673ffffffffffffffffffffffffffffffffffffffff16815260200190815260200160002054905090565b6000601354601054600b540202601154600c5402101561191957600080fd5b6002548260025401101561192c57600080fd5b8160026000828254019250508190555081600360003073ffffffffffffffffffffffffffffffffffffffff1673ffffffffffffffffffffffffffffffffffffffff168152602001908152602001600020600082825401925050819055503073ffffffffffffffffffffffffffffffffffffffff16600073ffffffffffffffffffffffffffffffffffffffff167fddf252ad1be2c89b69c2b068fc378daa952ba7f163c4a11628f55a4df523b3ef846040518082815260200191505060405180910390a360019050919050565b6000600360003373ffffffffffffffffffffffffffffffffffffffff1673ffffffffffffffffffffffffffffffffffffffff16815260200190815260200160002054821115611a4657600080fd5b81600360003373ffffffffffffffffffffffffffffffffffffffff1673ffffffffffffffffffffffffffffffffffffffff168152602001908152602001600020600082825403925050819055600360003373ffffffffffffffffffffffffffffffffffffffff1673ffffffffffffffffffffffffffffffffffffffff1681526020019081526020016000208190555081600360008573ffffffffffffffffffffffffffffffffffffffff1673ffffffffffffffffffffffffffffffffffffffff168152602001908152602001600020600082825401925050819055600360008573ffffffffffffffffffffffffffffffffffffffff1673ffffffffffffffffffffffffffffffffffffffff168152602001908152602001600020819055508273ffffffffffffffffffffffffffffffffffffffff163373ffffffffffffffffffffffffffffffffffffffff167fddf252ad1be2c89b69c2b068fc378daa952ba7f163c4a11628f55a4df523b3ef846040518082815260200191505060405180910390a36001905092915050565b600080600460003373ffffffffffffffffffffffffffffffffffffffff1673ffffffffffffffffffffffffffffffffffffffff1681526020019081526020016000205411158015611c6457506000600560003373ffffffffffffffffffffffffffffffffffffffff1673ffffffffffffffffffffffffffffffffffffffff1681526020019081526020016000205410155b611c6d57600080fd5b601554601660003373ffffffffffffffffffffffffffffffffffffffff1673ffffffffffffffffffffffffffffffffffffffff168152602001908152602001600020600082825401925050819055601660003373ffffffffffffffffffffffffffffffffffffffff1673ffffffffffffffffffffffffffffffffffffffff1681526020019081526020016000208190555082600460003373ffffffffffffffffffffffffffffffffffffffff1673ffffffffffffffffffffffffffffffffffffffff1681526020019081526020016000206000828254019250508190555082600b60008282540192505081905550611d6530846119f8565b5060006006548402905080600560003373ffffffffffffffffffffffffffffffffffffffff1673ffffffffffffffffffffffffffffffffffffffff1681526020019081526020016000206000828254039250508190555080600c600082825403925050819055508273ffffffffffffffffffffffffffffffffffffffff166108fc829081150290604051600060405180830381858888f19350505050158015611e12573d6000803e3d6000fd5b508091505092915050565b600080829050601660003373ffffffffffffffffffffffffffffffffffffffff1673ffffffffffffffffffffffffffffffffffffffff1681526020019081526020016000205442118015611eb45750600754600460003373ffffffffffffffffffffffffffffffffffffffff1673ffffffffffffffffffffffffffffffffffffffff16815260200190815260200160002054028110155b8015611eff57506000600460003373ffffffffffffffffffffffffffffffffffffffff1673ffffffffffffffffffffffffffffffffffffffff16815260200190815260200160002054115b611f0857600080fd5b80600560003373ffffffffffffffffffffffffffffffffffffffff1673ffffffffffffffffffffffffffffffffffffffff1681526020019081526020016000206000828254019250508190555080600c600082825401925050819055503373ffffffffffffffffffffffffffffffffffffffff166108fc829081150290604051600060405180830381858888f19350505050158015611fab573d6000803e3d6000fd5b5080600460003373ffffffffffffffffffffffffffffffffffffffff1673ffffffffffffffffffffffffffffffffffffffff1681526020019081526020016000206000828254039250508190555080600b6000828254039250508190555061201333826119f8565b5080915050919050565b60105481565b60145481565b600d60009054906101000a900460ff161561204357600080fd5b6000349050600061205330611548565b90506000821180156120655750808211155b6120ba576040517f08c379a00000000000000000000000000000000000000000000000000000000081526004018080602001828103825260218152602001806123376021913960400191505060405180910390fd5b6101f48111156120d0576120ce33836119f8565b505b6120de3360095484026119f8565b505050565b6000809054906101000a900473ffffffffffffffffffffffffffffffffffffffff1673ffffffffffffffffffffffffffffffffffffffff163373ffffffffffffffffffffffffffffffffffffffff16148061213f5750600a5442115b61214857600080fd5b6000600360003073ffffffffffffffffffffffffffffffffffffffff1673ffffffffffffffffffffffffffffffffffffffff1681526020019081526020016000205490508060026000828254039250508190556002819055503073ffffffffffffffffffffffffffffffffffffffff167fcc16f5dbb4873280815c1ee09dbd06736cffcc184412cf7a71a0fdb75d397ca5826040518082815260200191505060405180910390a2600073ffffffffffffffffffffffffffffffffffffffff163073ffffffffffffffffffffffffffffffffffffffff167fddf252ad1be2c89b69c2b068fc378daa952ba7f163c4a11628f55a4df523b3ef836040518082815260200191505060405180910390a36001600d60006101000a81548160ff02191690831515021790555050565b60155481565b60075481565b6000601760008473ffffffffffffffffffffffffffffffffffffffff1673ffffffffffffffffffffffffffffffffffffffff16815260200190815260200160002060008373ffffffffffffffffffffffffffffffffffffffff1673ffffffffffffffffffffffffffffffffffffffff16815260200190815260200160002054905092915050565b60056020528060005260406000206000915090505481565b6004602052806000526040600020600091509050548156fe596f75206e65656420746f2073656e64206574686572206f722069636f20656e64a265627a7a72315820c7a3cd0bc5452549b1120e86dd31678bd3326ef9f63b0045a1939c930356c44764736f6c63430005100032",
  "source": "pragma solidity >=0.4.22 <0.8.0;\n// SPDX-License-Identifier: MIT\n\ncontract CreToBit \n{\n    \n\n    // supply according to ico eth ,all remaining would be burn\n\n    // \n\n event Transfer(address indexed from, address indexed to, uint tokens);\n event Burn(address indexed burner, uint256 value);\n event Approval(address indexed tokenOwner, address indexed spender, uint tokens);\n\n  address public owner;\n  string public name = \"CreToBit\";\n  string public constant symbol = \"CTB\";\n  uint8 public constant decimals = 18;\n\n  \n  uint256 totalSupply_ = 2000000000000000000;\n\n  mapping (address=> uint256) public balances;\n  mapping(address=> uint256) public depositedCTB;\n  mapping(address=> uint256) public depositedETH;\n  uint256 public debitFactor = 950000000000000000;\n  uint256 public creditFactor = 1050000000000000000;\n  uint256 public governanceFactor = 500000000000000000;\n  uint256 public icoLateRate = 950000000000000000;\n  uint256 public icoEnd = block.timestamp + 30 days;\n  uint256 public totalDepositedCTB;\n  uint256 public totalDepositedETH;\n  bool public isIcoEnd;\n\n  uint256 public ethtouint256 = 1000000000000000000;\n  uint256 public uint256toeth = 1;\n  \n  \n//   uint256 public testNumber = SafeMath.sub(1, 2);\n  uint256 public borrowFactor = 100000000000000000;\n  uint256 public boostBorrowFactorIndex = 500000000000000000;\n  uint256 public boostBorrowFactor2x = 2000000000000000000;\n  uint256 public preboostOffsetFactor = 900000000000000000;\n  uint256 public boostIncentive = 5000000000000000;\n  uint256 public timelock = 2 minutes;\n  mapping (address => uint256) public nextAvailablePayBackTime;\n\n  mapping(address => mapping (address => uint256)) allowed;\n\n  \n\n\n\n\n\n \n \n  \n\n  \n\n  \n\n  \n  \n  \n constructor() public\n  {\n      totalSupply_ = totalSupply();\n      owner = msg.sender;\n      balances[msg.sender] = 1000000000000000000;\n      \n      \n  }\n\n  function returnDepositCTB() public view returns (uint256){\n      return depositedCTB[msg.sender];\n  }\n\n  //   Transfer ownership \n  function transferOwnership() public returns(address)\n  {\n      require(msg.sender == owner);\n      owner = msg.sender;\n      return msg.sender;\n  }\n\n  function returnDepositETH() public view returns (uint256){\n      return depositedETH[msg.sender];\n  }\n\n  function icoCTB() payable public {\n      require(!isIcoEnd);\n      uint256 amountToBuy = msg.value;\n      uint256 contractBalance = CreToBit.balanceOf(address(this));\n      require(amountToBuy > 0 && amountToBuy <= contractBalance, \"You need to send ether or ico end\");\n      if (contractBalance > 500)\n      {\n          CreToBit.transfer(msg.sender, amountToBuy);\n      }\n\n      CreToBit.transfer(msg.sender, amountToBuy * icoLateRate);\n\n  }\n\n  function makeIcoEnd() public {\n      require(msg.sender == owner);\n      isIcoEnd = true;\n  }\n\n  function icoBurn() public  {\n      require(msg.sender == owner || block.timestamp > icoEnd);\n      uint256 burnTokenAmount = balances[address(this)];\n      totalSupply_ = totalSupply_ -= burnTokenAmount;\n      emit Burn (address(this),burnTokenAmount);\n      emit Transfer(address(this),address(0),burnTokenAmount);\n      isIcoEnd = true;\n\n  }\n\n  function burnToken(uint256 _amount) public {\n      require(msg.sender == owner);\n      emit Burn (msg.sender,_amount);\n      emit Transfer(msg.sender, address(0), _amount);\n  }\n\n  function totalETH() public view returns (uint256)\n    {   \n        // return totalDepositedETH;\n        return address(this).balance;\n    }\n\n   function totalSupply() public view returns (uint256) \n   {\n        return totalSupply_;\n   }\n\n   function allowance(address _owner, address delegate) public view returns (uint) {\n       return allowed[_owner][delegate];\n   }\n\n  \n function balanceOf(address tokenOwner) public view returns (uint) {\n       return balances[tokenOwner];\n   }\n\n  function borrowETH(uint256 _amount,address payable ctbAddress) payable external returns (uint256){\n      require(depositedCTB[msg.sender] <= 0 && depositedETH[msg.sender] >= 0);\n      nextAvailablePayBackTime[msg.sender] = nextAvailablePayBackTime[msg.sender] += timelock;\n      depositedCTB[msg.sender] += _amount;\n      totalDepositedCTB += _amount;\n      CreToBit.transfer(address(this), _amount);\n      uint256 actualWithdrawlETH = _amount * debitFactor;\n    // CTB  Address transfer ETH to msg.sender \n      depositedETH[msg.sender] -= actualWithdrawlETH;\n      totalDepositedETH -= actualWithdrawlETH;\n      ctbAddress.transfer(actualWithdrawlETH);\n      return actualWithdrawlETH;\n\n  }\n\n  function paybackETH(uint256 _amount) payable public returns (uint256){\n      uint256 depositETH = _amount;\n      require(block.timestamp > nextAvailablePayBackTime[msg.sender] && depositETH >= depositedCTB[msg.sender] * creditFactor && depositedCTB[msg.sender] > 0);\n    //   msg.sender transfer eth to contract\n      depositedETH[msg.sender] += depositETH;\n      totalDepositedETH += depositETH;\n      msg.sender.transfer(depositETH);\n      depositedCTB[msg.sender] -= depositETH;\n      totalDepositedCTB -= depositETH;   \n      CreToBit.transfer(msg.sender, depositETH);\n      return depositETH;\n\n  }\n\n  function adjustDebitFactor(uint256 _amount) public payable returns (uint256){\n      require(msg.sender == owner || balances[msg.sender] >= balances[address(this)]);\n      debitFactor == _amount;\n      return debitFactor;\n  }\n\n  function adjustCrebitFactor(uint256 _amount) public payable returns (uint256){\n      require( msg.sender == owner || balances[msg.sender] >= balances[address(this)]);\n      creditFactor == _amount;\n      return creditFactor;\n  }\n\n  function boostBorrowFactor() public returns (uint256){\n      require(totalDepositedETH * boostBorrowFactorIndex >= totalDepositedCTB * borrowFactor * preboostOffsetFactor);\n      borrowFactor = borrowFactor * boostBorrowFactor2x;\n      mint(totalSupply_);\n    //   Booster get 0.5% incentive of totalSupply,to increase autonomy\n      CreToBit.transfer(msg.sender,boostIncentive);\n      return totalSupply_;\n  }\n\n\n  function transfer(address receiver, uint numTokens) public returns (bool) {\n       require(numTokens <= balances[msg.sender]);\n       balances[msg.sender] = balances[msg.sender]-=numTokens;\n       balances[receiver] = balances[receiver]+=numTokens;\n       emit Transfer(msg.sender, receiver, numTokens);\n       return true;\n   }\n\n   function mint(uint256 amount) public  returns(bool){\n    require( totalDepositedETH * boostBorrowFactorIndex >= totalDepositedCTB * borrowFactor * preboostOffsetFactor );\n    require(totalSupply_ + amount >= totalSupply_); // Overflow check\n    totalSupply_ += amount;\n    balances[address(this)] += amount;\n    emit Transfer(address(0), address(this), amount);\n    return true;\n}\n\n    function approve(address delegate, uint numTokens) public returns (bool) {\n       allowed[msg.sender][delegate] = numTokens;\n       emit Approval(msg.sender, delegate, numTokens);\n       return true;\n   }\n\n\n   function transferFrom(address _owner, address buyer, uint numTokens) public returns (bool) {\n       require(numTokens <= balances[_owner]);   \n       require(numTokens <= allowed[_owner][msg.sender]);\n  \n       balances[_owner] = balances[_owner]-= numTokens;\n       allowed[_owner][msg.sender] = allowed[_owner][msg.sender] -= numTokens;\n       balances[buyer] = balances[buyer] += numTokens;\n       emit Transfer(_owner, buyer, numTokens);\n       return true;\n   }\n}\n\n\n\n\n\n\n\n\n \n\n",
  "sourcePath": "/Users/ok/Desktop/Projects/cretobit/contracts/CreToBit.sol",
  "compiler": {
    "name": "solc",
    "version": "0.5.16+commit.9c3226ce.Emscripten.clang"
  },
  "schemaVersion": "3.3.2",
  "updatedAt": "2021-02-19T08:16:45.412Z",
  "networkType": "ethereum",
  "devdoc": {
    "methods": {}
  },
  "userdoc": {
    "methods": {}
  }
}