{
  "contractName": "CreToBit",
  "abi": [
    {
      "inputs": [],
      "stateMutability": "nonpayable",
      "type": "constructor"
    },
    {
      "anonymous": false,
      "inputs": [
        {
          "indexed": true,
          "internalType": "address",
          "name": "tokenOwner",
          "type": "address"
        },
        {
          "indexed": true,
          "internalType": "address",
          "name": "spender",
          "type": "address"
        },
        {
          "indexed": false,
          "internalType": "uint256",
          "name": "tokens",
          "type": "uint256"
        }
      ],
      "name": "Approval",
      "type": "event"
    },
    {
      "anonymous": false,
      "inputs": [
        {
          "indexed": true,
          "internalType": "address",
          "name": "burner",
          "type": "address"
        },
        {
          "indexed": false,
          "internalType": "uint256",
          "name": "value",
          "type": "uint256"
        }
      ],
      "name": "Burn",
      "type": "event"
    },
    {
      "anonymous": false,
      "inputs": [
        {
          "indexed": true,
          "internalType": "address",
          "name": "from",
          "type": "address"
        },
        {
          "indexed": true,
          "internalType": "address",
          "name": "to",
          "type": "address"
        },
        {
          "indexed": false,
          "internalType": "uint256",
          "name": "tokens",
          "type": "uint256"
        }
      ],
      "name": "Transfer",
      "type": "event"
    },
    {
      "inputs": [
        {
          "internalType": "address",
          "name": "",
          "type": "address"
        }
      ],
      "name": "balances",
      "outputs": [
        {
          "internalType": "uint256",
          "name": "",
          "type": "uint256"
        }
      ],
      "stateMutability": "view",
      "type": "function",
      "constant": true
    },
    {
      "inputs": [],
      "name": "boostBorrowFactor2x",
      "outputs": [
        {
          "internalType": "uint256",
          "name": "",
          "type": "uint256"
        }
      ],
      "stateMutability": "view",
      "type": "function",
      "constant": true
    },
    {
      "inputs": [],
      "name": "boostBorrowFactorIndexX",
      "outputs": [
        {
          "internalType": "uint256",
          "name": "",
          "type": "uint256"
        }
      ],
      "stateMutability": "view",
      "type": "function",
      "constant": true
    },
    {
      "inputs": [],
      "name": "boostBorrowFactorIndexY",
      "outputs": [
        {
          "internalType": "uint256",
          "name": "",
          "type": "uint256"
        }
      ],
      "stateMutability": "view",
      "type": "function",
      "constant": true
    },
    {
      "inputs": [],
      "name": "boostIncentiveX",
      "outputs": [
        {
          "internalType": "uint256",
          "name": "",
          "type": "uint256"
        }
      ],
      "stateMutability": "view",
      "type": "function",
      "constant": true
    },
    {
      "inputs": [],
      "name": "boostIncentiveY",
      "outputs": [
        {
          "internalType": "uint256",
          "name": "",
          "type": "uint256"
        }
      ],
      "stateMutability": "view",
      "type": "function",
      "constant": true
    },
    {
      "inputs": [],
      "name": "borrowFactor",
      "outputs": [
        {
          "internalType": "uint256",
          "name": "",
          "type": "uint256"
        }
      ],
      "stateMutability": "view",
      "type": "function",
      "constant": true
    },
    {
      "inputs": [],
      "name": "borrowX",
      "outputs": [
        {
          "internalType": "uint256",
          "name": "",
          "type": "uint256"
        }
      ],
      "stateMutability": "view",
      "type": "function",
      "constant": true
    },
    {
      "inputs": [],
      "name": "borrowY",
      "outputs": [
        {
          "internalType": "uint256",
          "name": "",
          "type": "uint256"
        }
      ],
      "stateMutability": "view",
      "type": "function",
      "constant": true
    },
    {
      "inputs": [],
      "name": "ctbAddress",
      "outputs": [
        {
          "internalType": "address payable",
          "name": "",
          "type": "address"
        }
      ],
      "stateMutability": "view",
      "type": "function",
      "constant": true
    },
    {
      "inputs": [],
      "name": "decimals",
      "outputs": [
        {
          "internalType": "uint256",
          "name": "",
          "type": "uint256"
        }
      ],
      "stateMutability": "view",
      "type": "function",
      "constant": true
    },
    {
      "inputs": [
        {
          "internalType": "address",
          "name": "",
          "type": "address"
        }
      ],
      "name": "depositedCTB",
      "outputs": [
        {
          "internalType": "uint256",
          "name": "",
          "type": "uint256"
        }
      ],
      "stateMutability": "view",
      "type": "function",
      "constant": true
    },
    {
      "inputs": [
        {
          "internalType": "address",
          "name": "",
          "type": "address"
        }
      ],
      "name": "depositedETH",
      "outputs": [
        {
          "internalType": "uint256",
          "name": "",
          "type": "uint256"
        }
      ],
      "stateMutability": "view",
      "type": "function",
      "constant": true
    },
    {
      "inputs": [],
      "name": "ethtouint256",
      "outputs": [
        {
          "internalType": "uint256",
          "name": "",
          "type": "uint256"
        }
      ],
      "stateMutability": "view",
      "type": "function",
      "constant": true
    },
    {
      "inputs": [],
      "name": "governanceFactor",
      "outputs": [
        {
          "internalType": "uint256",
          "name": "",
          "type": "uint256"
        }
      ],
      "stateMutability": "view",
      "type": "function",
      "constant": true
    },
    {
      "inputs": [],
      "name": "icoEnd",
      "outputs": [
        {
          "internalType": "uint256",
          "name": "",
          "type": "uint256"
        }
      ],
      "stateMutability": "view",
      "type": "function",
      "constant": true
    },
    {
      "inputs": [],
      "name": "icoLateRateX",
      "outputs": [
        {
          "internalType": "uint256",
          "name": "",
          "type": "uint256"
        }
      ],
      "stateMutability": "view",
      "type": "function",
      "constant": true
    },
    {
      "inputs": [],
      "name": "icoLateRateY",
      "outputs": [
        {
          "internalType": "uint256",
          "name": "",
          "type": "uint256"
        }
      ],
      "stateMutability": "view",
      "type": "function",
      "constant": true
    },
    {
      "inputs": [],
      "name": "isIcoEnd",
      "outputs": [
        {
          "internalType": "bool",
          "name": "",
          "type": "bool"
        }
      ],
      "stateMutability": "view",
      "type": "function",
      "constant": true
    },
    {
      "inputs": [
        {
          "internalType": "address",
          "name": "",
          "type": "address"
        }
      ],
      "name": "lastRewardBalance",
      "outputs": [
        {
          "internalType": "uint256",
          "name": "",
          "type": "uint256"
        }
      ],
      "stateMutability": "view",
      "type": "function",
      "constant": true
    },
    {
      "inputs": [],
      "name": "name",
      "outputs": [
        {
          "internalType": "string",
          "name": "",
          "type": "string"
        }
      ],
      "stateMutability": "view",
      "type": "function",
      "constant": true
    },
    {
      "inputs": [
        {
          "internalType": "address",
          "name": "",
          "type": "address"
        }
      ],
      "name": "nextAvailablePayBackTime",
      "outputs": [
        {
          "internalType": "uint256",
          "name": "",
          "type": "uint256"
        }
      ],
      "stateMutability": "view",
      "type": "function",
      "constant": true
    },
    {
      "inputs": [],
      "name": "owner",
      "outputs": [
        {
          "internalType": "address",
          "name": "",
          "type": "address"
        }
      ],
      "stateMutability": "view",
      "type": "function",
      "constant": true
    },
    {
      "inputs": [],
      "name": "ownerTimeLock",
      "outputs": [
        {
          "internalType": "uint256",
          "name": "",
          "type": "uint256"
        }
      ],
      "stateMutability": "view",
      "type": "function",
      "constant": true
    },
    {
      "inputs": [],
      "name": "payBackX",
      "outputs": [
        {
          "internalType": "uint256",
          "name": "",
          "type": "uint256"
        }
      ],
      "stateMutability": "view",
      "type": "function",
      "constant": true
    },
    {
      "inputs": [],
      "name": "payBackY",
      "outputs": [
        {
          "internalType": "uint256",
          "name": "",
          "type": "uint256"
        }
      ],
      "stateMutability": "view",
      "type": "function",
      "constant": true
    },
    {
      "inputs": [],
      "name": "preboostOffsetFactorX",
      "outputs": [
        {
          "internalType": "uint256",
          "name": "",
          "type": "uint256"
        }
      ],
      "stateMutability": "view",
      "type": "function",
      "constant": true
    },
    {
      "inputs": [],
      "name": "preboostOffsetFactorY",
      "outputs": [
        {
          "internalType": "uint256",
          "name": "",
          "type": "uint256"
        }
      ],
      "stateMutability": "view",
      "type": "function",
      "constant": true
    },
    {
      "inputs": [],
      "name": "symbol",
      "outputs": [
        {
          "internalType": "string",
          "name": "",
          "type": "string"
        }
      ],
      "stateMutability": "view",
      "type": "function",
      "constant": true
    },
    {
      "inputs": [],
      "name": "timelock",
      "outputs": [
        {
          "internalType": "uint256",
          "name": "",
          "type": "uint256"
        }
      ],
      "stateMutability": "view",
      "type": "function",
      "constant": true
    },
    {
      "inputs": [],
      "name": "totalDepositedCTB",
      "outputs": [
        {
          "internalType": "uint256",
          "name": "",
          "type": "uint256"
        }
      ],
      "stateMutability": "view",
      "type": "function",
      "constant": true
    },
    {
      "inputs": [],
      "name": "totalDepositedETH",
      "outputs": [
        {
          "internalType": "uint256",
          "name": "",
          "type": "uint256"
        }
      ],
      "stateMutability": "view",
      "type": "function",
      "constant": true
    },
    {
      "inputs": [],
      "name": "uint256toeth",
      "outputs": [
        {
          "internalType": "uint256",
          "name": "",
          "type": "uint256"
        }
      ],
      "stateMutability": "view",
      "type": "function",
      "constant": true
    },
    {
      "inputs": [],
      "name": "updatedFactor",
      "outputs": [
        {
          "internalType": "uint256",
          "name": "",
          "type": "uint256"
        }
      ],
      "stateMutability": "view",
      "type": "function",
      "constant": true
    },
    {
      "stateMutability": "payable",
      "type": "receive",
      "payable": true
    },
    {
      "inputs": [],
      "name": "ableToClaimAmount",
      "outputs": [
        {
          "internalType": "uint256",
          "name": "",
          "type": "uint256"
        }
      ],
      "stateMutability": "view",
      "type": "function",
      "constant": true
    },
    {
      "inputs": [
        {
          "internalType": "uint256",
          "name": "_amount",
          "type": "uint256"
        }
      ],
      "name": "updateOwnerTimeLock",
      "outputs": [],
      "stateMutability": "nonpayable",
      "type": "function"
    },
    {
      "inputs": [],
      "name": "checkOwnerTimeLock",
      "outputs": [
        {
          "internalType": "bool",
          "name": "",
          "type": "bool"
        }
      ],
      "stateMutability": "view",
      "type": "function",
      "constant": true
    },
    {
      "inputs": [
        {
          "internalType": "address payable",
          "name": "_to",
          "type": "address"
        }
      ],
      "name": "holderIncentive",
      "outputs": [
        {
          "internalType": "uint256",
          "name": "",
          "type": "uint256"
        }
      ],
      "stateMutability": "payable",
      "type": "function",
      "payable": true
    },
    {
      "inputs": [],
      "name": "returnLastRewardBalance",
      "outputs": [
        {
          "internalType": "uint256",
          "name": "",
          "type": "uint256"
        }
      ],
      "stateMutability": "view",
      "type": "function",
      "constant": true
    },
    {
      "inputs": [],
      "name": "returnCTBAddress",
      "outputs": [
        {
          "internalType": "address",
          "name": "",
          "type": "address"
        }
      ],
      "stateMutability": "view",
      "type": "function",
      "constant": true
    },
    {
      "inputs": [],
      "name": "returnDepositCTB",
      "outputs": [
        {
          "internalType": "uint256",
          "name": "",
          "type": "uint256"
        }
      ],
      "stateMutability": "view",
      "type": "function",
      "constant": true
    },
    {
      "inputs": [],
      "name": "transferOwnership",
      "outputs": [
        {
          "internalType": "address",
          "name": "",
          "type": "address"
        }
      ],
      "stateMutability": "nonpayable",
      "type": "function"
    },
    {
      "inputs": [],
      "name": "returnDepositETH",
      "outputs": [
        {
          "internalType": "uint256",
          "name": "",
          "type": "uint256"
        }
      ],
      "stateMutability": "view",
      "type": "function",
      "constant": true
    },
    {
      "inputs": [],
      "name": "makeIcoEnd",
      "outputs": [],
      "stateMutability": "nonpayable",
      "type": "function"
    },
    {
      "inputs": [],
      "name": "icoBurn",
      "outputs": [],
      "stateMutability": "nonpayable",
      "type": "function"
    },
    {
      "inputs": [
        {
          "internalType": "uint256",
          "name": "_amount",
          "type": "uint256"
        }
      ],
      "name": "burnToken",
      "outputs": [],
      "stateMutability": "nonpayable",
      "type": "function"
    },
    {
      "inputs": [],
      "name": "burnICO",
      "outputs": [],
      "stateMutability": "nonpayable",
      "type": "function"
    },
    {
      "inputs": [],
      "name": "totalETH",
      "outputs": [
        {
          "internalType": "uint256",
          "name": "",
          "type": "uint256"
        }
      ],
      "stateMutability": "view",
      "type": "function",
      "constant": true
    },
    {
      "inputs": [],
      "name": "returnFactor",
      "outputs": [
        {
          "internalType": "uint256",
          "name": "",
          "type": "uint256"
        }
      ],
      "stateMutability": "nonpayable",
      "type": "function"
    },
    {
      "inputs": [],
      "name": "totalSupply",
      "outputs": [
        {
          "internalType": "uint256",
          "name": "",
          "type": "uint256"
        }
      ],
      "stateMutability": "view",
      "type": "function",
      "constant": true
    },
    {
      "inputs": [
        {
          "internalType": "address",
          "name": "_owner",
          "type": "address"
        },
        {
          "internalType": "address",
          "name": "delegate",
          "type": "address"
        }
      ],
      "name": "allowance",
      "outputs": [
        {
          "internalType": "uint256",
          "name": "",
          "type": "uint256"
        }
      ],
      "stateMutability": "view",
      "type": "function",
      "constant": true
    },
    {
      "inputs": [
        {
          "internalType": "address",
          "name": "tokenOwner",
          "type": "address"
        }
      ],
      "name": "balanceOf",
      "outputs": [
        {
          "internalType": "uint256",
          "name": "",
          "type": "uint256"
        }
      ],
      "stateMutability": "view",
      "type": "function",
      "constant": true
    },
    {
      "inputs": [
        {
          "internalType": "address payable",
          "name": "_to",
          "type": "address"
        },
        {
          "internalType": "uint256",
          "name": "_amount",
          "type": "uint256"
        }
      ],
      "name": "borrowETH",
      "outputs": [
        {
          "internalType": "uint256",
          "name": "",
          "type": "uint256"
        }
      ],
      "stateMutability": "payable",
      "type": "function",
      "payable": true
    },
    {
      "inputs": [
        {
          "internalType": "address payable",
          "name": "recipient",
          "type": "address"
        },
        {
          "internalType": "uint256",
          "name": "_amount",
          "type": "uint256"
        }
      ],
      "name": "transferEther",
      "outputs": [],
      "stateMutability": "nonpayable",
      "type": "function"
    },
    {
      "inputs": [],
      "name": "getDepositCTB",
      "outputs": [],
      "stateMutability": "payable",
      "type": "function",
      "payable": true
    },
    {
      "inputs": [
        {
          "internalType": "uint256",
          "name": "_debitX",
          "type": "uint256"
        },
        {
          "internalType": "uint256",
          "name": "_debitY",
          "type": "uint256"
        }
      ],
      "name": "adjustDebitFactor",
      "outputs": [
        {
          "internalType": "uint256",
          "name": "",
          "type": "uint256"
        }
      ],
      "stateMutability": "payable",
      "type": "function",
      "payable": true
    },
    {
      "inputs": [
        {
          "internalType": "uint256",
          "name": "_payBackX",
          "type": "uint256"
        },
        {
          "internalType": "uint256",
          "name": "_payBackY",
          "type": "uint256"
        }
      ],
      "name": "adjustCrebitFactor",
      "outputs": [
        {
          "internalType": "uint256",
          "name": "",
          "type": "uint256"
        }
      ],
      "stateMutability": "payable",
      "type": "function",
      "payable": true
    },
    {
      "inputs": [],
      "name": "governanceMint",
      "outputs": [
        {
          "internalType": "uint256",
          "name": "",
          "type": "uint256"
        }
      ],
      "stateMutability": "nonpayable",
      "type": "function"
    },
    {
      "inputs": [
        {
          "internalType": "address",
          "name": "receiver",
          "type": "address"
        },
        {
          "internalType": "uint256",
          "name": "numTokens",
          "type": "uint256"
        }
      ],
      "name": "transfer",
      "outputs": [
        {
          "internalType": "bool",
          "name": "",
          "type": "bool"
        }
      ],
      "stateMutability": "nonpayable",
      "type": "function"
    },
    {
      "inputs": [
        {
          "internalType": "uint256",
          "name": "_amount",
          "type": "uint256"
        }
      ],
      "name": "mint",
      "outputs": [
        {
          "internalType": "bool",
          "name": "",
          "type": "bool"
        }
      ],
      "stateMutability": "nonpayable",
      "type": "function"
    },
    {
      "inputs": [
        {
          "internalType": "address",
          "name": "delegate",
          "type": "address"
        },
        {
          "internalType": "uint256",
          "name": "numTokens",
          "type": "uint256"
        }
      ],
      "name": "approve",
      "outputs": [
        {
          "internalType": "bool",
          "name": "",
          "type": "bool"
        }
      ],
      "stateMutability": "nonpayable",
      "type": "function"
    },
    {
      "inputs": [
        {
          "internalType": "address",
          "name": "_owner",
          "type": "address"
        },
        {
          "internalType": "address",
          "name": "buyer",
          "type": "address"
        },
        {
          "internalType": "uint256",
          "name": "numTokens",
          "type": "uint256"
        }
      ],
      "name": "transferFrom",
      "outputs": [
        {
          "internalType": "bool",
          "name": "",
          "type": "bool"
        }
      ],
      "stateMutability": "nonpayable",
      "type": "function"
    }
  ],
  "bytecode": "0x60806040526040518060400160405280600881526020017f437265546f4269740000000000000000000000000000000000000000000000008152506002908051906020019062000051929190620001af565b50683635c9adc5dea0000060035560126101f402600755605a600855606460095562278d004201600b556000600e60006101000a81548160ff021916908315150217905550670de0b6b3a7640000601055600160115567016345785d8a00006012556001601355600260145560026015556009601655600a601755600160185560c86019556001601a55605f601d556064601e55606e601f556064602055348015620000fc57600080fd5b506200010d620001a560201b60201c565b600381905550336000806101000a81548173ffffffffffffffffffffffffffffffffffffffff021916908373ffffffffffffffffffffffffffffffffffffffff160217905550670de0b6b3a7640000600460003373ffffffffffffffffffffffffffffffffffffffff1673ffffffffffffffffffffffffffffffffffffffff1681526020019081526020016000208190555062000265565b6000600354905090565b828054600181600116156101000203166002900490600052602060002090601f016020900481019282620001e7576000855562000233565b82601f106200020257805160ff191683800117855562000233565b8280016001018555821562000233579182015b828111156200023257825182559160200191906001019062000215565b5b50905062000242919062000246565b5090565b5b808211156200026157600081600090555060010162000247565b5090565b6131d580620002756000396000f3fe6080604052600436106103b15760003560e01c8063899aa991116101e7578063c1d800f61161010d578063d99409ff116100a0578063f46e1fce1161006f578063f46e1fce146112fe578063f5db8bc714611329578063f8c8b6fc1461138e578063fa994d9b146113f357610501565b8063d99409ff146111f8578063dd2378fc14611223578063dd62ed3e1461124e578063f34286cd146112d357610501565b8063d2af7826116100dc578063d2af78261461115e578063d33219b414611175578063d3bff53a146111a0578063d96a4686146111e157610501565b8063c1d800f614611070578063c292614b1461109b578063c8240a57146110c6578063c8de34511461111257610501565b80639842143811610185578063a9059cbb11610154578063a9059cbb14610f7e578063a9b78b5614610fef578063b5fa88d71461101a578063bb6337461461104557610501565b80639842143814610e755780639fb2ac2514610ea0578063a0712d6814610f02578063a5ce94ac14610f5357610501565b806392eac1f3116101c157806392eac1f314610d6257806394e7dbb914610d8d57806395d89b4114610db85780639835c63814610e4857610501565b8063899aa99114610ccb5780638d95c7b514610cf65780638da5cb5b14610d2157610501565b8063332d1a38116102d75780635b39045e1161026a578063757116ea11610239578063757116ea14610bf9578063774e304214610c245780637b47ec1a14610c4f578063880ad0af14610c8a57610501565b80635b39045e14610ad95780635fc0d9e014610b045780636fc88f9114610b6957806370a0823114610b9457610501565b80633ac27422116102a65780633ac2742214610a315780633d96e6d714610a5c5780633ee0046314610a73578063571d830414610aae57610501565b8063332d1a3814610942578063357a101f1461099a57806336bdee74146109c557806339208286146109f057610501565b8063116f88781161034f57806323b872dd1161031e57806323b872dd146107f657806326eef3ac1461088757806327e235e3146108b2578063313ce5671461091757610501565b8063116f88781461074857806312714bac146107755780631754715c146107a057806318160ddd146107cb57610501565b806306fdde031161038b57806306fdde03146105b7578063095ea7b3146106475780630bf66a2f146106b8578063115cf01e1461071d57610501565b80630563451a1461050657806305b1137b1461053157806306dc51a21461058c57610501565b366105015760006009546008543402816103c757fe5b04905080600d6000828254019250508190555080600660003373ffffffffffffffffffffffffffffffffffffffff1673ffffffffffffffffffffffffffffffffffffffff1681526020019081526020016000206000828254019250508190555080602260003073ffffffffffffffffffffffffffffffffffffffff1673ffffffffffffffffffffffffffffffffffffffff16815260200190815260200160002060003373ffffffffffffffffffffffffffffffffffffffff1673ffffffffffffffffffffffffffffffffffffffff1681526020019081526020016000206000828254019250508190555080600460003373ffffffffffffffffffffffffffffffffffffffff1673ffffffffffffffffffffffffffffffffffffffff1681526020019081526020016000206000828254019250508190555050005b600080fd5b34801561051257600080fd5b5061051b6113fd565b6040518082815260200191505060405180910390f35b34801561053d57600080fd5b5061058a6004803603604081101561055457600080fd5b81019080803573ffffffffffffffffffffffffffffffffffffffff16906020019092919080359060200190929190505050611403565b005b34801561059857600080fd5b506105a161144e565b6040518082815260200191505060405180910390f35b3480156105c357600080fd5b506105cc611454565b6040518080602001828103825283818151815260200191508051906020019080838360005b8381101561060c5780820151818401526020810190506105f1565b50505050905090810190601f1680156106395780820380516001836020036101000a031916815260200191505b509250505060405180910390f35b34801561065357600080fd5b506106a06004803603604081101561066a57600080fd5b81019080803573ffffffffffffffffffffffffffffffffffffffff169060200190929190803590602001909291905050506114f2565b60405180821515815260200191505060405180910390f35b3480156106c457600080fd5b50610707600480360360208110156106db57600080fd5b81019080803573ffffffffffffffffffffffffffffffffffffffff1690602001909291905050506115e4565b6040518082815260200191505060405180910390f35b34801561072957600080fd5b506107326115fc565b6040518082815260200191505060405180910390f35b34801561075457600080fd5b5061075d611602565b60405180821515815260200191505060405180910390f35b34801561078157600080fd5b5061078a611682565b6040518082815260200191505060405180910390f35b3480156107ac57600080fd5b506107b5611688565b6040518082815260200191505060405180910390f35b3480156107d757600080fd5b506107e06116cf565b6040518082815260200191505060405180910390f35b34801561080257600080fd5b5061086f6004803603606081101561081957600080fd5b81019080803573ffffffffffffffffffffffffffffffffffffffff169060200190929190803573ffffffffffffffffffffffffffffffffffffffff169060200190929190803590602001909291905050506116d9565b60405180821515815260200191505060405180910390f35b34801561089357600080fd5b5061089c611a47565b6040518082815260200191505060405180910390f35b3480156108be57600080fd5b50610901600480360360208110156108d557600080fd5b81019080803573ffffffffffffffffffffffffffffffffffffffff169060200190929190505050611a4d565b6040518082815260200191505060405180910390f35b34801561092357600080fd5b5061092c611a65565b6040518082815260200191505060405180910390f35b6109846004803603602081101561095857600080fd5b81019080803573ffffffffffffffffffffffffffffffffffffffff169060200190929190505050611a6a565b6040518082815260200191505060405180910390f35b3480156109a657600080fd5b506109af611ce6565b6040518082815260200191505060405180910390f35b3480156109d157600080fd5b506109da611cec565b6040518082815260200191505060405180910390f35b3480156109fc57600080fd5b50610a05611cf4565b604051808273ffffffffffffffffffffffffffffffffffffffff16815260200191505060405180910390f35b348015610a3d57600080fd5b50610a46611d1a565b6040518082815260200191505060405180910390f35b348015610a6857600080fd5b50610a71611d20565b005b348015610a7f57600080fd5b50610aac60048036036020811015610a9657600080fd5b8101908080359060200190929190505050611da6565b005b348015610aba57600080fd5b50610ac3611eeb565b6040518082815260200191505060405180910390f35b348015610ae557600080fd5b50610aee61200e565b6040518082815260200191505060405180910390f35b348015610b1057600080fd5b50610b5360048036036020811015610b2757600080fd5b81019080803573ffffffffffffffffffffffffffffffffffffffff169060200190929190505050612014565b6040518082815260200191505060405180910390f35b348015610b7557600080fd5b50610b7e61202c565b6040518082815260200191505060405180910390f35b348015610ba057600080fd5b50610be360048036036020811015610bb757600080fd5b81019080803573ffffffffffffffffffffffffffffffffffffffff169060200190929190505050612032565b6040518082815260200191505060405180910390f35b348015610c0557600080fd5b50610c0e61207b565b6040518082815260200191505060405180910390f35b348015610c3057600080fd5b50610c39612081565b6040518082815260200191505060405180910390f35b348015610c5b57600080fd5b50610c8860048036036020811015610c7257600080fd5b81019080803590602001909291905050506120b8565b005b348015610c9657600080fd5b50610c9f612204565b604051808273ffffffffffffffffffffffffffffffffffffffff16815260200191505060405180910390f35b348015610cd757600080fd5b50610ce06122a5565b6040518082815260200191505060405180910390f35b348015610d0257600080fd5b50610d0b6122ab565b6040518082815260200191505060405180910390f35b348015610d2d57600080fd5b50610d366122b1565b604051808273ffffffffffffffffffffffffffffffffffffffff16815260200191505060405180910390f35b348015610d6e57600080fd5b50610d776122d5565b6040518082815260200191505060405180910390f35b348015610d9957600080fd5b50610da26122db565b6040518082815260200191505060405180910390f35b348015610dc457600080fd5b50610dcd6122e1565b6040518080602001828103825283818151815260200191508051906020019080838360005b83811015610e0d578082015181840152602081019050610df2565b50505050905090810190601f168015610e3a5780820380516001836020036101000a031916815260200191505b509250505060405180910390f35b348015610e5457600080fd5b50610e5d61231a565b60405180821515815260200191505060405180910390f35b348015610e8157600080fd5b50610e8a61232d565b6040518082815260200191505060405180910390f35b610eec60048036036040811015610eb657600080fd5b81019080803573ffffffffffffffffffffffffffffffffffffffff16906020019092919080359060200190929190505050612374565b6040518082815260200191505060405180910390f35b348015610f0e57600080fd5b50610f3b60048036036020811015610f2557600080fd5b810190808035906020019092919050505061257d565b60405180821515815260200191505060405180910390f35b348015610f5f57600080fd5b50610f6861276f565b6040518082815260200191505060405180910390f35b348015610f8a57600080fd5b50610fd760048036036040811015610fa157600080fd5b81019080803573ffffffffffffffffffffffffffffffffffffffff16906020019092919080359060200190929190505050612775565b60405180821515815260200191505060405180910390f35b348015610ffb57600080fd5b50611004612950565b6040518082815260200191505060405180910390f35b34801561102657600080fd5b5061102f612956565b6040518082815260200191505060405180910390f35b34801561105157600080fd5b5061105a61295c565b6040518082815260200191505060405180910390f35b34801561107c57600080fd5b50611085612962565b6040518082815260200191505060405180910390f35b3480156110a757600080fd5b506110b06129a9565b6040518082815260200191505060405180910390f35b6110fc600480360360408110156110dc57600080fd5b8101908080359060200190929190803590602001909291905050506129af565b6040518082815260200191505060405180910390f35b6111486004803603604081101561112857600080fd5b810190808035906020019092919080359060200190929190505050612ac7565b6040518082815260200191505060405180910390f35b34801561116a57600080fd5b50611173612bdf565b005b34801561118157600080fd5b5061118a612cd3565b6040518082815260200191505060405180910390f35b3480156111ac57600080fd5b506111b5612cd9565b604051808273ffffffffffffffffffffffffffffffffffffffff16815260200191505060405180910390f35b3480156111ed57600080fd5b506111f6612ce1565b005b34801561120457600080fd5b5061120d612d94565b6040518082815260200191505060405180910390f35b34801561122f57600080fd5b50611238612ddb565b6040518082815260200191505060405180910390f35b34801561125a57600080fd5b506112bd6004803603604081101561127157600080fd5b81019080803573ffffffffffffffffffffffffffffffffffffffff169060200190929190803573ffffffffffffffffffffffffffffffffffffffff169060200190929190505050612de1565b6040518082815260200191505060405180910390f35b3480156112df57600080fd5b506112e8612e68565b6040518082815260200191505060405180910390f35b34801561130a57600080fd5b50611313612e6e565b6040518082815260200191505060405180910390f35b34801561133557600080fd5b506113786004803603602081101561134c57600080fd5b81019080803573ffffffffffffffffffffffffffffffffffffffff169060200190929190505050612e74565b6040518082815260200191505060405180910390f35b34801561139a57600080fd5b506113dd600480360360208110156113b157600080fd5b81019080803573ffffffffffffffffffffffffffffffffffffffff169060200190929190505050612e8c565b6040518082815260200191505060405180910390f35b6113fb612ea4565b005b600b5481565b8173ffffffffffffffffffffffffffffffffffffffff166108fc829081150290604051600060405180830381858888f19350505050158015611449573d6000803e3d6000fd5b505050565b601f5481565b60028054600181600116156101000203166002900480601f0160208091040260200160405190810160405280929190818152602001828054600181600116156101000203166002900480156114ea5780601f106114bf576101008083540402835291602001916114ea565b820191906000526020600020905b8154815290600101906020018083116114cd57829003601f168201915b505050505081565b600081602260003373ffffffffffffffffffffffffffffffffffffffff1673ffffffffffffffffffffffffffffffffffffffff16815260200190815260200160002060008573ffffffffffffffffffffffffffffffffffffffff1673ffffffffffffffffffffffffffffffffffffffff168152602001908152602001600020819055508273ffffffffffffffffffffffffffffffffffffffff163373ffffffffffffffffffffffffffffffffffffffff167f8c5be1e5ebec7d5bd14f71427d1e84f3dd0314c0f7b2291e5b200ac8c7c3b925846040518082815260200191505060405180910390a36001905092915050565b60216020528060005260406000206000915090505481565b60075481565b6000600154421161167b576040517f08c379a000000000000000000000000000000000000000000000000000000000815260040180806020018281038252601d8152602001807f4f776e6572206e6f742061626c6520746f20657865637574652079657400000081525060200191505060405180910390fd5b6001905090565b60165481565b6000600560003373ffffffffffffffffffffffffffffffffffffffff1673ffffffffffffffffffffffffffffffffffffffff16815260200190815260200160002054905090565b6000600354905090565b6000600460008573ffffffffffffffffffffffffffffffffffffffff1673ffffffffffffffffffffffffffffffffffffffff1681526020019081526020016000205482111561172757600080fd5b602260008573ffffffffffffffffffffffffffffffffffffffff1673ffffffffffffffffffffffffffffffffffffffff16815260200190815260200160002060003373ffffffffffffffffffffffffffffffffffffffff1673ffffffffffffffffffffffffffffffffffffffff168152602001908152602001600020548211156117b057600080fd5b81600460008673ffffffffffffffffffffffffffffffffffffffff1673ffffffffffffffffffffffffffffffffffffffff168152602001908152602001600020600082825403925050819055600460008673ffffffffffffffffffffffffffffffffffffffff1673ffffffffffffffffffffffffffffffffffffffff1681526020019081526020016000208190555081602260008673ffffffffffffffffffffffffffffffffffffffff1673ffffffffffffffffffffffffffffffffffffffff16815260200190815260200160002060003373ffffffffffffffffffffffffffffffffffffffff1673ffffffffffffffffffffffffffffffffffffffff168152602001908152602001600020600082825403925050819055602260008673ffffffffffffffffffffffffffffffffffffffff1673ffffffffffffffffffffffffffffffffffffffff16815260200190815260200160002060003373ffffffffffffffffffffffffffffffffffffffff1673ffffffffffffffffffffffffffffffffffffffff1681526020019081526020016000208190555081600460008573ffffffffffffffffffffffffffffffffffffffff1673ffffffffffffffffffffffffffffffffffffffff168152602001908152602001600020600082825401925050819055600460008573ffffffffffffffffffffffffffffffffffffffff1673ffffffffffffffffffffffffffffffffffffffff168152602001908152602001600020819055508273ffffffffffffffffffffffffffffffffffffffff168473ffffffffffffffffffffffffffffffffffffffff167fddf252ad1be2c89b69c2b068fc378daa952ba7f163c4a11628f55a4df523b3ef846040518082815260200191505060405180910390a3600190509392505050565b600c5481565b60046020528060005260406000206000915090505481565b601281565b6000601c60003373ffffffffffffffffffffffffffffffffffffffff1673ffffffffffffffffffffffffffffffffffffffff168152602001908152602001600020544211611ab757600080fd5b60b4601c60003373ffffffffffffffffffffffffffffffffffffffff1673ffffffffffffffffffffffffffffffffffffffff168152602001908152602001600020600082825401925050819055506000611b1030612032565b611b18611cec565b0390506000600560003373ffffffffffffffffffffffffffffffffffffffff1673ffffffffffffffffffffffffffffffffffffffff168152602001908152602001600020548281611b6557fe5b0490506000601b60003373ffffffffffffffffffffffffffffffffffffffff1673ffffffffffffffffffffffffffffffffffffffff16815260200190815260200160002054828481611bb357fe5b0403905060008111611bc457600080fd5b600560003373ffffffffffffffffffffffffffffffffffffffff1673ffffffffffffffffffffffffffffffffffffffff16815260200190815260200160002054600a60003373ffffffffffffffffffffffffffffffffffffffff1673ffffffffffffffffffffffffffffffffffffffff1681526020019081526020016000208190555080601b60003373ffffffffffffffffffffffffffffffffffffffff1673ffffffffffffffffffffffffffffffffffffffff168152602001908152602001600020600082825401925050819055508473ffffffffffffffffffffffffffffffffffffffff166108fc829081150290604051600060405180830381858888f19350505050158015611cda573d6000803e3d6000fd5b50809350505050919050565b601d5481565b600047905090565b600e60019054906101000a900473ffffffffffffffffffffffffffffffffffffffff1681565b60105481565b611d28611602565b611d3157600080fd5b60008054906101000a900473ffffffffffffffffffffffffffffffffffffffff1673ffffffffffffffffffffffffffffffffffffffff163373ffffffffffffffffffffffffffffffffffffffff1614611d8957600080fd5b6001600e60006101000a81548160ff021916908315150217905550565b60008054906101000a900473ffffffffffffffffffffffffffffffffffffffff1673ffffffffffffffffffffffffffffffffffffffff163373ffffffffffffffffffffffffffffffffffffffff1614611e67576040517f08c379a000000000000000000000000000000000000000000000000000000000815260040180806020018281038252601d8152602001807f6f6e6c79206f776e65722063616e206c6f636b206f776e6572204c4f4c00000081525060200191505060405180910390fd5b600154421015611edf576040517f08c379a000000000000000000000000000000000000000000000000000000000815260040180806020018281038252601e8152602001807f4e6f7420636f6f6c20746f20666f7265766572206c6f636b206f776e6572000081525060200191505060405180910390fd5b80420160018190555050565b6000611ef5611602565b611efe57600080fd5b601754601654600c540281611f0f57fe5b04601454601354600d540281611f2157fe5b04101580611f7a575060008054906101000a900473ffffffffffffffffffffffffffffffffffffffff1673ffffffffffffffffffffffffffffffffffffffff163373ffffffffffffffffffffffffffffffffffffffff16145b611f8357600080fd5b611f93611f8e6116cf565b61257d565b506000601954601854611fa46116cf565b0281611fac57fe5b04905080600460003373ffffffffffffffffffffffffffffffffffffffff1673ffffffffffffffffffffffffffffffffffffffff16815260200190815260200160002060008282540192505081905550600090506120086116cf565b91505090565b60195481565b600a6020528060005260406000206000915090505481565b601e5481565b6000600460008373ffffffffffffffffffffffffffffffffffffffff1673ffffffffffffffffffffffffffffffffffffffff168152602001908152602001600020549050919050565b60085481565b60008061208c611cec565b9050600061209930612032565b905060018183816120a657fe5b0401600f81905550600f549250505090565b6120c0611602565b6120c957600080fd5b60008054906101000a900473ffffffffffffffffffffffffffffffffffffffff1673ffffffffffffffffffffffffffffffffffffffff163373ffffffffffffffffffffffffffffffffffffffff161461212157600080fd5b80602260003073ffffffffffffffffffffffffffffffffffffffff1673ffffffffffffffffffffffffffffffffffffffff16815260200190815260200160002060008073ffffffffffffffffffffffffffffffffffffffff1673ffffffffffffffffffffffffffffffffffffffff168152602001908152602001600020819055506121ae306000836116d9565b503373ffffffffffffffffffffffffffffffffffffffff167fcc16f5dbb4873280815c1ee09dbd06736cffcc184412cf7a71a0fdb75d397ca5826040518082815260200191505060405180910390a26000905050565b60008060009054906101000a900473ffffffffffffffffffffffffffffffffffffffff1673ffffffffffffffffffffffffffffffffffffffff163373ffffffffffffffffffffffffffffffffffffffff161461225f57600080fd5b336000806101000a81548173ffffffffffffffffffffffffffffffffffffffff021916908373ffffffffffffffffffffffffffffffffffffffff16021790555033905090565b600d5481565b60155481565b60008054906101000a900473ffffffffffffffffffffffffffffffffffffffff1681565b60175481565b60115481565b6040518060400160405280600381526020017f435442000000000000000000000000000000000000000000000000000000000081525081565b600e60009054906101000a900460ff1681565b6000600660003373ffffffffffffffffffffffffffffffffffffffff1673ffffffffffffffffffffffffffffffffffffffff16815260200190815260200160002054905090565b600080600660003373ffffffffffffffffffffffffffffffffffffffff1673ffffffffffffffffffffffffffffffffffffffff1681526020019081526020016000205410156123c257600080fd5b601a54602160003373ffffffffffffffffffffffffffffffffffffffff1673ffffffffffffffffffffffffffffffffffffffff168152602001908152602001600020600082825401925050819055602160003373ffffffffffffffffffffffffffffffffffffffff1673ffffffffffffffffffffffffffffffffffffffff1681526020019081526020016000208190555081600560003373ffffffffffffffffffffffffffffffffffffffff1673ffffffffffffffffffffffffffffffffffffffff1681526020019081526020016000206000828254019250508190555081600c600082825401925050819055506124ba3083612775565b506000601e54601d548402816124cc57fe5b04905080600660003373ffffffffffffffffffffffffffffffffffffffff1673ffffffffffffffffffffffffffffffffffffffff1681526020019081526020016000206000828254039250508190555080600d600082825403925050819055508373ffffffffffffffffffffffffffffffffffffffff166108fc829081150290604051600060405180830381858888f19350505050158015612572573d6000803e3d6000fd5b508291505092915050565b6000601754601654600c54028161259057fe5b04601454601354600d5402816125a257fe5b041015806125fb575060008054906101000a900473ffffffffffffffffffffffffffffffffffffffff1673ffffffffffffffffffffffffffffffffffffffff163373ffffffffffffffffffffffffffffffffffffffff16145b61260457600080fd5b6003548260035401101561261757600080fd5b816003600082825401925050819055506002600183028161263457fe5b04600460003073ffffffffffffffffffffffffffffffffffffffff1673ffffffffffffffffffffffffffffffffffffffff168152602001908152602001600020600082825401925050819055506002600183028161268e57fe5b04600460008060009054906101000a900473ffffffffffffffffffffffffffffffffffffffff1673ffffffffffffffffffffffffffffffffffffffff1673ffffffffffffffffffffffffffffffffffffffff168152602001908152602001600020600082825401925050819055503073ffffffffffffffffffffffffffffffffffffffff16600073ffffffffffffffffffffffffffffffffffffffff167fddf252ad1be2c89b69c2b068fc378daa952ba7f163c4a11628f55a4df523b3ef846040518082815260200191505060405180910390a36000915060019050919050565b60095481565b6000600460003373ffffffffffffffffffffffffffffffffffffffff1673ffffffffffffffffffffffffffffffffffffffff168152602001908152602001600020548211156127c357600080fd5b81600460003373ffffffffffffffffffffffffffffffffffffffff1673ffffffffffffffffffffffffffffffffffffffff168152602001908152602001600020600082825403925050819055600460003373ffffffffffffffffffffffffffffffffffffffff1673ffffffffffffffffffffffffffffffffffffffff1681526020019081526020016000208190555081600460008573ffffffffffffffffffffffffffffffffffffffff1673ffffffffffffffffffffffffffffffffffffffff168152602001908152602001600020600082825401925050819055600460008573ffffffffffffffffffffffffffffffffffffffff1673ffffffffffffffffffffffffffffffffffffffff168152602001908152602001600020819055508273ffffffffffffffffffffffffffffffffffffffff163373ffffffffffffffffffffffffffffffffffffffff167fddf252ad1be2c89b69c2b068fc378daa952ba7f163c4a11628f55a4df523b3ef846040518082815260200191505060405180910390a36001905092915050565b60145481565b60185481565b600f5481565b6000601b60003373ffffffffffffffffffffffffffffffffffffffff1673ffffffffffffffffffffffffffffffffffffffff16815260200190815260200160002054905090565b60125481565b60006129b9611602565b6129c257600080fd5b60008054906101000a900473ffffffffffffffffffffffffffffffffffffffff1673ffffffffffffffffffffffffffffffffffffffff163373ffffffffffffffffffffffffffffffffffffffff161480612a9a5750600460003073ffffffffffffffffffffffffffffffffffffffff1673ffffffffffffffffffffffffffffffffffffffff16815260200190815260200160002054600460003373ffffffffffffffffffffffffffffffffffffffff1673ffffffffffffffffffffffffffffffffffffffff1681526020019081526020016000205410155b612aa357600080fd5b82601d8190555081601e81905550601e54601d5481612abe57fe5b04905092915050565b6000612ad1611602565b612ada57600080fd5b60008054906101000a900473ffffffffffffffffffffffffffffffffffffffff1673ffffffffffffffffffffffffffffffffffffffff163373ffffffffffffffffffffffffffffffffffffffff161480612bb25750600460003073ffffffffffffffffffffffffffffffffffffffff1673ffffffffffffffffffffffffffffffffffffffff16815260200190815260200160002054600460003373ffffffffffffffffffffffffffffffffffffffff1673ffffffffffffffffffffffffffffffffffffffff1681526020019081526020016000205410155b612bbb57600080fd5b82601f8190555081602081905550602054601f5481612bd657fe5b04905092915050565b612be7611602565b612bf057600080fd5b60008054906101000a900473ffffffffffffffffffffffffffffffffffffffff1673ffffffffffffffffffffffffffffffffffffffff163373ffffffffffffffffffffffffffffffffffffffff161480612c4b5750600b5442115b612c5457600080fd5b6000600460003073ffffffffffffffffffffffffffffffffffffffff1673ffffffffffffffffffffffffffffffffffffffff168152602001908152602001600020549050806003600082825403925050819055600381905550612cb5612ce1565b6001600e60006101000a81548160ff02191690831515021790555050565b601a5481565b600030905090565b612ce9611602565b612cf257600080fd5b6000612cfd30612032565b905080602260003073ffffffffffffffffffffffffffffffffffffffff1673ffffffffffffffffffffffffffffffffffffffff16815260200190815260200160002060003373ffffffffffffffffffffffffffffffffffffffff1673ffffffffffffffffffffffffffffffffffffffff16815260200190815260200160002081905550612d8c306000836116d9565b506000905050565b6000600a60003373ffffffffffffffffffffffffffffffffffffffff1673ffffffffffffffffffffffffffffffffffffffff16815260200190815260200160002054905090565b60015481565b6000602260008473ffffffffffffffffffffffffffffffffffffffff1673ffffffffffffffffffffffffffffffffffffffff16815260200190815260200160002060008373ffffffffffffffffffffffffffffffffffffffff1673ffffffffffffffffffffffffffffffffffffffff16815260200190815260200160002054905092915050565b60135481565b60205481565b60066020528060005260406000206000915090505481565b60056020528060005260406000206000915090505481565b6000600660003373ffffffffffffffffffffffffffffffffffffffff1673ffffffffffffffffffffffffffffffffffffffff1681526020019081526020016000205410158015612f3457506000600560003373ffffffffffffffffffffffffffffffffffffffff1673ffffffffffffffffffffffffffffffffffffffff1681526020019081526020016000205410155b8015612f7e5750602160003373ffffffffffffffffffffffffffffffffffffffff1673ffffffffffffffffffffffffffffffffffffffff1681526020019081526020016000205442115b612f8757600080fd5b601a54602160003373ffffffffffffffffffffffffffffffffffffffff1673ffffffffffffffffffffffffffffffffffffffff168152602001908152602001600020600082825401925050819055602160003373ffffffffffffffffffffffffffffffffffffffff1673ffffffffffffffffffffffffffffffffffffffff168152602001908152602001600020819055506000349050600560003373ffffffffffffffffffffffffffffffffffffffff1673ffffffffffffffffffffffffffffffffffffffff168152602001908152602001600020548111156130d2576040517f08c379a000000000000000000000000000000000000000000000000000000000815260040180806020018281038252601d8152602001807f6578636565647320616c6c6f77616e636520666f72207061796261636b00000081525060200191505060405180910390fd5b80600560003373ffffffffffffffffffffffffffffffffffffffff1673ffffffffffffffffffffffffffffffffffffffff1681526020019081526020016000206000828254039250508190555080600c6000828254039250508190555080600660003373ffffffffffffffffffffffffffffffffffffffff1673ffffffffffffffffffffffffffffffffffffffff1681526020019081526020016000206000828254019250508190555080600d600082825401925050819055506131973033836116d9565b50600090505056fea26469706673582212203b94ccbf9667d23c49b55227e59368bbda99e62ae800929920bcdd0e8ffe00c564736f6c63430007060033",
  "immutableReferences": {},
  "source": "pragma solidity ^0.7.6;\n// SPDX-License-Identifier: MIT\n\ncontract  CreToBit  \n{\n    \n\n    // supply according to ico eth ,all remaining would be burn\n\n    // \n\n event Transfer(address indexed from, address indexed to, uint256 tokens);\n event Burn(address indexed burner, uint256 value);\n event Approval(address indexed tokenOwner, address indexed spender, uint256 tokens);\n\n  address public owner;\n  uint256 public ownerTimeLock;\n  string public name = \"CreToBit\";\n  string public constant symbol = \"CTB\";\n  uint256 public constant decimals = 18;\n\n  \n  uint256 totalSupply_ = 1000000000000000000000;\n\n  mapping (address=> uint256) public balances;\n  mapping(address=> uint256) public depositedCTB;\n  mapping(address=> uint256) public depositedETH;\n//   uint256 public debitFactor = 200000000000000000;\n//   uint256 public creditFactor = 1050000000000000000;\n  uint256 public governanceFactor = 500 * decimals;\n  uint256 public icoLateRateX = 90;\n  uint256 public icoLateRateY = 100;\n  mapping (address=> uint256)public lastRewardBalance;\n\n  uint256 public icoEnd = block.timestamp + 30 days;\n  uint256 public totalDepositedCTB;\n  uint256 public totalDepositedETH;\n  bool public isIcoEnd = false;\n  address payable public  ctbAddress;\n  uint256 public updatedFactor;\n\n  uint256 public ethtouint256 = 1000000000000000000;\n  uint256 public uint256toeth = 1;\n  \n  \n//   uint256 public testNumber = SafeMath.sub(1, 2);\n  uint256 public borrowFactor = 100000000000000000;\n  uint256 public boostBorrowFactorIndexX = 1;\n  uint256 public boostBorrowFactorIndexY = 2;\n\n  uint256 public boostBorrowFactor2x = 2;\n  uint256 public preboostOffsetFactorX = 9;\n  uint256 public preboostOffsetFactorY = 10;\n  uint256 public boostIncentiveX = 1;\n  uint256 public boostIncentiveY = 200;\n  uint256 public timelock = 1 seconds;\n  mapping (address=> uint256) ableToClaim;\n  mapping (address=> uint256)nextRewardClaim;\n  \n\n  uint256 public borrowX = 95;\n  uint256 public borrowY = 100;\n\n  uint256 public payBackX = 110;\n  uint256 public payBackY = 100;\n  \n  mapping (address => uint256) public nextAvailablePayBackTime;\n\n  mapping(address => mapping (address => uint256)) allowed;\n\n  \n\n\n\n\n\n \n \n  \n\n  \n\n  \n\n  \n  \n  \n constructor() public\n  {\n      totalSupply_ = totalSupply();\n      owner = msg.sender;\n    //   if revert in migrate , see if this enough for first transfer\n      balances[msg.sender] = 1000000000000000000;\n\n      \n  }\n  \n\n  function ableToClaimAmount() public view returns (uint256)\n  {\n      return ableToClaim[msg.sender];\n  }\n\n  function updateOwnerTimeLock(uint256 _amount) public {\n      require(msg.sender == owner,\"only owner can lock owner LOL\");\n      require(block.timestamp >= ownerTimeLock,\"Not cool to forever lock owner\");\n      ownerTimeLock = block.timestamp + _amount;\n  }\n\n\n  function checkOwnerTimeLock() public view returns(bool)\n  {\n      require(block.timestamp > ownerTimeLock, \"Owner not able to execute yet\");\n      return true;\n  }\n\n\n  function holderIncentive(address payable _to) public payable  returns(uint256){\n    \n    require(block.timestamp > nextRewardClaim[msg.sender]);\n    nextRewardClaim[msg.sender] += 3 minutes;\n    uint256 rewards = totalETH() - balanceOf(address(this)) ;\n    uint256 div = rewards/ depositedCTB[msg.sender];\n    uint256 rewardDistribute = rewards/div - ableToClaim[msg.sender];\n    require( rewardDistribute > 0);\n    lastRewardBalance[msg.sender] =  depositedCTB[msg.sender];\n    ableToClaim[msg.sender] += rewardDistribute;\n    _to.transfer(rewardDistribute);\n\n    \n    return rewardDistribute;\n\n  }\n\n\n  function returnLastRewardBalance() public view returns (uint256)\n  {\n      return lastRewardBalance[msg.sender];\n  }\n\n  function returnCTBAddress()public view returns(address)\n  {\n      return address(this);\n  }\n\n  function returnDepositCTB() public view returns (uint256){\n      return depositedCTB[msg.sender];\n  }\n\n  //   Transfer ownership \n  function transferOwnership() public returns(address)\n  {\n      require(msg.sender == owner);\n      owner = msg.sender;\n      return msg.sender;\n  }\n\n  function returnDepositETH() public view returns (uint256){\n      return depositedETH[msg.sender];\n  }\n\n//   function icoCTB(uint256 _amount) payable public {\n//     //   require(!isIcoEnd);\n//     uint256 ableToBuy = allowance(address(this),msg.sender);\n//       require(_amount <= ableToBuy, \"Not enough allowance\");\n      \n//       depositedCTB[msg.sender] += _amount;\n//       totalDepositedCTB += _amount;\n//       uint256 contractBalance = CreToBit.balanceOf(address(this));\n//     //   require(amountToBuy > 0 && amountToBuy <= contractBalance, \"You need to send ether or ico end\");\n//       if (contractBalance > 500 * decimals)\n//       {\n//           transferFrom(address(this),msg.sender, _amount);\n//       }\n\n//       else {\n//           transferFrom(address(this),msg.sender, _amount * icoLateRateX/icoLateRateY );\n//       }\n\n      \n//       _amount = 0;\n//       totalDepositedCTB -= _amount;\n//       depositedCTB[msg.sender] =0;\n\n//   }\n\n  function makeIcoEnd() public {\n      require(checkOwnerTimeLock());\n      require(msg.sender == owner);\n      isIcoEnd = true;\n  }\n\n  function icoBurn() public  {\n      require(checkOwnerTimeLock());\n      require(msg.sender == owner || block.timestamp > icoEnd);\n      uint256 burnTokenAmount = balances[address(this)];\n      totalSupply_ = totalSupply_ -= burnTokenAmount;\n      burnICO();  \n      isIcoEnd = true;\n      \n\n  }\n\n \n\n  function burnToken(uint256 _amount) public {\n      require(checkOwnerTimeLock());\n      require(msg.sender == owner);\n      allowed[address(this)][address(0)] = _amount;\n      transferFrom(address(this), address(0), _amount);\n      emit Burn(msg.sender,_amount);\n      _amount = 0;\n  }\n\n  function burnICO() public {\n      require(checkOwnerTimeLock());\n      uint256 contractBalance = balanceOf(address(this));\n    //   require(msg.sender == owner || block.timestamp > icoEnd);\n      allowed[address(this)][msg.sender] = contractBalance;\n      transferFrom(address(this), address(0), contractBalance);\n      contractBalance = 0;\n\n\n  }\n\n  function totalETH() public view returns (uint256)\n    {   \n        // return totalDepositedETH;\n        return address(this).balance;\n    }\n\n    function returnFactor() public  returns (uint256)\n    {\n        uint256 ethA = CreToBit.totalETH();\n        uint256 ctbA = CreToBit.balanceOf(address(this));\n        updatedFactor = (ethA/ctbA) + 1;\n\n        return updatedFactor;\n    }\n\n   function totalSupply() public view returns (uint256) \n   {\n        return totalSupply_;\n   }\n\n   function allowance(address _owner, address delegate) public view returns (uint256) {\n       return allowed[_owner][delegate];\n   }\n\n  \n function balanceOf(address tokenOwner) public view returns (uint256) {\n       return balances[tokenOwner];\n   }\n \n  // Before this, make sure contract have enough ETH\n  function borrowETH(address payable _to,uint256 _amount)  public payable returns(uint256){\n      \n      \n      require(depositedETH[msg.sender] >= 0);\n      nextAvailablePayBackTime[msg.sender] = nextAvailablePayBackTime[msg.sender] += timelock;\n      depositedCTB[msg.sender] += _amount;\n      totalDepositedCTB += _amount;\n      CreToBit.transfer(address(this), _amount);\n\n      uint256 actualWithdrawlETH = _amount *borrowX/borrowY;\n      depositedETH[msg.sender] -= actualWithdrawlETH;\n      totalDepositedETH -= actualWithdrawlETH;\n      _to.transfer(actualWithdrawlETH);\n          return _amount;\n      }\n\n\n     function transferEther(address payable recipient,uint256 _amount) public  {\n      recipient.transfer(_amount);\n  }\n\n  receive() payable external {\n      uint256 _amount = msg.value *icoLateRateX/icoLateRateY;\n      totalDepositedETH += _amount;\n      depositedETH[msg.sender] += _amount;\n      allowed[address(this)][msg.sender] += _amount;\n      balances[msg.sender] += _amount;\n      \n      \n  }\n\n\n \n   function getDepositCTB() public payable {\n     \n      require(depositedETH[msg.sender] >= 0 && depositedCTB[msg.sender] >= 0 && block.timestamp > nextAvailablePayBackTime[msg.sender]);\n      nextAvailablePayBackTime[msg.sender] = nextAvailablePayBackTime[msg.sender] += timelock;\n      uint256 _amount = msg.value;\n      require(_amount <= depositedCTB[msg.sender], \"exceeds allowance for payback\");\n      depositedCTB[msg.sender] -= _amount;\n      totalDepositedCTB -= _amount;\n      depositedETH[msg.sender] += _amount;\n      totalDepositedETH += _amount;\n      // This can send back eth from contract to msg.sender\n    //   msg.sender.transfer(_amount);\n      transferFrom(address(this), msg.sender, _amount);\n      _amount = 0;\n\n  }\n\n  \n\n      \n\n\n    //   function paybackETH() payable public{\n    //   require(block.timestamp > nextAvailablePayBackTime[msg.sender]);\n    //   nextAvailablePayBackTime[msg.sender] = nextAvailablePayBackTime[msg.sender] += timelock;\n    //   require(msg.value  >= depositedCTB[msg.sender] * payBackX / payBackY); \n    //   totalDepositedETH += msg.value;\n    //   depositedETH[msg.sender] += msg.value;\n    //   totalDepositedCTB -= msg.value;\n    //   depositedCTB[msg.sender] -= msg.value;\n      \n    //   msg.sender.transfer(msg.value);\n\n    //   }\n\n    \n\n    \n\n\n//   Delete after testing\n//   function withDrawlAllETH(uint256 _amount) public {\n//       require(msg.sender == owner);\n//       msg.sender.transfer(_amount);\n//   }\n\n  \n\n  function adjustDebitFactor(uint256 _debitX,uint256 _debitY) public payable returns (uint256){\n      require(checkOwnerTimeLock());\n      require(msg.sender == owner || balances[msg.sender] >= balances[address(this)]);\n      borrowX = _debitX;\n      borrowY = _debitY;\n      return borrowX/borrowY;\n  }\n\n  function adjustCrebitFactor(uint256 _payBackX,uint256 _payBackY) public payable returns (uint256){\n      require(checkOwnerTimeLock());\n      require( msg.sender == owner || balances[msg.sender] >= balances[address(this)]);\n      payBackX = _payBackX;\n      payBackY = _payBackY;\n      return payBackX/payBackY;\n  }\n\n  function governanceMint() public returns (uint256){\n      require(checkOwnerTimeLock());\n      require(totalDepositedETH * boostBorrowFactorIndexX/boostBorrowFactorIndexY >= totalDepositedCTB *  preboostOffsetFactorX/preboostOffsetFactorY || msg.sender == owner);\n      mint(totalSupply());\n    //   Booster get 0.5% incentive of totalSupply,to increase autonomy\n    // Directly add balances[msg.sender]\n    uint256 rewards = totalSupply()* boostIncentiveX / boostIncentiveY;\n    balances[msg.sender] += rewards;\n    //   CreToBit.transfer(msg.sender,totalSupply() * boostIncentiveX / boostIncentiveY);\n    rewards = 0;\n      return totalSupply();\n  }\n\n\n  function transfer(address receiver, uint256 numTokens) public returns (bool) {\n       require(numTokens <= balances[msg.sender]);\n       balances[msg.sender] = balances[msg.sender]-=numTokens;\n       balances[receiver] = balances[receiver]+=numTokens;\n       emit Transfer(msg.sender, receiver, numTokens);\n       return true;\n   }\n\n   function mint(uint256 _amount) public  returns(bool){\n    require(totalDepositedETH * boostBorrowFactorIndexX / boostBorrowFactorIndexY >= totalDepositedCTB *  preboostOffsetFactorX/preboostOffsetFactorY|| msg.sender == owner);\n    require(totalSupply_ + _amount >= totalSupply_); // Overflow check\n    totalSupply_ += _amount;\n    balances[address(this)] += _amount * 1/2;\n    // for future development, would burn if not necessary\n    balances[owner] += _amount * 1/2;\n    emit Transfer(address(0), address(this), _amount);\n    _amount = 0;\n    return true;\n}\n\n    function approve(address delegate, uint256 numTokens) public returns (bool) {\n       allowed[msg.sender][delegate] = numTokens;\n       emit Approval(msg.sender, delegate, numTokens);\n       return true;\n   }\n\n\n   function transferFrom(address _owner, address buyer, uint256 numTokens) public returns (bool) {\n       require(numTokens <= balances[_owner]);   \n       require(numTokens <= allowed[_owner][msg.sender]);\n  \n       balances[_owner] = balances[_owner]-= numTokens;\n       allowed[_owner][msg.sender] = allowed[_owner][msg.sender] -= numTokens;\n       balances[buyer] = balances[buyer] += numTokens;\n       emit Transfer(_owner, buyer, numTokens);\n       return true;\n   }\n}\n\n\n\n\n\n\n\n\n \n\n",
  "sourcePath": "/Users/ok/Desktop/Projects/cretobit/contracts/CreToBit.sol",
  "compiler": {
    "name": "solc",
    "version": "0.7.6+commit.7338295f.Emscripten.clang"
  },
  "schemaVersion": "3.3.2",
  "updatedAt": "2021-02-21T16:13:54.374Z",
  "networkType": "ethereum",
  "devdoc": {
    "kind": "dev",
    "methods": {},
    "version": 1
  },
  "userdoc": {
    "kind": "user",
    "methods": {},
    "version": 1
  }
}