{
  "contractName": "CreToBit",
  "abi": [
    {
      "inputs": [],
      "stateMutability": "nonpayable",
      "type": "constructor"
    },
    {
      "anonymous": false,
      "inputs": [
        {
          "indexed": true,
          "internalType": "address",
          "name": "tokenOwner",
          "type": "address"
        },
        {
          "indexed": true,
          "internalType": "address",
          "name": "spender",
          "type": "address"
        },
        {
          "indexed": false,
          "internalType": "uint256",
          "name": "tokens",
          "type": "uint256"
        }
      ],
      "name": "Approval",
      "type": "event"
    },
    {
      "anonymous": false,
      "inputs": [
        {
          "indexed": true,
          "internalType": "address",
          "name": "burner",
          "type": "address"
        },
        {
          "indexed": false,
          "internalType": "uint256",
          "name": "value",
          "type": "uint256"
        }
      ],
      "name": "Burn",
      "type": "event"
    },
    {
      "anonymous": false,
      "inputs": [
        {
          "indexed": true,
          "internalType": "address",
          "name": "from",
          "type": "address"
        },
        {
          "indexed": true,
          "internalType": "address",
          "name": "to",
          "type": "address"
        },
        {
          "indexed": false,
          "internalType": "uint256",
          "name": "tokens",
          "type": "uint256"
        }
      ],
      "name": "Transfer",
      "type": "event"
    },
    {
      "inputs": [
        {
          "internalType": "address",
          "name": "",
          "type": "address"
        }
      ],
      "name": "balances",
      "outputs": [
        {
          "internalType": "uint256",
          "name": "",
          "type": "uint256"
        }
      ],
      "stateMutability": "view",
      "type": "function",
      "constant": true
    },
    {
      "inputs": [],
      "name": "boostBorrowFactor2x",
      "outputs": [
        {
          "internalType": "uint256",
          "name": "",
          "type": "uint256"
        }
      ],
      "stateMutability": "view",
      "type": "function",
      "constant": true
    },
    {
      "inputs": [],
      "name": "boostBorrowFactorIndexX",
      "outputs": [
        {
          "internalType": "uint256",
          "name": "",
          "type": "uint256"
        }
      ],
      "stateMutability": "view",
      "type": "function",
      "constant": true
    },
    {
      "inputs": [],
      "name": "boostBorrowFactorIndexY",
      "outputs": [
        {
          "internalType": "uint256",
          "name": "",
          "type": "uint256"
        }
      ],
      "stateMutability": "view",
      "type": "function",
      "constant": true
    },
    {
      "inputs": [],
      "name": "boostIncentiveX",
      "outputs": [
        {
          "internalType": "uint256",
          "name": "",
          "type": "uint256"
        }
      ],
      "stateMutability": "view",
      "type": "function",
      "constant": true
    },
    {
      "inputs": [],
      "name": "boostIncentiveY",
      "outputs": [
        {
          "internalType": "uint256",
          "name": "",
          "type": "uint256"
        }
      ],
      "stateMutability": "view",
      "type": "function",
      "constant": true
    },
    {
      "inputs": [],
      "name": "borrowFactor",
      "outputs": [
        {
          "internalType": "uint256",
          "name": "",
          "type": "uint256"
        }
      ],
      "stateMutability": "view",
      "type": "function",
      "constant": true
    },
    {
      "inputs": [],
      "name": "borrowX",
      "outputs": [
        {
          "internalType": "uint256",
          "name": "",
          "type": "uint256"
        }
      ],
      "stateMutability": "view",
      "type": "function",
      "constant": true
    },
    {
      "inputs": [],
      "name": "borrowY",
      "outputs": [
        {
          "internalType": "uint256",
          "name": "",
          "type": "uint256"
        }
      ],
      "stateMutability": "view",
      "type": "function",
      "constant": true
    },
    {
      "inputs": [],
      "name": "ctbAddress",
      "outputs": [
        {
          "internalType": "address payable",
          "name": "",
          "type": "address"
        }
      ],
      "stateMutability": "view",
      "type": "function",
      "constant": true
    },
    {
      "inputs": [],
      "name": "decimals",
      "outputs": [
        {
          "internalType": "uint256",
          "name": "",
          "type": "uint256"
        }
      ],
      "stateMutability": "view",
      "type": "function",
      "constant": true
    },
    {
      "inputs": [
        {
          "internalType": "address",
          "name": "",
          "type": "address"
        }
      ],
      "name": "depositedCTB",
      "outputs": [
        {
          "internalType": "uint256",
          "name": "",
          "type": "uint256"
        }
      ],
      "stateMutability": "view",
      "type": "function",
      "constant": true
    },
    {
      "inputs": [
        {
          "internalType": "address",
          "name": "",
          "type": "address"
        }
      ],
      "name": "depositedETH",
      "outputs": [
        {
          "internalType": "uint256",
          "name": "",
          "type": "uint256"
        }
      ],
      "stateMutability": "view",
      "type": "function",
      "constant": true
    },
    {
      "inputs": [],
      "name": "ethtouint256",
      "outputs": [
        {
          "internalType": "uint256",
          "name": "",
          "type": "uint256"
        }
      ],
      "stateMutability": "view",
      "type": "function",
      "constant": true
    },
    {
      "inputs": [],
      "name": "governanceFactor",
      "outputs": [
        {
          "internalType": "uint256",
          "name": "",
          "type": "uint256"
        }
      ],
      "stateMutability": "view",
      "type": "function",
      "constant": true
    },
    {
      "inputs": [],
      "name": "icoEnd",
      "outputs": [
        {
          "internalType": "uint256",
          "name": "",
          "type": "uint256"
        }
      ],
      "stateMutability": "view",
      "type": "function",
      "constant": true
    },
    {
      "inputs": [],
      "name": "icoLateRateX",
      "outputs": [
        {
          "internalType": "uint256",
          "name": "",
          "type": "uint256"
        }
      ],
      "stateMutability": "view",
      "type": "function",
      "constant": true
    },
    {
      "inputs": [],
      "name": "icoLateRateY",
      "outputs": [
        {
          "internalType": "uint256",
          "name": "",
          "type": "uint256"
        }
      ],
      "stateMutability": "view",
      "type": "function",
      "constant": true
    },
    {
      "inputs": [],
      "name": "isIcoEnd",
      "outputs": [
        {
          "internalType": "bool",
          "name": "",
          "type": "bool"
        }
      ],
      "stateMutability": "view",
      "type": "function",
      "constant": true
    },
    {
      "inputs": [
        {
          "internalType": "address",
          "name": "",
          "type": "address"
        }
      ],
      "name": "lastRewardBalance",
      "outputs": [
        {
          "internalType": "uint256",
          "name": "",
          "type": "uint256"
        }
      ],
      "stateMutability": "view",
      "type": "function",
      "constant": true
    },
    {
      "inputs": [],
      "name": "name",
      "outputs": [
        {
          "internalType": "string",
          "name": "",
          "type": "string"
        }
      ],
      "stateMutability": "view",
      "type": "function",
      "constant": true
    },
    {
      "inputs": [
        {
          "internalType": "address",
          "name": "",
          "type": "address"
        }
      ],
      "name": "nextAvailablePayBackTime",
      "outputs": [
        {
          "internalType": "uint256",
          "name": "",
          "type": "uint256"
        }
      ],
      "stateMutability": "view",
      "type": "function",
      "constant": true
    },
    {
      "inputs": [],
      "name": "owner",
      "outputs": [
        {
          "internalType": "address",
          "name": "",
          "type": "address"
        }
      ],
      "stateMutability": "view",
      "type": "function",
      "constant": true
    },
    {
      "inputs": [],
      "name": "payBackX",
      "outputs": [
        {
          "internalType": "uint256",
          "name": "",
          "type": "uint256"
        }
      ],
      "stateMutability": "view",
      "type": "function",
      "constant": true
    },
    {
      "inputs": [],
      "name": "payBackY",
      "outputs": [
        {
          "internalType": "uint256",
          "name": "",
          "type": "uint256"
        }
      ],
      "stateMutability": "view",
      "type": "function",
      "constant": true
    },
    {
      "inputs": [],
      "name": "preboostOffsetFactorX",
      "outputs": [
        {
          "internalType": "uint256",
          "name": "",
          "type": "uint256"
        }
      ],
      "stateMutability": "view",
      "type": "function",
      "constant": true
    },
    {
      "inputs": [],
      "name": "preboostOffsetFactorY",
      "outputs": [
        {
          "internalType": "uint256",
          "name": "",
          "type": "uint256"
        }
      ],
      "stateMutability": "view",
      "type": "function",
      "constant": true
    },
    {
      "inputs": [],
      "name": "symbol",
      "outputs": [
        {
          "internalType": "string",
          "name": "",
          "type": "string"
        }
      ],
      "stateMutability": "view",
      "type": "function",
      "constant": true
    },
    {
      "inputs": [],
      "name": "timelock",
      "outputs": [
        {
          "internalType": "uint256",
          "name": "",
          "type": "uint256"
        }
      ],
      "stateMutability": "view",
      "type": "function",
      "constant": true
    },
    {
      "inputs": [],
      "name": "totalDepositedCTB",
      "outputs": [
        {
          "internalType": "uint256",
          "name": "",
          "type": "uint256"
        }
      ],
      "stateMutability": "view",
      "type": "function",
      "constant": true
    },
    {
      "inputs": [],
      "name": "totalDepositedETH",
      "outputs": [
        {
          "internalType": "uint256",
          "name": "",
          "type": "uint256"
        }
      ],
      "stateMutability": "view",
      "type": "function",
      "constant": true
    },
    {
      "inputs": [],
      "name": "uint256toeth",
      "outputs": [
        {
          "internalType": "uint256",
          "name": "",
          "type": "uint256"
        }
      ],
      "stateMutability": "view",
      "type": "function",
      "constant": true
    },
    {
      "inputs": [],
      "name": "updatedFactor",
      "outputs": [
        {
          "internalType": "uint256",
          "name": "",
          "type": "uint256"
        }
      ],
      "stateMutability": "view",
      "type": "function",
      "constant": true
    },
    {
      "stateMutability": "payable",
      "type": "receive",
      "payable": true
    },
    {
      "inputs": [],
      "name": "ableToClaimAmount",
      "outputs": [
        {
          "internalType": "uint256",
          "name": "",
          "type": "uint256"
        }
      ],
      "stateMutability": "view",
      "type": "function",
      "constant": true
    },
    {
      "inputs": [
        {
          "internalType": "address payable",
          "name": "_to",
          "type": "address"
        }
      ],
      "name": "holderIncentive",
      "outputs": [
        {
          "internalType": "uint256",
          "name": "",
          "type": "uint256"
        }
      ],
      "stateMutability": "payable",
      "type": "function",
      "payable": true
    },
    {
      "inputs": [],
      "name": "returnLastRewardBalance",
      "outputs": [
        {
          "internalType": "uint256",
          "name": "",
          "type": "uint256"
        }
      ],
      "stateMutability": "view",
      "type": "function",
      "constant": true
    },
    {
      "inputs": [],
      "name": "returnCTBAddress",
      "outputs": [
        {
          "internalType": "address",
          "name": "",
          "type": "address"
        }
      ],
      "stateMutability": "view",
      "type": "function",
      "constant": true
    },
    {
      "inputs": [],
      "name": "returnDepositCTB",
      "outputs": [
        {
          "internalType": "uint256",
          "name": "",
          "type": "uint256"
        }
      ],
      "stateMutability": "view",
      "type": "function",
      "constant": true
    },
    {
      "inputs": [],
      "name": "transferOwnership",
      "outputs": [
        {
          "internalType": "address",
          "name": "",
          "type": "address"
        }
      ],
      "stateMutability": "nonpayable",
      "type": "function"
    },
    {
      "inputs": [],
      "name": "returnDepositETH",
      "outputs": [
        {
          "internalType": "uint256",
          "name": "",
          "type": "uint256"
        }
      ],
      "stateMutability": "view",
      "type": "function",
      "constant": true
    },
    {
      "inputs": [
        {
          "internalType": "uint256",
          "name": "_amount",
          "type": "uint256"
        }
      ],
      "name": "icoCTB",
      "outputs": [],
      "stateMutability": "payable",
      "type": "function",
      "payable": true
    },
    {
      "inputs": [],
      "name": "makeIcoEnd",
      "outputs": [],
      "stateMutability": "nonpayable",
      "type": "function"
    },
    {
      "inputs": [],
      "name": "icoBurn",
      "outputs": [],
      "stateMutability": "nonpayable",
      "type": "function"
    },
    {
      "inputs": [
        {
          "internalType": "uint256",
          "name": "_amount",
          "type": "uint256"
        }
      ],
      "name": "burnToken",
      "outputs": [],
      "stateMutability": "nonpayable",
      "type": "function"
    },
    {
      "inputs": [],
      "name": "totalETH",
      "outputs": [
        {
          "internalType": "uint256",
          "name": "",
          "type": "uint256"
        }
      ],
      "stateMutability": "view",
      "type": "function",
      "constant": true
    },
    {
      "inputs": [],
      "name": "returnFactor",
      "outputs": [
        {
          "internalType": "uint256",
          "name": "",
          "type": "uint256"
        }
      ],
      "stateMutability": "nonpayable",
      "type": "function"
    },
    {
      "inputs": [],
      "name": "totalSupply",
      "outputs": [
        {
          "internalType": "uint256",
          "name": "",
          "type": "uint256"
        }
      ],
      "stateMutability": "view",
      "type": "function",
      "constant": true
    },
    {
      "inputs": [
        {
          "internalType": "address",
          "name": "_owner",
          "type": "address"
        },
        {
          "internalType": "address",
          "name": "delegate",
          "type": "address"
        }
      ],
      "name": "allowance",
      "outputs": [
        {
          "internalType": "uint256",
          "name": "",
          "type": "uint256"
        }
      ],
      "stateMutability": "view",
      "type": "function",
      "constant": true
    },
    {
      "inputs": [
        {
          "internalType": "address",
          "name": "tokenOwner",
          "type": "address"
        }
      ],
      "name": "balanceOf",
      "outputs": [
        {
          "internalType": "uint256",
          "name": "",
          "type": "uint256"
        }
      ],
      "stateMutability": "view",
      "type": "function",
      "constant": true
    },
    {
      "inputs": [
        {
          "internalType": "address payable",
          "name": "_to",
          "type": "address"
        },
        {
          "internalType": "uint256",
          "name": "_amount",
          "type": "uint256"
        }
      ],
      "name": "borrowETH",
      "outputs": [
        {
          "internalType": "uint256",
          "name": "",
          "type": "uint256"
        }
      ],
      "stateMutability": "payable",
      "type": "function",
      "payable": true
    },
    {
      "inputs": [
        {
          "internalType": "address payable",
          "name": "recipient",
          "type": "address"
        },
        {
          "internalType": "uint256",
          "name": "_amount",
          "type": "uint256"
        }
      ],
      "name": "transferEther",
      "outputs": [],
      "stateMutability": "nonpayable",
      "type": "function"
    },
    {
      "inputs": [],
      "name": "getDepositCTB",
      "outputs": [],
      "stateMutability": "payable",
      "type": "function",
      "payable": true
    },
    {
      "inputs": [
        {
          "internalType": "uint256",
          "name": "_debitX",
          "type": "uint256"
        },
        {
          "internalType": "uint256",
          "name": "_debitY",
          "type": "uint256"
        }
      ],
      "name": "adjustDebitFactor",
      "outputs": [
        {
          "internalType": "uint256",
          "name": "",
          "type": "uint256"
        }
      ],
      "stateMutability": "payable",
      "type": "function",
      "payable": true
    },
    {
      "inputs": [
        {
          "internalType": "uint256",
          "name": "_payBackX",
          "type": "uint256"
        },
        {
          "internalType": "uint256",
          "name": "_payBackY",
          "type": "uint256"
        }
      ],
      "name": "adjustCrebitFactor",
      "outputs": [
        {
          "internalType": "uint256",
          "name": "",
          "type": "uint256"
        }
      ],
      "stateMutability": "payable",
      "type": "function",
      "payable": true
    },
    {
      "inputs": [],
      "name": "governanceMint",
      "outputs": [
        {
          "internalType": "uint256",
          "name": "",
          "type": "uint256"
        }
      ],
      "stateMutability": "nonpayable",
      "type": "function"
    },
    {
      "inputs": [
        {
          "internalType": "address",
          "name": "receiver",
          "type": "address"
        },
        {
          "internalType": "uint256",
          "name": "numTokens",
          "type": "uint256"
        }
      ],
      "name": "transfer",
      "outputs": [
        {
          "internalType": "bool",
          "name": "",
          "type": "bool"
        }
      ],
      "stateMutability": "nonpayable",
      "type": "function"
    },
    {
      "inputs": [
        {
          "internalType": "uint256",
          "name": "_amount",
          "type": "uint256"
        }
      ],
      "name": "mint",
      "outputs": [
        {
          "internalType": "bool",
          "name": "",
          "type": "bool"
        }
      ],
      "stateMutability": "nonpayable",
      "type": "function"
    },
    {
      "inputs": [
        {
          "internalType": "address",
          "name": "delegate",
          "type": "address"
        },
        {
          "internalType": "uint256",
          "name": "numTokens",
          "type": "uint256"
        }
      ],
      "name": "approve",
      "outputs": [
        {
          "internalType": "bool",
          "name": "",
          "type": "bool"
        }
      ],
      "stateMutability": "nonpayable",
      "type": "function"
    },
    {
      "inputs": [
        {
          "internalType": "address",
          "name": "_owner",
          "type": "address"
        },
        {
          "internalType": "address",
          "name": "buyer",
          "type": "address"
        },
        {
          "internalType": "uint256",
          "name": "numTokens",
          "type": "uint256"
        }
      ],
      "name": "transferFrom",
      "outputs": [
        {
          "internalType": "bool",
          "name": "",
          "type": "bool"
        }
      ],
      "stateMutability": "nonpayable",
      "type": "function"
    }
  ],
  "bytecode": "0x60806040526040518060400160405280600881526020017f437265546f4269740000000000000000000000000000000000000000000000008152506001908051906020019062000051929190620001af565b50683635c9adc5dea0000060025560126101f402600655605a600755606460085562278d004201600a556000600d60006101000a81548160ff021916908315150217905550670de0b6b3a7640000600f55600160105567016345785d8a00006011556001601255600260135560026014556009601555600a601655600160175560c86018556001601955605f601c556064601d55606e601e556064601f55348015620000fc57600080fd5b506200010d620001a560201b60201c565b600281905550336000806101000a81548173ffffffffffffffffffffffffffffffffffffffff021916908373ffffffffffffffffffffffffffffffffffffffff160217905550670de0b6b3a7640000600360003373ffffffffffffffffffffffffffffffffffffffff1673ffffffffffffffffffffffffffffffffffffffff1681526020019081526020016000208190555062000265565b6000600254905090565b828054600181600116156101000203166002900490600052602060002090601f016020900481019282620001e7576000855562000233565b82601f106200020257805160ff191683800117855562000233565b8280016001018555821562000233579182015b828111156200023257825182559160200191906001019062000215565b5b50905062000242919062000246565b5090565b5b808211156200026157600081600090555060010162000247565b5090565b612fd380620002756000396000f3fe6080604052600436106103905760003560e01c8063899aa991116101dc578063bb63374611610102578063d3bff53a116100a0578063f46e1fce1161006f578063f46e1fce14611261578063f5db8bc71461128c578063f8c8b6fc146112f1578063fa994d9b14611356576104e0565b8063d3bff53a14611145578063d99409ff14611186578063dd62ed3e146111b1578063f34286cd14611236576104e0565b8063c8240a57116100dc578063c8240a571461106b578063c8de3451146110b7578063d2af782614611103578063d33219b41461111a576104e0565b8063bb63374614610fea578063c1d800f614611015578063c292614b14611040576104e0565b8063984214381161017a578063a5ce94ac11610149578063a5ce94ac14610ef8578063a9059cbb14610f23578063a9b78b5614610f94578063b5fa88d714610fbf576104e0565b80639842143814610dec578063990531f214610e175780639fb2ac2514610e45578063a0712d6814610ea7576104e0565b806392eac1f3116101b657806392eac1f314610cd957806394e7dbb914610d0457806395d89b4114610d2f5780639835c63814610dbf576104e0565b8063899aa99114610c425780638d95c7b514610c6d5780638da5cb5b14610c98576104e0565b8063332d1a38116102c15780635b39045e1161025f578063757116ea1161022e578063757116ea14610b70578063774e304214610b9b5780637b47ec1a14610bc6578063880ad0af14610c01576104e0565b80635b39045e14610a505780635fc0d9e014610a7b5780636fc88f9114610ae057806370a0823114610b0b576104e0565b8063392082861161029b57806339208286146109a25780633ac27422146109e35780633d96e6d714610a0e578063571d830414610a25576104e0565b8063332d1a38146108f4578063357a101f1461094c57806336bdee7414610977576104e0565b806312714bac1161032e57806323b872dd1161030857806323b872dd146107a857806326eef3ac1461083957806327e235e314610864578063313ce567146108c9576104e0565b806312714bac146107275780631754715c1461075257806318160ddd1461077d576104e0565b806306fdde031161036a57806306fdde0314610596578063095ea7b3146106265780630bf66a2f14610697578063115cf01e146106fc576104e0565b80630563451a146104e557806305b1137b1461051057806306dc51a21461056b576104e0565b366104e05760006008546007543402816103a657fe5b04905080600c6000828254019250508190555080600560003373ffffffffffffffffffffffffffffffffffffffff1673ffffffffffffffffffffffffffffffffffffffff1681526020019081526020016000206000828254019250508190555080602160003073ffffffffffffffffffffffffffffffffffffffff1673ffffffffffffffffffffffffffffffffffffffff16815260200190815260200160002060003373ffffffffffffffffffffffffffffffffffffffff1673ffffffffffffffffffffffffffffffffffffffff1681526020019081526020016000206000828254019250508190555080600360003373ffffffffffffffffffffffffffffffffffffffff1673ffffffffffffffffffffffffffffffffffffffff1681526020019081526020016000206000828254019250508190555050005b600080fd5b3480156104f157600080fd5b506104fa611360565b6040518082815260200191505060405180910390f35b34801561051c57600080fd5b506105696004803603604081101561053357600080fd5b81019080803573ffffffffffffffffffffffffffffffffffffffff16906020019092919080359060200190929190505050611366565b005b34801561057757600080fd5b506105806113b1565b6040518082815260200191505060405180910390f35b3480156105a257600080fd5b506105ab6113b7565b6040518080602001828103825283818151815260200191508051906020019080838360005b838110156105eb5780820151818401526020810190506105d0565b50505050905090810190601f1680156106185780820380516001836020036101000a031916815260200191505b509250505060405180910390f35b34801561063257600080fd5b5061067f6004803603604081101561064957600080fd5b81019080803573ffffffffffffffffffffffffffffffffffffffff16906020019092919080359060200190929190505050611455565b60405180821515815260200191505060405180910390f35b3480156106a357600080fd5b506106e6600480360360208110156106ba57600080fd5b81019080803573ffffffffffffffffffffffffffffffffffffffff169060200190929190505050611547565b6040518082815260200191505060405180910390f35b34801561070857600080fd5b5061071161155e565b6040518082815260200191505060405180910390f35b34801561073357600080fd5b5061073c611564565b6040518082815260200191505060405180910390f35b34801561075e57600080fd5b5061076761156a565b6040518082815260200191505060405180910390f35b34801561078957600080fd5b506107926115b1565b6040518082815260200191505060405180910390f35b3480156107b457600080fd5b50610821600480360360608110156107cb57600080fd5b81019080803573ffffffffffffffffffffffffffffffffffffffff169060200190929190803573ffffffffffffffffffffffffffffffffffffffff169060200190929190803590602001909291905050506115bb565b60405180821515815260200191505060405180910390f35b34801561084557600080fd5b5061084e611929565b6040518082815260200191505060405180910390f35b34801561087057600080fd5b506108b36004803603602081101561088757600080fd5b81019080803573ffffffffffffffffffffffffffffffffffffffff16906020019092919050505061192f565b6040518082815260200191505060405180910390f35b3480156108d557600080fd5b506108de611947565b6040518082815260200191505060405180910390f35b6109366004803603602081101561090a57600080fd5b81019080803573ffffffffffffffffffffffffffffffffffffffff16906020019092919050505061194c565b6040518082815260200191505060405180910390f35b34801561095857600080fd5b50610961611bc8565b6040518082815260200191505060405180910390f35b34801561098357600080fd5b5061098c611bce565b6040518082815260200191505060405180910390f35b3480156109ae57600080fd5b506109b7611bd6565b604051808273ffffffffffffffffffffffffffffffffffffffff16815260200191505060405180910390f35b3480156109ef57600080fd5b506109f8611bfc565b6040518082815260200191505060405180910390f35b348015610a1a57600080fd5b50610a23611c02565b005b348015610a3157600080fd5b50610a3a611c77565b6040518082815260200191505060405180910390f35b348015610a5c57600080fd5b50610a65611d89565b6040518082815260200191505060405180910390f35b348015610a8757600080fd5b50610aca60048036036020811015610a9e57600080fd5b81019080803573ffffffffffffffffffffffffffffffffffffffff169060200190929190505050611d8f565b6040518082815260200191505060405180910390f35b348015610aec57600080fd5b50610af5611da7565b6040518082815260200191505060405180910390f35b348015610b1757600080fd5b50610b5a60048036036020811015610b2e57600080fd5b81019080803573ffffffffffffffffffffffffffffffffffffffff169060200190929190505050611dad565b6040518082815260200191505060405180910390f35b348015610b7c57600080fd5b50610b85611df6565b6040518082815260200191505060405180910390f35b348015610ba757600080fd5b50610bb0611dfc565b6040518082815260200191505060405180910390f35b348015610bd257600080fd5b50610bff60048036036020811015610be957600080fd5b8101908080359060200190929190505050611e33565b005b348015610c0d57600080fd5b50610c16611f42565b604051808273ffffffffffffffffffffffffffffffffffffffff16815260200191505060405180910390f35b348015610c4e57600080fd5b50610c57611fe3565b6040518082815260200191505060405180910390f35b348015610c7957600080fd5b50610c82611fe9565b6040518082815260200191505060405180910390f35b348015610ca457600080fd5b50610cad611fef565b604051808273ffffffffffffffffffffffffffffffffffffffff16815260200191505060405180910390f35b348015610ce557600080fd5b50610cee612013565b6040518082815260200191505060405180910390f35b348015610d1057600080fd5b50610d19612019565b6040518082815260200191505060405180910390f35b348015610d3b57600080fd5b50610d4461201f565b6040518080602001828103825283818151815260200191508051906020019080838360005b83811015610d84578082015181840152602081019050610d69565b50505050905090810190601f168015610db15780820380516001836020036101000a031916815260200191505b509250505060405180910390f35b348015610dcb57600080fd5b50610dd4612058565b60405180821515815260200191505060405180910390f35b348015610df857600080fd5b50610e0161206b565b6040518082815260200191505060405180910390f35b610e4360048036036020811015610e2d57600080fd5b81019080803590602001909291905050506120b2565b005b610e9160048036036040811015610e5b57600080fd5b81019080803573ffffffffffffffffffffffffffffffffffffffff16906020019092919080359060200190929190505050612238565b6040518082815260200191505060405180910390f35b348015610eb357600080fd5b50610ee060048036036020811015610eca57600080fd5b8101908080359060200190929190505050612441565b60405180821515815260200191505060405180910390f35b348015610f0457600080fd5b50610f0d6125ab565b6040518082815260200191505060405180910390f35b348015610f2f57600080fd5b50610f7c60048036036040811015610f4657600080fd5b81019080803573ffffffffffffffffffffffffffffffffffffffff169060200190929190803590602001909291905050506125b1565b60405180821515815260200191505060405180910390f35b348015610fa057600080fd5b50610fa961278c565b6040518082815260200191505060405180910390f35b348015610fcb57600080fd5b50610fd4612792565b6040518082815260200191505060405180910390f35b348015610ff657600080fd5b50610fff612798565b6040518082815260200191505060405180910390f35b34801561102157600080fd5b5061102a61279e565b6040518082815260200191505060405180910390f35b34801561104c57600080fd5b506110556127e5565b6040518082815260200191505060405180910390f35b6110a16004803603604081101561108157600080fd5b8101908080359060200190929190803590602001909291905050506127eb565b6040518082815260200191505060405180910390f35b6110ed600480360360408110156110cd57600080fd5b8101908080359060200190929190803590602001909291905050506128f3565b6040518082815260200191505060405180910390f35b34801561110f57600080fd5b506111186129fb565b005b34801561112657600080fd5b5061112f612b8a565b6040518082815260200191505060405180910390f35b34801561115157600080fd5b5061115a612b90565b604051808273ffffffffffffffffffffffffffffffffffffffff16815260200191505060405180910390f35b34801561119257600080fd5b5061119b612b98565b6040518082815260200191505060405180910390f35b3480156111bd57600080fd5b50611220600480360360408110156111d457600080fd5b81019080803573ffffffffffffffffffffffffffffffffffffffff169060200190929190803573ffffffffffffffffffffffffffffffffffffffff169060200190929190505050612bdf565b6040518082815260200191505060405180910390f35b34801561124257600080fd5b5061124b612c66565b6040518082815260200191505060405180910390f35b34801561126d57600080fd5b50611276612c6c565b6040518082815260200191505060405180910390f35b34801561129857600080fd5b506112db600480360360208110156112af57600080fd5b81019080803573ffffffffffffffffffffffffffffffffffffffff169060200190929190505050612c72565b6040518082815260200191505060405180910390f35b3480156112fd57600080fd5b506113406004803603602081101561131457600080fd5b81019080803573ffffffffffffffffffffffffffffffffffffffff169060200190929190505050612c8a565b6040518082815260200191505060405180910390f35b61135e612ca2565b005b600a5481565b8173ffffffffffffffffffffffffffffffffffffffff166108fc829081150290604051600060405180830381858888f193505050501580156113ac573d6000803e3d6000fd5b505050565b601e5481565b60018054600181600116156101000203166002900480601f01602080910402602001604051908101604052809291908181526020018280546001816001161561010002031660029004801561144d5780601f106114225761010080835404028352916020019161144d565b820191906000526020600020905b81548152906001019060200180831161143057829003601f168201915b505050505081565b600081602160003373ffffffffffffffffffffffffffffffffffffffff1673ffffffffffffffffffffffffffffffffffffffff16815260200190815260200160002060008573ffffffffffffffffffffffffffffffffffffffff1673ffffffffffffffffffffffffffffffffffffffff168152602001908152602001600020819055508273ffffffffffffffffffffffffffffffffffffffff163373ffffffffffffffffffffffffffffffffffffffff167f8c5be1e5ebec7d5bd14f71427d1e84f3dd0314c0f7b2291e5b200ac8c7c3b925846040518082815260200191505060405180910390a36001905092915050565b602080528060005260406000206000915090505481565b60065481565b60155481565b6000600460003373ffffffffffffffffffffffffffffffffffffffff1673ffffffffffffffffffffffffffffffffffffffff16815260200190815260200160002054905090565b6000600254905090565b6000600360008573ffffffffffffffffffffffffffffffffffffffff1673ffffffffffffffffffffffffffffffffffffffff1681526020019081526020016000205482111561160957600080fd5b602160008573ffffffffffffffffffffffffffffffffffffffff1673ffffffffffffffffffffffffffffffffffffffff16815260200190815260200160002060003373ffffffffffffffffffffffffffffffffffffffff1673ffffffffffffffffffffffffffffffffffffffff1681526020019081526020016000205482111561169257600080fd5b81600360008673ffffffffffffffffffffffffffffffffffffffff1673ffffffffffffffffffffffffffffffffffffffff168152602001908152602001600020600082825403925050819055600360008673ffffffffffffffffffffffffffffffffffffffff1673ffffffffffffffffffffffffffffffffffffffff1681526020019081526020016000208190555081602160008673ffffffffffffffffffffffffffffffffffffffff1673ffffffffffffffffffffffffffffffffffffffff16815260200190815260200160002060003373ffffffffffffffffffffffffffffffffffffffff1673ffffffffffffffffffffffffffffffffffffffff168152602001908152602001600020600082825403925050819055602160008673ffffffffffffffffffffffffffffffffffffffff1673ffffffffffffffffffffffffffffffffffffffff16815260200190815260200160002060003373ffffffffffffffffffffffffffffffffffffffff1673ffffffffffffffffffffffffffffffffffffffff1681526020019081526020016000208190555081600360008573ffffffffffffffffffffffffffffffffffffffff1673ffffffffffffffffffffffffffffffffffffffff168152602001908152602001600020600082825401925050819055600360008573ffffffffffffffffffffffffffffffffffffffff1673ffffffffffffffffffffffffffffffffffffffff168152602001908152602001600020819055508273ffffffffffffffffffffffffffffffffffffffff168473ffffffffffffffffffffffffffffffffffffffff167fddf252ad1be2c89b69c2b068fc378daa952ba7f163c4a11628f55a4df523b3ef846040518082815260200191505060405180910390a3600190509392505050565b600b5481565b60036020528060005260406000206000915090505481565b601281565b6000601b60003373ffffffffffffffffffffffffffffffffffffffff1673ffffffffffffffffffffffffffffffffffffffff16815260200190815260200160002054421161199957600080fd5b60b4601b60003373ffffffffffffffffffffffffffffffffffffffff1673ffffffffffffffffffffffffffffffffffffffff1681526020019081526020016000206000828254019250508190555060006119f230611dad565b6119fa611bce565b0390506000600460003373ffffffffffffffffffffffffffffffffffffffff1673ffffffffffffffffffffffffffffffffffffffff168152602001908152602001600020548281611a4757fe5b0490506000601a60003373ffffffffffffffffffffffffffffffffffffffff1673ffffffffffffffffffffffffffffffffffffffff16815260200190815260200160002054828481611a9557fe5b0403905060008111611aa657600080fd5b600460003373ffffffffffffffffffffffffffffffffffffffff1673ffffffffffffffffffffffffffffffffffffffff16815260200190815260200160002054600960003373ffffffffffffffffffffffffffffffffffffffff1673ffffffffffffffffffffffffffffffffffffffff1681526020019081526020016000208190555080601a60003373ffffffffffffffffffffffffffffffffffffffff1673ffffffffffffffffffffffffffffffffffffffff168152602001908152602001600020600082825401925050819055508473ffffffffffffffffffffffffffffffffffffffff166108fc829081150290604051600060405180830381858888f19350505050158015611bbc573d6000803e3d6000fd5b50809350505050919050565b601c5481565b600047905090565b600d60019054906101000a900473ffffffffffffffffffffffffffffffffffffffff1681565b600f5481565b60008054906101000a900473ffffffffffffffffffffffffffffffffffffffff1673ffffffffffffffffffffffffffffffffffffffff163373ffffffffffffffffffffffffffffffffffffffff1614611c5a57600080fd5b6001600d60006101000a81548160ff021916908315150217905550565b6000601654601554600b540281611c8a57fe5b04601354601254600c540281611c9c57fe5b04101580611cf5575060008054906101000a900473ffffffffffffffffffffffffffffffffffffffff1673ffffffffffffffffffffffffffffffffffffffff163373ffffffffffffffffffffffffffffffffffffffff16145b611cfe57600080fd5b611d0e611d096115b1565b612441565b506000601854601754611d1f6115b1565b0281611d2757fe5b04905080600360003373ffffffffffffffffffffffffffffffffffffffff1673ffffffffffffffffffffffffffffffffffffffff1681526020019081526020016000206000828254019250508190555060009050611d836115b1565b91505090565b60185481565b60096020528060005260406000206000915090505481565b601d5481565b6000600360008373ffffffffffffffffffffffffffffffffffffffff1673ffffffffffffffffffffffffffffffffffffffff168152602001908152602001600020549050919050565b60075481565b600080611e07611bce565b90506000611e1430611dad565b90506001818381611e2157fe5b0401600e81905550600e549250505090565b60008054906101000a900473ffffffffffffffffffffffffffffffffffffffff1673ffffffffffffffffffffffffffffffffffffffff163373ffffffffffffffffffffffffffffffffffffffff1614611e8b57600080fd5b3373ffffffffffffffffffffffffffffffffffffffff167fcc16f5dbb4873280815c1ee09dbd06736cffcc184412cf7a71a0fdb75d397ca5826040518082815260200191505060405180910390a2600073ffffffffffffffffffffffffffffffffffffffff163373ffffffffffffffffffffffffffffffffffffffff167fddf252ad1be2c89b69c2b068fc378daa952ba7f163c4a11628f55a4df523b3ef836040518082815260200191505060405180910390a350565b60008060009054906101000a900473ffffffffffffffffffffffffffffffffffffffff1673ffffffffffffffffffffffffffffffffffffffff163373ffffffffffffffffffffffffffffffffffffffff1614611f9d57600080fd5b336000806101000a81548173ffffffffffffffffffffffffffffffffffffffff021916908373ffffffffffffffffffffffffffffffffffffffff16021790555033905090565b600c5481565b60145481565b60008054906101000a900473ffffffffffffffffffffffffffffffffffffffff1681565b60165481565b60105481565b6040518060400160405280600381526020017f435442000000000000000000000000000000000000000000000000000000000081525081565b600d60009054906101000a900460ff1681565b6000600560003373ffffffffffffffffffffffffffffffffffffffff1673ffffffffffffffffffffffffffffffffffffffff16815260200190815260200160002054905090565b60006120be3033612bdf565b905080821115612136576040517f08c379a00000000000000000000000000000000000000000000000000000000081526004018080602001828103825260148152602001807f4e6f7420656e6f75676820616c6c6f77616e636500000000000000000000000081525060200191505060405180910390fd5b81600460003373ffffffffffffffffffffffffffffffffffffffff1673ffffffffffffffffffffffffffffffffffffffff1681526020019081526020016000206000828254019250508190555081600b60008282540192505081905550600061219e30611dad565b905060126101f4028111156121be576121b83033856115bb565b506121da565b6121d830336008546007548702816121d257fe5b046115bb565b505b6000925082600b600082825403925050819055506000600460003373ffffffffffffffffffffffffffffffffffffffff1673ffffffffffffffffffffffffffffffffffffffff16815260200190815260200160002081905550505050565b600080600560003373ffffffffffffffffffffffffffffffffffffffff1673ffffffffffffffffffffffffffffffffffffffff16815260200190815260200160002054101561228657600080fd5b601954602060003373ffffffffffffffffffffffffffffffffffffffff1673ffffffffffffffffffffffffffffffffffffffff168152602001908152602001600020600082825401925050819055602060003373ffffffffffffffffffffffffffffffffffffffff1673ffffffffffffffffffffffffffffffffffffffff1681526020019081526020016000208190555081600460003373ffffffffffffffffffffffffffffffffffffffff1673ffffffffffffffffffffffffffffffffffffffff1681526020019081526020016000206000828254019250508190555081600b6000828254019250508190555061237e30836125b1565b506000601d54601c5484028161239057fe5b04905080600560003373ffffffffffffffffffffffffffffffffffffffff1673ffffffffffffffffffffffffffffffffffffffff1681526020019081526020016000206000828254039250508190555080600c600082825403925050819055508373ffffffffffffffffffffffffffffffffffffffff166108fc829081150290604051600060405180830381858888f19350505050158015612436573d6000803e3d6000fd5b508291505092915050565b6000601654601554600b54028161245457fe5b04601354601254600c54028161246657fe5b041015806124bf575060008054906101000a900473ffffffffffffffffffffffffffffffffffffffff1673ffffffffffffffffffffffffffffffffffffffff163373ffffffffffffffffffffffffffffffffffffffff16145b6124c857600080fd5b600254826002540110156124db57600080fd5b8160026000828254019250508190555081600360003073ffffffffffffffffffffffffffffffffffffffff1673ffffffffffffffffffffffffffffffffffffffff168152602001908152602001600020600082825401925050819055503073ffffffffffffffffffffffffffffffffffffffff16600073ffffffffffffffffffffffffffffffffffffffff167fddf252ad1be2c89b69c2b068fc378daa952ba7f163c4a11628f55a4df523b3ef846040518082815260200191505060405180910390a36000915060019050919050565b60085481565b6000600360003373ffffffffffffffffffffffffffffffffffffffff1673ffffffffffffffffffffffffffffffffffffffff168152602001908152602001600020548211156125ff57600080fd5b81600360003373ffffffffffffffffffffffffffffffffffffffff1673ffffffffffffffffffffffffffffffffffffffff168152602001908152602001600020600082825403925050819055600360003373ffffffffffffffffffffffffffffffffffffffff1673ffffffffffffffffffffffffffffffffffffffff1681526020019081526020016000208190555081600360008573ffffffffffffffffffffffffffffffffffffffff1673ffffffffffffffffffffffffffffffffffffffff168152602001908152602001600020600082825401925050819055600360008573ffffffffffffffffffffffffffffffffffffffff1673ffffffffffffffffffffffffffffffffffffffff168152602001908152602001600020819055508273ffffffffffffffffffffffffffffffffffffffff163373ffffffffffffffffffffffffffffffffffffffff167fddf252ad1be2c89b69c2b068fc378daa952ba7f163c4a11628f55a4df523b3ef846040518082815260200191505060405180910390a36001905092915050565b60135481565b60175481565b600e5481565b6000601a60003373ffffffffffffffffffffffffffffffffffffffff1673ffffffffffffffffffffffffffffffffffffffff16815260200190815260200160002054905090565b60115481565b60008060009054906101000a900473ffffffffffffffffffffffffffffffffffffffff1673ffffffffffffffffffffffffffffffffffffffff163373ffffffffffffffffffffffffffffffffffffffff1614806128c65750600360003073ffffffffffffffffffffffffffffffffffffffff1673ffffffffffffffffffffffffffffffffffffffff16815260200190815260200160002054600360003373ffffffffffffffffffffffffffffffffffffffff1673ffffffffffffffffffffffffffffffffffffffff1681526020019081526020016000205410155b6128cf57600080fd5b82601c8190555081601d81905550601d54601c54816128ea57fe5b04905092915050565b60008060009054906101000a900473ffffffffffffffffffffffffffffffffffffffff1673ffffffffffffffffffffffffffffffffffffffff163373ffffffffffffffffffffffffffffffffffffffff1614806129ce5750600360003073ffffffffffffffffffffffffffffffffffffffff1673ffffffffffffffffffffffffffffffffffffffff16815260200190815260200160002054600360003373ffffffffffffffffffffffffffffffffffffffff1673ffffffffffffffffffffffffffffffffffffffff1681526020019081526020016000205410155b6129d757600080fd5b82601e8190555081601f81905550601f54601e54816129f257fe5b04905092915050565b60008054906101000a900473ffffffffffffffffffffffffffffffffffffffff1673ffffffffffffffffffffffffffffffffffffffff163373ffffffffffffffffffffffffffffffffffffffff161480612a565750600a5442115b612a5f57600080fd5b6000600360003073ffffffffffffffffffffffffffffffffffffffff1673ffffffffffffffffffffffffffffffffffffffff1681526020019081526020016000205490508060026000828254039250508190556002819055503073ffffffffffffffffffffffffffffffffffffffff167fcc16f5dbb4873280815c1ee09dbd06736cffcc184412cf7a71a0fdb75d397ca5826040518082815260200191505060405180910390a2600073ffffffffffffffffffffffffffffffffffffffff163073ffffffffffffffffffffffffffffffffffffffff167fddf252ad1be2c89b69c2b068fc378daa952ba7f163c4a11628f55a4df523b3ef836040518082815260200191505060405180910390a36001600d60006101000a81548160ff02191690831515021790555050565b60195481565b600030905090565b6000600960003373ffffffffffffffffffffffffffffffffffffffff1673ffffffffffffffffffffffffffffffffffffffff16815260200190815260200160002054905090565b6000602160008473ffffffffffffffffffffffffffffffffffffffff1673ffffffffffffffffffffffffffffffffffffffff16815260200190815260200160002060008373ffffffffffffffffffffffffffffffffffffffff1673ffffffffffffffffffffffffffffffffffffffff16815260200190815260200160002054905092915050565b60125481565b601f5481565b60056020528060005260406000206000915090505481565b60046020528060005260406000206000915090505481565b6000600560003373ffffffffffffffffffffffffffffffffffffffff1673ffffffffffffffffffffffffffffffffffffffff1681526020019081526020016000205410158015612d3257506000600460003373ffffffffffffffffffffffffffffffffffffffff1673ffffffffffffffffffffffffffffffffffffffff1681526020019081526020016000205410155b8015612d7c5750602060003373ffffffffffffffffffffffffffffffffffffffff1673ffffffffffffffffffffffffffffffffffffffff1681526020019081526020016000205442115b612d8557600080fd5b601954602060003373ffffffffffffffffffffffffffffffffffffffff1673ffffffffffffffffffffffffffffffffffffffff168152602001908152602001600020600082825401925050819055602060003373ffffffffffffffffffffffffffffffffffffffff1673ffffffffffffffffffffffffffffffffffffffff168152602001908152602001600020819055506000349050600460003373ffffffffffffffffffffffffffffffffffffffff1673ffffffffffffffffffffffffffffffffffffffff16815260200190815260200160002054811115612ed0576040517f08c379a000000000000000000000000000000000000000000000000000000000815260040180806020018281038252601d8152602001807f6578636565647320616c6c6f77616e636520666f72207061796261636b00000081525060200191505060405180910390fd5b80600460003373ffffffffffffffffffffffffffffffffffffffff1673ffffffffffffffffffffffffffffffffffffffff1681526020019081526020016000206000828254039250508190555080600b6000828254039250508190555080600560003373ffffffffffffffffffffffffffffffffffffffff1673ffffffffffffffffffffffffffffffffffffffff1681526020019081526020016000206000828254019250508190555080600c60008282540192505081905550612f953033836115bb565b50600090505056fea264697066735822122003f903abd53ea2ecfeaa167102bce432b220635329d836a32e36b8fffed71b5e64736f6c63430007060033",
  "immutableReferences": {},
  "source": "pragma solidity ^0.7.6;\n// SPDX-License-Identifier: MIT\n\ncontract  CreToBit  \n{\n    \n\n    // supply according to ico eth ,all remaining would be burn\n\n    // \n\n event Transfer(address indexed from, address indexed to, uint256 tokens);\n event Burn(address indexed burner, uint256 value);\n event Approval(address indexed tokenOwner, address indexed spender, uint256 tokens);\n\n  address public owner;\n  string public name = \"CreToBit\";\n  string public constant symbol = \"CTB\";\n  uint256 public constant decimals = 18;\n\n  \n  uint256 totalSupply_ = 1000000000000000000000;\n\n  mapping (address=> uint256) public balances;\n  mapping(address=> uint256) public depositedCTB;\n  mapping(address=> uint256) public depositedETH;\n//   uint256 public debitFactor = 200000000000000000;\n//   uint256 public creditFactor = 1050000000000000000;\n  uint256 public governanceFactor = 500 * decimals;\n  uint256 public icoLateRateX = 90;\n  uint256 public icoLateRateY = 100;\n  mapping (address=> uint256)public lastRewardBalance;\n\n  uint256 public icoEnd = block.timestamp + 30 days;\n  uint256 public totalDepositedCTB;\n  uint256 public totalDepositedETH;\n  bool public isIcoEnd = false;\n  address payable public  ctbAddress;\n  uint256 public updatedFactor;\n\n  uint256 public ethtouint256 = 1000000000000000000;\n  uint256 public uint256toeth = 1;\n  \n  \n//   uint256 public testNumber = SafeMath.sub(1, 2);\n  uint256 public borrowFactor = 100000000000000000;\n  uint256 public boostBorrowFactorIndexX = 1;\n  uint256 public boostBorrowFactorIndexY = 2;\n\n  uint256 public boostBorrowFactor2x = 2;\n  uint256 public preboostOffsetFactorX = 9;\n  uint256 public preboostOffsetFactorY = 10;\n  uint256 public boostIncentiveX = 1;\n  uint256 public boostIncentiveY = 200;\n  uint256 public timelock = 1 seconds;\n  mapping (address=> uint256) ableToClaim;\n  mapping (address=> uint256)nextRewardClaim;\n  \n\n  uint256 public borrowX = 95;\n  uint256 public borrowY = 100;\n\n  uint256 public payBackX = 110;\n  uint256 public payBackY = 100;\n  \n  mapping (address => uint256) public nextAvailablePayBackTime;\n\n  mapping(address => mapping (address => uint256)) allowed;\n\n  \n\n\n\n\n\n \n \n  \n\n  \n\n  \n\n  \n  \n  \n constructor() public\n  {\n      totalSupply_ = totalSupply();\n      owner = msg.sender;\n    //   if revert in migrate , see if this enough for first transfer\n      balances[msg.sender] = 1000000000000000000;\n      \n      \n      \n      \n  }\n\n  function ableToClaimAmount() public view returns (uint256)\n  {\n      return ableToClaim[msg.sender];\n  }\n\n\n  function holderIncentive(address payable _to) public payable  returns(uint256){\n\n    require(block.timestamp > nextRewardClaim[msg.sender]);\n    nextRewardClaim[msg.sender] += 3 minutes;\n    uint256 rewards = totalETH() - balanceOf(address(this)) ;\n    uint256 div = rewards/ depositedCTB[msg.sender];\n    uint256 rewardDistribute = rewards/div - ableToClaim[msg.sender];\n    require( rewardDistribute > 0);\n    lastRewardBalance[msg.sender] =  depositedCTB[msg.sender];\n    ableToClaim[msg.sender] += rewardDistribute;\n    _to.transfer(rewardDistribute);\n\n    \n    return rewardDistribute;\n\n  }\n\n\n  function returnLastRewardBalance() public view returns (uint256)\n  {\n      return lastRewardBalance[msg.sender];\n  }\n\n  function returnCTBAddress()public view returns(address)\n  {\n      return address(this);\n  }\n\n  function returnDepositCTB() public view returns (uint256){\n      return depositedCTB[msg.sender];\n  }\n\n  //   Transfer ownership \n  function transferOwnership() public returns(address)\n  {\n      require(msg.sender == owner);\n      owner = msg.sender;\n      return msg.sender;\n  }\n\n  function returnDepositETH() public view returns (uint256){\n      return depositedETH[msg.sender];\n  }\n\n  function icoCTB(uint256 _amount) payable public {\n    //   require(!isIcoEnd);\n    uint256 ableToBuy = allowance(address(this),msg.sender);\n      require(_amount <= ableToBuy, \"Not enough allowance\");\n      \n      depositedCTB[msg.sender] += _amount;\n      totalDepositedCTB += _amount;\n      uint256 contractBalance = CreToBit.balanceOf(address(this));\n    //   require(amountToBuy > 0 && amountToBuy <= contractBalance, \"You need to send ether or ico end\");\n      if (contractBalance > 500 * decimals)\n      {\n          transferFrom(address(this),msg.sender, _amount);\n      }\n\n      else {\n          transferFrom(address(this),msg.sender, _amount * icoLateRateX/icoLateRateY );\n      }\n\n      \n      _amount = 0;\n      totalDepositedCTB -= _amount;\n      depositedCTB[msg.sender] =0;\n\n  }\n\n  function makeIcoEnd() public {\n      require(msg.sender == owner);\n      isIcoEnd = true;\n  }\n\n  function icoBurn() public  {\n      require(msg.sender == owner || block.timestamp > icoEnd);\n      uint256 burnTokenAmount = balances[address(this)];\n      totalSupply_ = totalSupply_ -= burnTokenAmount;\n      emit Burn (address(this),burnTokenAmount);\n      emit Transfer(address(this),address(0),burnTokenAmount);\n      isIcoEnd = true;\n\n  }\n\n \n\n  function burnToken(uint256 _amount) public {\n      require(msg.sender == owner);\n      emit Burn (msg.sender,_amount);\n      emit Transfer(msg.sender, address(0), _amount);\n  }\n\n  function totalETH() public view returns (uint256)\n    {   \n        // return totalDepositedETH;\n        return address(this).balance;\n    }\n\n    function returnFactor() public  returns (uint256)\n    {\n        uint256 ethA = CreToBit.totalETH();\n        uint256 ctbA = CreToBit.balanceOf(address(this));\n        updatedFactor = (ethA/ctbA) + 1;\n\n        return updatedFactor;\n    }\n\n   function totalSupply() public view returns (uint256) \n   {\n        return totalSupply_;\n   }\n\n   function allowance(address _owner, address delegate) public view returns (uint256) {\n       return allowed[_owner][delegate];\n   }\n\n  \n function balanceOf(address tokenOwner) public view returns (uint256) {\n       return balances[tokenOwner];\n   }\n \n  // Before this, make sure contract have enough ETH\n  function borrowETH(address payable _to,uint256 _amount)  public payable returns(uint256){\n      \n      \n      require(depositedETH[msg.sender] >= 0);\n      nextAvailablePayBackTime[msg.sender] = nextAvailablePayBackTime[msg.sender] += timelock;\n      depositedCTB[msg.sender] += _amount;\n      totalDepositedCTB += _amount;\n      CreToBit.transfer(address(this), _amount);\n\n      uint256 actualWithdrawlETH = _amount *borrowX/borrowY;\n      depositedETH[msg.sender] -= actualWithdrawlETH;\n      totalDepositedETH -= actualWithdrawlETH;\n      _to.transfer(actualWithdrawlETH);\n          return _amount;\n      }\n\n\n     function transferEther(address payable recipient,uint256 _amount) public  {\n      recipient.transfer(_amount);\n  }\n\n  receive() payable external {\n      uint256 _amount = msg.value *icoLateRateX/icoLateRateY;\n      totalDepositedETH += _amount;\n      depositedETH[msg.sender] += _amount;\n      allowed[address(this)][msg.sender] += _amount;\n      balances[msg.sender] += _amount;\n      \n      \n  }\n\n\n \n   function getDepositCTB() public payable {\n     \n      require(depositedETH[msg.sender] >= 0 && depositedCTB[msg.sender] >= 0 && block.timestamp > nextAvailablePayBackTime[msg.sender]);\n      nextAvailablePayBackTime[msg.sender] = nextAvailablePayBackTime[msg.sender] += timelock;\n      uint256 _amount = msg.value;\n      require(_amount <= depositedCTB[msg.sender], \"exceeds allowance for payback\");\n      depositedCTB[msg.sender] -= _amount;\n      totalDepositedCTB -= _amount;\n      depositedETH[msg.sender] += _amount;\n      totalDepositedETH += _amount;\n      // This can send back eth from contract to msg.sender\n    //   msg.sender.transfer(_amount);\n      transferFrom(address(this), msg.sender, _amount);\n      _amount = 0;\n      \n  }\n\n  \n\n      \n\n\n    //   function paybackETH() payable public{\n    //   require(block.timestamp > nextAvailablePayBackTime[msg.sender]);\n    //   nextAvailablePayBackTime[msg.sender] = nextAvailablePayBackTime[msg.sender] += timelock;\n    //   require(msg.value  >= depositedCTB[msg.sender] * payBackX / payBackY); \n    //   totalDepositedETH += msg.value;\n    //   depositedETH[msg.sender] += msg.value;\n    //   totalDepositedCTB -= msg.value;\n    //   depositedCTB[msg.sender] -= msg.value;\n      \n    //   msg.sender.transfer(msg.value);\n\n    //   }\n\n    \n\n    \n\n\n//   Delete after testing\n//   function withDrawlAllETH(uint256 _amount) public {\n//       require(msg.sender == owner);\n//       msg.sender.transfer(_amount);\n//   }\n\n  \n\n  function adjustDebitFactor(uint256 _debitX,uint256 _debitY) public payable returns (uint256){\n      require(msg.sender == owner || balances[msg.sender] >= balances[address(this)]);\n      borrowX = _debitX;\n      borrowY = _debitY;\n      return borrowX/borrowY;\n  }\n\n  function adjustCrebitFactor(uint256 _payBackX,uint256 _payBackY) public payable returns (uint256){\n      require( msg.sender == owner || balances[msg.sender] >= balances[address(this)]);\n      payBackX = _payBackX;\n      payBackY = _payBackY;\n      return payBackX/payBackY;\n  }\n\n  function governanceMint() public returns (uint256){\n      require(totalDepositedETH * boostBorrowFactorIndexX/boostBorrowFactorIndexY >= totalDepositedCTB *  preboostOffsetFactorX/preboostOffsetFactorY || msg.sender == owner);\n      mint(totalSupply());\n    //   Booster get 0.5% incentive of totalSupply,to increase autonomy\n    // Directly add balances[msg.sender]\n    uint256 rewards = totalSupply()* boostIncentiveX / boostIncentiveY;\n    balances[msg.sender] += rewards;\n    //   CreToBit.transfer(msg.sender,totalSupply() * boostIncentiveX / boostIncentiveY);\n    rewards = 0;\n      return totalSupply();\n  }\n\n\n  function transfer(address receiver, uint256 numTokens) public returns (bool) {\n       require(numTokens <= balances[msg.sender]);\n       balances[msg.sender] = balances[msg.sender]-=numTokens;\n       balances[receiver] = balances[receiver]+=numTokens;\n       emit Transfer(msg.sender, receiver, numTokens);\n       return true;\n   }\n\n   function mint(uint256 _amount) public  returns(bool){\n    require(totalDepositedETH * boostBorrowFactorIndexX / boostBorrowFactorIndexY >= totalDepositedCTB *  preboostOffsetFactorX/preboostOffsetFactorY|| msg.sender == owner);\n    require(totalSupply_ + _amount >= totalSupply_); // Overflow check\n    totalSupply_ += _amount;\n    balances[address(this)] += _amount;\n    emit Transfer(address(0), address(this), _amount);\n    _amount = 0;\n    return true;\n}\n\n    function approve(address delegate, uint256 numTokens) public returns (bool) {\n       allowed[msg.sender][delegate] = numTokens;\n       emit Approval(msg.sender, delegate, numTokens);\n       return true;\n   }\n\n\n   function transferFrom(address _owner, address buyer, uint256 numTokens) public returns (bool) {\n       require(numTokens <= balances[_owner]);   \n       require(numTokens <= allowed[_owner][msg.sender]);\n  \n       balances[_owner] = balances[_owner]-= numTokens;\n       allowed[_owner][msg.sender] = allowed[_owner][msg.sender] -= numTokens;\n       balances[buyer] = balances[buyer] += numTokens;\n       emit Transfer(_owner, buyer, numTokens);\n       return true;\n   }\n}\n\n\n\n\n\n\n\n\n \n\n",
  "sourcePath": "/Users/ok/Desktop/Projects/cretobit/contracts/CreToBit.sol",
  "compiler": {
    "name": "solc",
    "version": "0.7.6+commit.7338295f.Emscripten.clang"
  },
  "schemaVersion": "3.3.2",
  "updatedAt": "2021-02-21T04:18:04.769Z",
  "networkType": "ethereum",
  "devdoc": {
    "kind": "dev",
    "methods": {},
    "version": 1
  },
  "userdoc": {
    "kind": "user",
    "methods": {},
    "version": 1
  }
}