{
  "contractName": "CreToBit",
  "abi": [
    {
      "inputs": [],
      "stateMutability": "nonpayable",
      "type": "constructor"
    },
    {
      "anonymous": false,
      "inputs": [
        {
          "indexed": true,
          "internalType": "address",
          "name": "tokenOwner",
          "type": "address"
        },
        {
          "indexed": true,
          "internalType": "address",
          "name": "spender",
          "type": "address"
        },
        {
          "indexed": false,
          "internalType": "uint256",
          "name": "tokens",
          "type": "uint256"
        }
      ],
      "name": "Approval",
      "type": "event"
    },
    {
      "anonymous": false,
      "inputs": [
        {
          "indexed": true,
          "internalType": "address",
          "name": "burner",
          "type": "address"
        },
        {
          "indexed": false,
          "internalType": "uint256",
          "name": "value",
          "type": "uint256"
        }
      ],
      "name": "Burn",
      "type": "event"
    },
    {
      "anonymous": false,
      "inputs": [
        {
          "indexed": true,
          "internalType": "address",
          "name": "from",
          "type": "address"
        },
        {
          "indexed": true,
          "internalType": "address",
          "name": "to",
          "type": "address"
        },
        {
          "indexed": false,
          "internalType": "uint256",
          "name": "tokens",
          "type": "uint256"
        }
      ],
      "name": "Transfer",
      "type": "event"
    },
    {
      "inputs": [
        {
          "internalType": "address",
          "name": "",
          "type": "address"
        }
      ],
      "name": "balances",
      "outputs": [
        {
          "internalType": "uint256",
          "name": "",
          "type": "uint256"
        }
      ],
      "stateMutability": "view",
      "type": "function",
      "constant": true
    },
    {
      "inputs": [],
      "name": "boostBorrowFactor2x",
      "outputs": [
        {
          "internalType": "uint256",
          "name": "",
          "type": "uint256"
        }
      ],
      "stateMutability": "view",
      "type": "function",
      "constant": true
    },
    {
      "inputs": [],
      "name": "boostBorrowFactorIndexX",
      "outputs": [
        {
          "internalType": "uint256",
          "name": "",
          "type": "uint256"
        }
      ],
      "stateMutability": "view",
      "type": "function",
      "constant": true
    },
    {
      "inputs": [],
      "name": "boostBorrowFactorIndexY",
      "outputs": [
        {
          "internalType": "uint256",
          "name": "",
          "type": "uint256"
        }
      ],
      "stateMutability": "view",
      "type": "function",
      "constant": true
    },
    {
      "inputs": [],
      "name": "boostIncentiveX",
      "outputs": [
        {
          "internalType": "uint256",
          "name": "",
          "type": "uint256"
        }
      ],
      "stateMutability": "view",
      "type": "function",
      "constant": true
    },
    {
      "inputs": [],
      "name": "boostIncentiveY",
      "outputs": [
        {
          "internalType": "uint256",
          "name": "",
          "type": "uint256"
        }
      ],
      "stateMutability": "view",
      "type": "function",
      "constant": true
    },
    {
      "inputs": [],
      "name": "borrowFactor",
      "outputs": [
        {
          "internalType": "uint256",
          "name": "",
          "type": "uint256"
        }
      ],
      "stateMutability": "view",
      "type": "function",
      "constant": true
    },
    {
      "inputs": [],
      "name": "borrowX",
      "outputs": [
        {
          "internalType": "uint256",
          "name": "",
          "type": "uint256"
        }
      ],
      "stateMutability": "view",
      "type": "function",
      "constant": true
    },
    {
      "inputs": [],
      "name": "borrowY",
      "outputs": [
        {
          "internalType": "uint256",
          "name": "",
          "type": "uint256"
        }
      ],
      "stateMutability": "view",
      "type": "function",
      "constant": true
    },
    {
      "inputs": [],
      "name": "ctbAddress",
      "outputs": [
        {
          "internalType": "address payable",
          "name": "",
          "type": "address"
        }
      ],
      "stateMutability": "view",
      "type": "function",
      "constant": true
    },
    {
      "inputs": [],
      "name": "decimals",
      "outputs": [
        {
          "internalType": "uint256",
          "name": "",
          "type": "uint256"
        }
      ],
      "stateMutability": "view",
      "type": "function",
      "constant": true
    },
    {
      "inputs": [
        {
          "internalType": "address",
          "name": "",
          "type": "address"
        }
      ],
      "name": "depositedCTB",
      "outputs": [
        {
          "internalType": "uint256",
          "name": "",
          "type": "uint256"
        }
      ],
      "stateMutability": "view",
      "type": "function",
      "constant": true
    },
    {
      "inputs": [
        {
          "internalType": "address",
          "name": "",
          "type": "address"
        }
      ],
      "name": "depositedETH",
      "outputs": [
        {
          "internalType": "uint256",
          "name": "",
          "type": "uint256"
        }
      ],
      "stateMutability": "view",
      "type": "function",
      "constant": true
    },
    {
      "inputs": [],
      "name": "ethtouint256",
      "outputs": [
        {
          "internalType": "uint256",
          "name": "",
          "type": "uint256"
        }
      ],
      "stateMutability": "view",
      "type": "function",
      "constant": true
    },
    {
      "inputs": [],
      "name": "governanceFactor",
      "outputs": [
        {
          "internalType": "uint256",
          "name": "",
          "type": "uint256"
        }
      ],
      "stateMutability": "view",
      "type": "function",
      "constant": true
    },
    {
      "inputs": [],
      "name": "governanceToken",
      "outputs": [
        {
          "internalType": "uint256",
          "name": "",
          "type": "uint256"
        }
      ],
      "stateMutability": "view",
      "type": "function",
      "constant": true
    },
    {
      "inputs": [],
      "name": "icoEnd",
      "outputs": [
        {
          "internalType": "uint256",
          "name": "",
          "type": "uint256"
        }
      ],
      "stateMutability": "view",
      "type": "function",
      "constant": true
    },
    {
      "inputs": [],
      "name": "icoLateRateX",
      "outputs": [
        {
          "internalType": "uint256",
          "name": "",
          "type": "uint256"
        }
      ],
      "stateMutability": "view",
      "type": "function",
      "constant": true
    },
    {
      "inputs": [],
      "name": "icoLateRateY",
      "outputs": [
        {
          "internalType": "uint256",
          "name": "",
          "type": "uint256"
        }
      ],
      "stateMutability": "view",
      "type": "function",
      "constant": true
    },
    {
      "inputs": [],
      "name": "isIcoEnd",
      "outputs": [
        {
          "internalType": "bool",
          "name": "",
          "type": "bool"
        }
      ],
      "stateMutability": "view",
      "type": "function",
      "constant": true
    },
    {
      "inputs": [
        {
          "internalType": "address",
          "name": "",
          "type": "address"
        }
      ],
      "name": "lastRewardBalance",
      "outputs": [
        {
          "internalType": "uint256",
          "name": "",
          "type": "uint256"
        }
      ],
      "stateMutability": "view",
      "type": "function",
      "constant": true
    },
    {
      "inputs": [],
      "name": "name",
      "outputs": [
        {
          "internalType": "string",
          "name": "",
          "type": "string"
        }
      ],
      "stateMutability": "view",
      "type": "function",
      "constant": true
    },
    {
      "inputs": [
        {
          "internalType": "address",
          "name": "",
          "type": "address"
        }
      ],
      "name": "nextAvailablePayBackTime",
      "outputs": [
        {
          "internalType": "uint256",
          "name": "",
          "type": "uint256"
        }
      ],
      "stateMutability": "view",
      "type": "function",
      "constant": true
    },
    {
      "inputs": [],
      "name": "owner",
      "outputs": [
        {
          "internalType": "address",
          "name": "",
          "type": "address"
        }
      ],
      "stateMutability": "view",
      "type": "function",
      "constant": true
    },
    {
      "inputs": [],
      "name": "ownerTimeLock",
      "outputs": [
        {
          "internalType": "uint256",
          "name": "",
          "type": "uint256"
        }
      ],
      "stateMutability": "view",
      "type": "function",
      "constant": true
    },
    {
      "inputs": [],
      "name": "payBackX",
      "outputs": [
        {
          "internalType": "uint256",
          "name": "",
          "type": "uint256"
        }
      ],
      "stateMutability": "view",
      "type": "function",
      "constant": true
    },
    {
      "inputs": [],
      "name": "payBackY",
      "outputs": [
        {
          "internalType": "uint256",
          "name": "",
          "type": "uint256"
        }
      ],
      "stateMutability": "view",
      "type": "function",
      "constant": true
    },
    {
      "inputs": [],
      "name": "preboostOffsetFactorX",
      "outputs": [
        {
          "internalType": "uint256",
          "name": "",
          "type": "uint256"
        }
      ],
      "stateMutability": "view",
      "type": "function",
      "constant": true
    },
    {
      "inputs": [],
      "name": "preboostOffsetFactorY",
      "outputs": [
        {
          "internalType": "uint256",
          "name": "",
          "type": "uint256"
        }
      ],
      "stateMutability": "view",
      "type": "function",
      "constant": true
    },
    {
      "inputs": [],
      "name": "spendGovernanceTimeLock",
      "outputs": [
        {
          "internalType": "uint256",
          "name": "",
          "type": "uint256"
        }
      ],
      "stateMutability": "view",
      "type": "function",
      "constant": true
    },
    {
      "inputs": [],
      "name": "symbol",
      "outputs": [
        {
          "internalType": "string",
          "name": "",
          "type": "string"
        }
      ],
      "stateMutability": "view",
      "type": "function",
      "constant": true
    },
    {
      "inputs": [],
      "name": "timelock",
      "outputs": [
        {
          "internalType": "uint256",
          "name": "",
          "type": "uint256"
        }
      ],
      "stateMutability": "view",
      "type": "function",
      "constant": true
    },
    {
      "inputs": [],
      "name": "totalDepositedCTB",
      "outputs": [
        {
          "internalType": "uint256",
          "name": "",
          "type": "uint256"
        }
      ],
      "stateMutability": "view",
      "type": "function",
      "constant": true
    },
    {
      "inputs": [],
      "name": "totalDepositedETH",
      "outputs": [
        {
          "internalType": "uint256",
          "name": "",
          "type": "uint256"
        }
      ],
      "stateMutability": "view",
      "type": "function",
      "constant": true
    },
    {
      "inputs": [],
      "name": "uint256toeth",
      "outputs": [
        {
          "internalType": "uint256",
          "name": "",
          "type": "uint256"
        }
      ],
      "stateMutability": "view",
      "type": "function",
      "constant": true
    },
    {
      "inputs": [],
      "name": "updatedFactor",
      "outputs": [
        {
          "internalType": "uint256",
          "name": "",
          "type": "uint256"
        }
      ],
      "stateMutability": "view",
      "type": "function",
      "constant": true
    },
    {
      "stateMutability": "payable",
      "type": "receive",
      "payable": true
    },
    {
      "inputs": [],
      "name": "governanceTokenFactor",
      "outputs": [
        {
          "internalType": "uint256",
          "name": "",
          "type": "uint256"
        }
      ],
      "stateMutability": "view",
      "type": "function",
      "constant": true
    },
    {
      "inputs": [
        {
          "internalType": "address",
          "name": "_addr",
          "type": "address"
        }
      ],
      "name": "ableToClaimAmount",
      "outputs": [
        {
          "internalType": "uint256",
          "name": "",
          "type": "uint256"
        }
      ],
      "stateMutability": "view",
      "type": "function",
      "constant": true
    },
    {
      "inputs": [],
      "name": "returnGovernance",
      "outputs": [
        {
          "internalType": "uint256",
          "name": "",
          "type": "uint256"
        }
      ],
      "stateMutability": "view",
      "type": "function",
      "constant": true
    },
    {
      "inputs": [],
      "name": "spendGovernanceToken",
      "outputs": [
        {
          "internalType": "bool",
          "name": "",
          "type": "bool"
        }
      ],
      "stateMutability": "nonpayable",
      "type": "function"
    },
    {
      "inputs": [
        {
          "internalType": "uint256",
          "name": "_amount",
          "type": "uint256"
        }
      ],
      "name": "updateOwnerTimeLock",
      "outputs": [],
      "stateMutability": "nonpayable",
      "type": "function"
    },
    {
      "inputs": [],
      "name": "checkOwnerTimeLock",
      "outputs": [
        {
          "internalType": "bool",
          "name": "",
          "type": "bool"
        }
      ],
      "stateMutability": "view",
      "type": "function",
      "constant": true
    },
    {
      "inputs": [
        {
          "internalType": "address payable",
          "name": "_to",
          "type": "address"
        }
      ],
      "name": "holderIncentive",
      "outputs": [
        {
          "internalType": "uint256",
          "name": "",
          "type": "uint256"
        }
      ],
      "stateMutability": "payable",
      "type": "function",
      "payable": true
    },
    {
      "inputs": [],
      "name": "returnLastRewardBalance",
      "outputs": [
        {
          "internalType": "uint256",
          "name": "",
          "type": "uint256"
        }
      ],
      "stateMutability": "view",
      "type": "function",
      "constant": true
    },
    {
      "inputs": [],
      "name": "returnCTBAddress",
      "outputs": [
        {
          "internalType": "address",
          "name": "",
          "type": "address"
        }
      ],
      "stateMutability": "view",
      "type": "function",
      "constant": true
    },
    {
      "inputs": [],
      "name": "returnDepositCTB",
      "outputs": [
        {
          "internalType": "uint256",
          "name": "",
          "type": "uint256"
        }
      ],
      "stateMutability": "view",
      "type": "function",
      "constant": true
    },
    {
      "inputs": [],
      "name": "transferOwnership",
      "outputs": [
        {
          "internalType": "address",
          "name": "",
          "type": "address"
        }
      ],
      "stateMutability": "nonpayable",
      "type": "function"
    },
    {
      "inputs": [],
      "name": "returnDepositETH",
      "outputs": [
        {
          "internalType": "uint256",
          "name": "",
          "type": "uint256"
        }
      ],
      "stateMutability": "view",
      "type": "function",
      "constant": true
    },
    {
      "inputs": [],
      "name": "makeIcoEnd",
      "outputs": [],
      "stateMutability": "nonpayable",
      "type": "function"
    },
    {
      "inputs": [],
      "name": "icoBurn",
      "outputs": [],
      "stateMutability": "nonpayable",
      "type": "function"
    },
    {
      "inputs": [
        {
          "internalType": "uint256",
          "name": "_amount",
          "type": "uint256"
        }
      ],
      "name": "burnToken",
      "outputs": [],
      "stateMutability": "nonpayable",
      "type": "function"
    },
    {
      "inputs": [],
      "name": "burnICO",
      "outputs": [],
      "stateMutability": "nonpayable",
      "type": "function"
    },
    {
      "inputs": [],
      "name": "totalETH",
      "outputs": [
        {
          "internalType": "uint256",
          "name": "",
          "type": "uint256"
        }
      ],
      "stateMutability": "view",
      "type": "function",
      "constant": true
    },
    {
      "inputs": [],
      "name": "returnFactor",
      "outputs": [
        {
          "internalType": "uint256",
          "name": "",
          "type": "uint256"
        }
      ],
      "stateMutability": "nonpayable",
      "type": "function"
    },
    {
      "inputs": [],
      "name": "totalSupply",
      "outputs": [
        {
          "internalType": "uint256",
          "name": "",
          "type": "uint256"
        }
      ],
      "stateMutability": "view",
      "type": "function",
      "constant": true
    },
    {
      "inputs": [
        {
          "internalType": "address",
          "name": "_owner",
          "type": "address"
        },
        {
          "internalType": "address",
          "name": "delegate",
          "type": "address"
        }
      ],
      "name": "allowance",
      "outputs": [
        {
          "internalType": "uint256",
          "name": "",
          "type": "uint256"
        }
      ],
      "stateMutability": "view",
      "type": "function",
      "constant": true
    },
    {
      "inputs": [
        {
          "internalType": "address",
          "name": "tokenOwner",
          "type": "address"
        }
      ],
      "name": "balanceOf",
      "outputs": [
        {
          "internalType": "uint256",
          "name": "",
          "type": "uint256"
        }
      ],
      "stateMutability": "view",
      "type": "function",
      "constant": true
    },
    {
      "inputs": [
        {
          "internalType": "address payable",
          "name": "_to",
          "type": "address"
        },
        {
          "internalType": "uint256",
          "name": "_amount",
          "type": "uint256"
        }
      ],
      "name": "borrowETH",
      "outputs": [
        {
          "internalType": "uint256",
          "name": "",
          "type": "uint256"
        }
      ],
      "stateMutability": "payable",
      "type": "function",
      "payable": true
    },
    {
      "inputs": [
        {
          "internalType": "address payable",
          "name": "recipient",
          "type": "address"
        },
        {
          "internalType": "uint256",
          "name": "_amount",
          "type": "uint256"
        }
      ],
      "name": "transferEther",
      "outputs": [],
      "stateMutability": "nonpayable",
      "type": "function"
    },
    {
      "inputs": [],
      "name": "getDepositCTB",
      "outputs": [],
      "stateMutability": "payable",
      "type": "function",
      "payable": true
    },
    {
      "inputs": [
        {
          "internalType": "uint256",
          "name": "_debitX",
          "type": "uint256"
        },
        {
          "internalType": "uint256",
          "name": "_debitY",
          "type": "uint256"
        }
      ],
      "name": "adjustDebitFactor",
      "outputs": [
        {
          "internalType": "uint256",
          "name": "",
          "type": "uint256"
        }
      ],
      "stateMutability": "payable",
      "type": "function",
      "payable": true
    },
    {
      "inputs": [
        {
          "internalType": "uint256",
          "name": "_payBackX",
          "type": "uint256"
        },
        {
          "internalType": "uint256",
          "name": "_payBackY",
          "type": "uint256"
        }
      ],
      "name": "adjustCrebitFactor",
      "outputs": [
        {
          "internalType": "uint256",
          "name": "",
          "type": "uint256"
        }
      ],
      "stateMutability": "payable",
      "type": "function",
      "payable": true
    },
    {
      "inputs": [],
      "name": "governanceMint",
      "outputs": [
        {
          "internalType": "uint256",
          "name": "",
          "type": "uint256"
        }
      ],
      "stateMutability": "nonpayable",
      "type": "function"
    },
    {
      "inputs": [
        {
          "internalType": "address",
          "name": "receiver",
          "type": "address"
        },
        {
          "internalType": "uint256",
          "name": "numTokens",
          "type": "uint256"
        }
      ],
      "name": "transfer",
      "outputs": [
        {
          "internalType": "bool",
          "name": "",
          "type": "bool"
        }
      ],
      "stateMutability": "nonpayable",
      "type": "function"
    },
    {
      "inputs": [
        {
          "internalType": "uint256",
          "name": "_amount",
          "type": "uint256"
        }
      ],
      "name": "mint",
      "outputs": [
        {
          "internalType": "bool",
          "name": "",
          "type": "bool"
        }
      ],
      "stateMutability": "nonpayable",
      "type": "function"
    },
    {
      "inputs": [
        {
          "internalType": "address",
          "name": "delegate",
          "type": "address"
        },
        {
          "internalType": "uint256",
          "name": "numTokens",
          "type": "uint256"
        }
      ],
      "name": "approve",
      "outputs": [
        {
          "internalType": "bool",
          "name": "",
          "type": "bool"
        }
      ],
      "stateMutability": "nonpayable",
      "type": "function"
    },
    {
      "inputs": [
        {
          "internalType": "address",
          "name": "_owner",
          "type": "address"
        },
        {
          "internalType": "address",
          "name": "buyer",
          "type": "address"
        },
        {
          "internalType": "uint256",
          "name": "numTokens",
          "type": "uint256"
        }
      ],
      "name": "transferFrom",
      "outputs": [
        {
          "internalType": "bool",
          "name": "",
          "type": "bool"
        }
      ],
      "stateMutability": "nonpayable",
      "type": "function"
    },
    {
      "inputs": [
        {
          "internalType": "address",
          "name": "_addr",
          "type": "address"
        }
      ],
      "name": "returnRemainingReward",
      "outputs": [
        {
          "internalType": "uint256",
          "name": "",
          "type": "uint256"
        }
      ],
      "stateMutability": "view",
      "type": "function",
      "constant": true
    }
  ],
  "bytecode": "0x60806040526040518060400160405280600881526020017f437265546f4269740000000000000000000000000000000000000000000000008152506002908051906020019062000051929190620001af565b50683635c9adc5dea0000060035560126101f402600755605a600855606460095562278d004201600b556000600e60006101000a81548160ff021916908315150217905550670de0b6b3a7640000601055600160115567016345785d8a00006012556001601355600260145560026015556009601655600a601755600160185560c86019556001601a55605f6020556064602155606e6022556064602355348015620000fc57600080fd5b506200010d620001a560201b60201c565b600381905550336000806101000a81548173ffffffffffffffffffffffffffffffffffffffff021916908373ffffffffffffffffffffffffffffffffffffffff160217905550670de0b6b3a7640000600460003373ffffffffffffffffffffffffffffffffffffffff1673ffffffffffffffffffffffffffffffffffffffff1681526020019081526020016000208190555062000265565b6000600354905090565b828054600181600116156101000203166002900490600052602060002090601f016020900481019282620001e7576000855562000233565b82601f106200020257805160ff191683800117855562000233565b8280016001018555821562000233579182015b828111156200023257825182559160200191906001019062000215565b5b50905062000242919062000246565b5090565b5b808211156200026157600081600090555060010162000247565b5090565b61369880620002756000396000f3fe6080604052600436106103f35760003560e01c8063880ad0af11610208578063c292614b11610118578063dd2378fc116100ab578063f46e1fce1161007a578063f46e1fce1461148d578063f5db8bc7146114b8578063f8c8b6fc1461151d578063f96dae0a14611582578063fa994d9b146115ad57610543565b8063dd2378fc14611387578063dd62ed3e146113b2578063e20429eb14611437578063f34286cd1461146257610543565b8063d33219b4116100e7578063d33219b4146112d9578063d3bff53a14611304578063d96a468614611345578063d99409ff1461135c57610543565b8063c292614b146111ff578063c8240a571461122a578063c8de345114611276578063d2af7826146112c257610543565b8063984214381161019b578063a5ce94ac1161016a578063a5ce94ac146110e2578063a9059cbb1461110d578063a9b78b561461117e578063b5fa88d7146111a9578063bb633746146111d457610543565b80639842143814610fd957806398779ee8146110045780639fb2ac251461102f578063a0712d681461109157610543565b806392eac1f3116101d757806392eac1f314610ec657806394e7dbb914610ef157806395d89b4114610f1c5780639835c63814610fac57610543565b8063880ad0af14610dee578063899aa99114610e2f5780638d95c7b514610e5a5780638da5cb5b14610e8557610543565b8063332d1a38116103035780635b39045e116102965780636fc88f91116102655780636fc88f9114610ccd57806370a0823114610cf8578063757116ea14610d5d578063774e304214610d885780637b47ec1a14610db357610543565b80635b39045e14610be55780635fc0d9e014610c10578063653c82ce14610c755780636ead127914610ca057610543565b80633ac27422116102d25780633ac2742214610b3d5780633d96e6d714610b685780633ee0046314610b7f578063571d830414610bba57610543565b8063332d1a3814610a4e578063357a101f14610aa657806336bdee7414610ad15780633920828614610afc57610543565b806312714bac1161038657806321d48d111161035557806321d48d111461089d57806323b872dd1461090257806326eef3ac1461099357806327e235e3146109be578063313ce56714610a2357610543565b806312714bac146107b7578063155103e1146107e25780631754715c1461084757806318160ddd1461087257610543565b8063095ea7b3116103c2578063095ea7b3146106895780630bf66a2f146106fa578063115cf01e1461075f578063116f88781461078a57610543565b80630563451a1461054857806305b1137b1461057357806306dc51a2146105ce57806306fdde03146105f957610543565b3661054357600060095460085434028161040957fe5b04905080600d6000828254019250508190555080600660003373ffffffffffffffffffffffffffffffffffffffff1673ffffffffffffffffffffffffffffffffffffffff1681526020019081526020016000206000828254019250508190555080602560003073ffffffffffffffffffffffffffffffffffffffff1673ffffffffffffffffffffffffffffffffffffffff16815260200190815260200160002060003373ffffffffffffffffffffffffffffffffffffffff1673ffffffffffffffffffffffffffffffffffffffff1681526020019081526020016000206000828254019250508190555080600460003373ffffffffffffffffffffffffffffffffffffffff1673ffffffffffffffffffffffffffffffffffffffff1681526020019081526020016000206000828254019250508190555050005b600080fd5b34801561055457600080fd5b5061055d6115b7565b6040518082815260200191505060405180910390f35b34801561057f57600080fd5b506105cc6004803603604081101561059657600080fd5b81019080803573ffffffffffffffffffffffffffffffffffffffff169060200190929190803590602001909291905050506115bd565b005b3480156105da57600080fd5b506105e3611608565b6040518082815260200191505060405180910390f35b34801561060557600080fd5b5061060e61160e565b6040518080602001828103825283818151815260200191508051906020019080838360005b8381101561064e578082015181840152602081019050610633565b50505050905090810190601f16801561067b5780820380516001836020036101000a031916815260200191505b509250505060405180910390f35b34801561069557600080fd5b506106e2600480360360408110156106ac57600080fd5b81019080803573ffffffffffffffffffffffffffffffffffffffff169060200190929190803590602001909291905050506116ac565b60405180821515815260200191505060405180910390f35b34801561070657600080fd5b506107496004803603602081101561071d57600080fd5b81019080803573ffffffffffffffffffffffffffffffffffffffff16906020019092919050505061179e565b6040518082815260200191505060405180910390f35b34801561076b57600080fd5b506107746117b6565b6040518082815260200191505060405180910390f35b34801561079657600080fd5b5061079f6117bc565b60405180821515815260200191505060405180910390f35b3480156107c357600080fd5b506107cc61183c565b6040518082815260200191505060405180910390f35b3480156107ee57600080fd5b506108316004803603602081101561080557600080fd5b81019080803573ffffffffffffffffffffffffffffffffffffffff169060200190929190505050611842565b6040518082815260200191505060405180910390f35b34801561085357600080fd5b5061085c61188b565b6040518082815260200191505060405180910390f35b34801561087e57600080fd5b506108876118d2565b6040518082815260200191505060405180910390f35b3480156108a957600080fd5b506108ec600480360360208110156108c057600080fd5b81019080803573ffffffffffffffffffffffffffffffffffffffff1690602001909291905050506118dc565b6040518082815260200191505060405180910390f35b34801561090e57600080fd5b5061097b6004803603606081101561092557600080fd5b81019080803573ffffffffffffffffffffffffffffffffffffffff169060200190929190803573ffffffffffffffffffffffffffffffffffffffff1690602001909291908035906020019092919050505061196b565b60405180821515815260200191505060405180910390f35b34801561099f57600080fd5b506109a8611cd9565b6040518082815260200191505060405180910390f35b3480156109ca57600080fd5b50610a0d600480360360208110156109e157600080fd5b81019080803573ffffffffffffffffffffffffffffffffffffffff169060200190929190505050611cdf565b6040518082815260200191505060405180910390f35b348015610a2f57600080fd5b50610a38611cf7565b6040518082815260200191505060405180910390f35b610a9060048036036020811015610a6457600080fd5b81019080803573ffffffffffffffffffffffffffffffffffffffff169060200190929190505050611cfc565b6040518082815260200191505060405180910390f35b348015610ab257600080fd5b50610abb611fbc565b6040518082815260200191505060405180910390f35b348015610add57600080fd5b50610ae6611fc2565b6040518082815260200191505060405180910390f35b348015610b0857600080fd5b50610b11611fca565b604051808273ffffffffffffffffffffffffffffffffffffffff16815260200191505060405180910390f35b348015610b4957600080fd5b50610b52611ff0565b6040518082815260200191505060405180910390f35b348015610b7457600080fd5b50610b7d611ff6565b005b348015610b8b57600080fd5b50610bb860048036036020811015610ba257600080fd5b810190808035906020019092919050505061207c565b005b348015610bc657600080fd5b50610bcf61224e565b6040518082815260200191505060405180910390f35b348015610bf157600080fd5b50610bfa612324565b6040518082815260200191505060405180910390f35b348015610c1c57600080fd5b50610c5f60048036036020811015610c3357600080fd5b81019080803573ffffffffffffffffffffffffffffffffffffffff16906020019092919050505061232a565b6040518082815260200191505060405180910390f35b348015610c8157600080fd5b50610c8a612342565b6040518082815260200191505060405180910390f35b348015610cac57600080fd5b50610cb5612348565b60405180821515815260200191505060405180910390f35b348015610cd957600080fd5b50610ce2612567565b6040518082815260200191505060405180910390f35b348015610d0457600080fd5b50610d4760048036036020811015610d1b57600080fd5b81019080803573ffffffffffffffffffffffffffffffffffffffff16906020019092919050505061256d565b6040518082815260200191505060405180910390f35b348015610d6957600080fd5b50610d726125b6565b6040518082815260200191505060405180910390f35b348015610d9457600080fd5b50610d9d6125bc565b6040518082815260200191505060405180910390f35b348015610dbf57600080fd5b50610dec60048036036020811015610dd657600080fd5b81019080803590602001909291905050506125f3565b005b348015610dfa57600080fd5b50610e0361273f565b604051808273ffffffffffffffffffffffffffffffffffffffff16815260200191505060405180910390f35b348015610e3b57600080fd5b50610e446127e0565b6040518082815260200191505060405180910390f35b348015610e6657600080fd5b50610e6f6127e6565b6040518082815260200191505060405180910390f35b348015610e9157600080fd5b50610e9a6127ec565b604051808273ffffffffffffffffffffffffffffffffffffffff16815260200191505060405180910390f35b348015610ed257600080fd5b50610edb612810565b6040518082815260200191505060405180910390f35b348015610efd57600080fd5b50610f06612816565b6040518082815260200191505060405180910390f35b348015610f2857600080fd5b50610f3161281c565b6040518080602001828103825283818151815260200191508051906020019080838360005b83811015610f71578082015181840152602081019050610f56565b50505050905090810190601f168015610f9e5780820380516001836020036101000a031916815260200191505b509250505060405180910390f35b348015610fb857600080fd5b50610fc1612855565b60405180821515815260200191505060405180910390f35b348015610fe557600080fd5b50610fee612868565b6040518082815260200191505060405180910390f35b34801561101057600080fd5b506110196128af565b6040518082815260200191505060405180910390f35b61107b6004803603604081101561104557600080fd5b81019080803573ffffffffffffffffffffffffffffffffffffffff169060200190929190803590602001909291905050506128cc565b6040518082815260200191505060405180910390f35b34801561109d57600080fd5b506110ca600480360360208110156110b457600080fd5b8101908080359060200190929190505050612ad5565b60405180821515815260200191505060405180910390f35b3480156110ee57600080fd5b506110f7612c69565b6040518082815260200191505060405180910390f35b34801561111957600080fd5b506111666004803603604081101561113057600080fd5b81019080803573ffffffffffffffffffffffffffffffffffffffff16906020019092919080359060200190929190505050612c6f565b60405180821515815260200191505060405180910390f35b34801561118a57600080fd5b50611193612e4a565b6040518082815260200191505060405180910390f35b3480156111b557600080fd5b506111be612e50565b6040518082815260200191505060405180910390f35b3480156111e057600080fd5b506111e9612e56565b6040518082815260200191505060405180910390f35b34801561120b57600080fd5b50611214612e5c565b6040518082815260200191505060405180910390f35b6112606004803603604081101561124057600080fd5b810190808035906020019092919080359060200190929190505050612e62565b6040518082815260200191505060405180910390f35b6112ac6004803603604081101561128c57600080fd5b810190808035906020019092919080359060200190929190505050612f7a565b6040518082815260200191505060405180910390f35b3480156112ce57600080fd5b506112d7613092565b005b3480156112e557600080fd5b506112ee613186565b6040518082815260200191505060405180910390f35b34801561131057600080fd5b5061131961318c565b604051808273ffffffffffffffffffffffffffffffffffffffff16815260200191505060405180910390f35b34801561135157600080fd5b5061135a613194565b005b34801561136857600080fd5b50611371613247565b6040518082815260200191505060405180910390f35b34801561139357600080fd5b5061139c61328e565b6040518082815260200191505060405180910390f35b3480156113be57600080fd5b50611421600480360360408110156113d557600080fd5b81019080803573ffffffffffffffffffffffffffffffffffffffff169060200190929190803573ffffffffffffffffffffffffffffffffffffffff169060200190929190505050613294565b6040518082815260200191505060405180910390f35b34801561144357600080fd5b5061144c61331b565b6040518082815260200191505060405180910390f35b34801561146e57600080fd5b50611477613325565b6040518082815260200191505060405180910390f35b34801561149957600080fd5b506114a261332b565b6040518082815260200191505060405180910390f35b3480156114c457600080fd5b50611507600480360360208110156114db57600080fd5b81019080803573ffffffffffffffffffffffffffffffffffffffff169060200190929190505050613331565b6040518082815260200191505060405180910390f35b34801561152957600080fd5b5061156c6004803603602081101561154057600080fd5b81019080803573ffffffffffffffffffffffffffffffffffffffff169060200190929190505050613349565b6040518082815260200191505060405180910390f35b34801561158e57600080fd5b50611597613361565b6040518082815260200191505060405180910390f35b6115b5613367565b005b600b5481565b8173ffffffffffffffffffffffffffffffffffffffff166108fc829081150290604051600060405180830381858888f19350505050158015611603573d6000803e3d6000fd5b505050565b60225481565b60028054600181600116156101000203166002900480601f0160208091040260200160405190810160405280929190818152602001828054600181600116156101000203166002900480156116a45780601f10611679576101008083540402835291602001916116a4565b820191906000526020600020905b81548152906001019060200180831161168757829003601f168201915b505050505081565b600081602560003373ffffffffffffffffffffffffffffffffffffffff1673ffffffffffffffffffffffffffffffffffffffff16815260200190815260200160002060008573ffffffffffffffffffffffffffffffffffffffff1673ffffffffffffffffffffffffffffffffffffffff168152602001908152602001600020819055508273ffffffffffffffffffffffffffffffffffffffff163373ffffffffffffffffffffffffffffffffffffffff167f8c5be1e5ebec7d5bd14f71427d1e84f3dd0314c0f7b2291e5b200ac8c7c3b925846040518082815260200191505060405180910390a36001905092915050565b60246020528060005260406000206000915090505481565b60075481565b60006001544211611835576040517f08c379a000000000000000000000000000000000000000000000000000000000815260040180806020018281038252601d8152602001807f4f776e6572206e6f742061626c6520746f20657865637574652079657400000081525060200191505060405180910390fd5b6001905090565b60165481565b6000601b60008373ffffffffffffffffffffffffffffffffffffffff1673ffffffffffffffffffffffffffffffffffffffff168152602001908152602001600020549050919050565b6000600560003373ffffffffffffffffffffffffffffffffffffffff1673ffffffffffffffffffffffffffffffffffffffff16815260200190815260200160002054905090565b6000600354905090565b600080601b60008473ffffffffffffffffffffffffffffffffffffffff1673ffffffffffffffffffffffffffffffffffffffff16815260200190815260200160002054600560008573ffffffffffffffffffffffffffffffffffffffff1673ffffffffffffffffffffffffffffffffffffffff1681526020019081526020016000205403905080915050919050565b6000600460008573ffffffffffffffffffffffffffffffffffffffff1673ffffffffffffffffffffffffffffffffffffffff168152602001908152602001600020548211156119b957600080fd5b602560008573ffffffffffffffffffffffffffffffffffffffff1673ffffffffffffffffffffffffffffffffffffffff16815260200190815260200160002060003373ffffffffffffffffffffffffffffffffffffffff1673ffffffffffffffffffffffffffffffffffffffff16815260200190815260200160002054821115611a4257600080fd5b81600460008673ffffffffffffffffffffffffffffffffffffffff1673ffffffffffffffffffffffffffffffffffffffff168152602001908152602001600020600082825403925050819055600460008673ffffffffffffffffffffffffffffffffffffffff1673ffffffffffffffffffffffffffffffffffffffff1681526020019081526020016000208190555081602560008673ffffffffffffffffffffffffffffffffffffffff1673ffffffffffffffffffffffffffffffffffffffff16815260200190815260200160002060003373ffffffffffffffffffffffffffffffffffffffff1673ffffffffffffffffffffffffffffffffffffffff168152602001908152602001600020600082825403925050819055602560008673ffffffffffffffffffffffffffffffffffffffff1673ffffffffffffffffffffffffffffffffffffffff16815260200190815260200160002060003373ffffffffffffffffffffffffffffffffffffffff1673ffffffffffffffffffffffffffffffffffffffff1681526020019081526020016000208190555081600460008573ffffffffffffffffffffffffffffffffffffffff1673ffffffffffffffffffffffffffffffffffffffff168152602001908152602001600020600082825401925050819055600460008573ffffffffffffffffffffffffffffffffffffffff1673ffffffffffffffffffffffffffffffffffffffff168152602001908152602001600020819055508273ffffffffffffffffffffffffffffffffffffffff168473ffffffffffffffffffffffffffffffffffffffff167fddf252ad1be2c89b69c2b068fc378daa952ba7f163c4a11628f55a4df523b3ef846040518082815260200191505060405180910390a3600190509392505050565b600c5481565b60046020528060005260406000206000915090505481565b601281565b6000601c60003373ffffffffffffffffffffffffffffffffffffffff1673ffffffffffffffffffffffffffffffffffffffff168152602001908152602001600020544211611d4957600080fd5b60b4601c60003373ffffffffffffffffffffffffffffffffffffffff1673ffffffffffffffffffffffffffffffffffffffff168152602001908152602001600020600082825401925050819055506000611da23061256d565b611daa611fc2565b0390506000600560003373ffffffffffffffffffffffffffffffffffffffff1673ffffffffffffffffffffffffffffffffffffffff168152602001908152602001600020548281611df757fe5b0490506000601b60003373ffffffffffffffffffffffffffffffffffffffff1673ffffffffffffffffffffffffffffffffffffffff16815260200190815260200160002054828481611e4557fe5b0403905080601d60003373ffffffffffffffffffffffffffffffffffffffff1673ffffffffffffffffffffffffffffffffffffffff1681526020019081526020016000208190555060008111611e9a57600080fd5b600560003373ffffffffffffffffffffffffffffffffffffffff1673ffffffffffffffffffffffffffffffffffffffff16815260200190815260200160002054600a60003373ffffffffffffffffffffffffffffffffffffffff1673ffffffffffffffffffffffffffffffffffffffff1681526020019081526020016000208190555080601b60003373ffffffffffffffffffffffffffffffffffffffff1673ffffffffffffffffffffffffffffffffffffffff168152602001908152602001600020600082825401925050819055508473ffffffffffffffffffffffffffffffffffffffff166108fc829081150290604051600060405180830381858888f19350505050158015611fb0573d6000803e3d6000fd5b50809350505050919050565b60205481565b600047905090565b600e60019054906101000a900473ffffffffffffffffffffffffffffffffffffffff1681565b60105481565b611ffe6117bc565b61200757600080fd5b60008054906101000a900473ffffffffffffffffffffffffffffffffffffffff1673ffffffffffffffffffffffffffffffffffffffff163373ffffffffffffffffffffffffffffffffffffffff161461205f57600080fd5b6001600e60006101000a81548160ff021916908315150217905550565b60008054906101000a900473ffffffffffffffffffffffffffffffffffffffff1673ffffffffffffffffffffffffffffffffffffffff163373ffffffffffffffffffffffffffffffffffffffff16148061215857506120d96128af565b602560003373ffffffffffffffffffffffffffffffffffffffff1673ffffffffffffffffffffffffffffffffffffffff16815260200190815260200160002060003073ffffffffffffffffffffffffffffffffffffffff1673ffffffffffffffffffffffffffffffffffffffff16815260200190815260200160002054115b6121ca576040517f08c379a000000000000000000000000000000000000000000000000000000000815260040180806020018281038252601d8152602001807f6f6e6c79206f776e65722063616e206c6f636b206f776e6572204c4f4c00000081525060200191505060405180910390fd5b600154421015612242576040517f08c379a000000000000000000000000000000000000000000000000000000000815260040180806020018281038252601e8152602001807f4e6f7420636f6f6c20746f20666f7265766572206c6f636b206f776e6572000081525060200191505060405180910390fd5b80420160018190555050565b60006122586117bc565b61226157600080fd5b601754601654600c54028161227257fe5b04601454601354600d54028161228457fe5b041015806122dd575060008054906101000a900473ffffffffffffffffffffffffffffffffffffffff1673ffffffffffffffffffffffffffffffffffffffff163373ffffffffffffffffffffffffffffffffffffffff16145b6122e657600080fd5b6122f66122f16118d2565b612ad5565b5060006019546018546123076118d2565b028161230f57fe5b0490506000905061231e6118d2565b91505090565b60195481565b600a6020528060005260406000206000915090505481565b601f5481565b60008060009054906101000a900473ffffffffffffffffffffffffffffffffffffffff1673ffffffffffffffffffffffffffffffffffffffff163373ffffffffffffffffffffffffffffffffffffffff16148061243457506123a86128af565b602560003373ffffffffffffffffffffffffffffffffffffffff1673ffffffffffffffffffffffffffffffffffffffff16815260200190815260200160002060003073ffffffffffffffffffffffffffffffffffffffff1673ffffffffffffffffffffffffffffffffffffffff168152602001908152602001600020541180156124335750601f5442115b5b6124a6576040517f08c379a00000000000000000000000000000000000000000000000000000000081526004018080602001828103825260138152602001807f6e6f20726967687420746f20657865637574650000000000000000000000000081525060200191505060405180910390fd5b60006124b061331b565b905080602560003373ffffffffffffffffffffffffffffffffffffffff1673ffffffffffffffffffffffffffffffffffffffff16815260200190815260200160002060003073ffffffffffffffffffffffffffffffffffffffff1673ffffffffffffffffffffffffffffffffffffffff1681526020019081526020016000206000828254019250508190555062015180601f6000828254019250508190555061255a30338361196b565b5060009050600191505090565b60215481565b6000600460008373ffffffffffffffffffffffffffffffffffffffff1673ffffffffffffffffffffffffffffffffffffffff168152602001908152602001600020549050919050565b60085481565b6000806125c7611fc2565b905060006125d43061256d565b905060018183816125e157fe5b0401600f81905550600f549250505090565b6125fb6117bc565b61260457600080fd5b60008054906101000a900473ffffffffffffffffffffffffffffffffffffffff1673ffffffffffffffffffffffffffffffffffffffff163373ffffffffffffffffffffffffffffffffffffffff161461265c57600080fd5b80602560003073ffffffffffffffffffffffffffffffffffffffff1673ffffffffffffffffffffffffffffffffffffffff16815260200190815260200160002060008073ffffffffffffffffffffffffffffffffffffffff1673ffffffffffffffffffffffffffffffffffffffff168152602001908152602001600020819055506126e93060008361196b565b503373ffffffffffffffffffffffffffffffffffffffff167fcc16f5dbb4873280815c1ee09dbd06736cffcc184412cf7a71a0fdb75d397ca5826040518082815260200191505060405180910390a26000905050565b60008060009054906101000a900473ffffffffffffffffffffffffffffffffffffffff1673ffffffffffffffffffffffffffffffffffffffff163373ffffffffffffffffffffffffffffffffffffffff161461279a57600080fd5b336000806101000a81548173ffffffffffffffffffffffffffffffffffffffff021916908373ffffffffffffffffffffffffffffffffffffffff16021790555033905090565b600d5481565b60155481565b60008054906101000a900473ffffffffffffffffffffffffffffffffffffffff1681565b60175481565b60115481565b6040518060400160405280600381526020017f435442000000000000000000000000000000000000000000000000000000000081525081565b600e60009054906101000a900460ff1681565b6000600660003373ffffffffffffffffffffffffffffffffffffffff1673ffffffffffffffffffffffffffffffffffffffff16815260200190815260200160002054905090565b6000600260016128be3061256d565b02816128c657fe5b04905090565b600080600660003373ffffffffffffffffffffffffffffffffffffffff1673ffffffffffffffffffffffffffffffffffffffff16815260200190815260200160002054101561291a57600080fd5b601a54602460003373ffffffffffffffffffffffffffffffffffffffff1673ffffffffffffffffffffffffffffffffffffffff168152602001908152602001600020600082825401925050819055602460003373ffffffffffffffffffffffffffffffffffffffff1673ffffffffffffffffffffffffffffffffffffffff1681526020019081526020016000208190555081600560003373ffffffffffffffffffffffffffffffffffffffff1673ffffffffffffffffffffffffffffffffffffffff1681526020019081526020016000206000828254019250508190555081600c60008282540192505081905550612a123083612c6f565b506000602154602054840281612a2457fe5b04905080600660003373ffffffffffffffffffffffffffffffffffffffff1673ffffffffffffffffffffffffffffffffffffffff1681526020019081526020016000206000828254039250508190555080600d600082825403925050819055508373ffffffffffffffffffffffffffffffffffffffff166108fc829081150290604051600060405180830381858888f19350505050158015612aca573d6000803e3d6000fd5b508291505092915050565b6000601754601654600c540281612ae857fe5b04601454601354600d540281612afa57fe5b04101580612b53575060008054906101000a900473ffffffffffffffffffffffffffffffffffffffff1673ffffffffffffffffffffffffffffffffffffffff163373ffffffffffffffffffffffffffffffffffffffff16145b612b5c57600080fd5b60035482600354011015612b6f57600080fd5b81600360008282540192505081905550600a6001830281612b8c57fe5b04601e60008282540192505081905550600a6009830281612ba957fe5b04600460003073ffffffffffffffffffffffffffffffffffffffff1673ffffffffffffffffffffffffffffffffffffffff168152602001908152602001600020600082825401925050819055503073ffffffffffffffffffffffffffffffffffffffff16600073ffffffffffffffffffffffffffffffffffffffff167fddf252ad1be2c89b69c2b068fc378daa952ba7f163c4a11628f55a4df523b3ef846040518082815260200191505060405180910390a36000915060019050919050565b60095481565b6000600460003373ffffffffffffffffffffffffffffffffffffffff1673ffffffffffffffffffffffffffffffffffffffff16815260200190815260200160002054821115612cbd57600080fd5b81600460003373ffffffffffffffffffffffffffffffffffffffff1673ffffffffffffffffffffffffffffffffffffffff168152602001908152602001600020600082825403925050819055600460003373ffffffffffffffffffffffffffffffffffffffff1673ffffffffffffffffffffffffffffffffffffffff1681526020019081526020016000208190555081600460008573ffffffffffffffffffffffffffffffffffffffff1673ffffffffffffffffffffffffffffffffffffffff168152602001908152602001600020600082825401925050819055600460008573ffffffffffffffffffffffffffffffffffffffff1673ffffffffffffffffffffffffffffffffffffffff168152602001908152602001600020819055508273ffffffffffffffffffffffffffffffffffffffff163373ffffffffffffffffffffffffffffffffffffffff167fddf252ad1be2c89b69c2b068fc378daa952ba7f163c4a11628f55a4df523b3ef846040518082815260200191505060405180910390a36001905092915050565b60145481565b60185481565b600f5481565b60125481565b6000612e6c6117bc565b612e7557600080fd5b60008054906101000a900473ffffffffffffffffffffffffffffffffffffffff1673ffffffffffffffffffffffffffffffffffffffff163373ffffffffffffffffffffffffffffffffffffffff161480612f4d5750600460003073ffffffffffffffffffffffffffffffffffffffff1673ffffffffffffffffffffffffffffffffffffffff16815260200190815260200160002054600460003373ffffffffffffffffffffffffffffffffffffffff1673ffffffffffffffffffffffffffffffffffffffff1681526020019081526020016000205410155b612f5657600080fd5b826020819055508160218190555060215460205481612f7157fe5b04905092915050565b6000612f846117bc565b612f8d57600080fd5b60008054906101000a900473ffffffffffffffffffffffffffffffffffffffff1673ffffffffffffffffffffffffffffffffffffffff163373ffffffffffffffffffffffffffffffffffffffff1614806130655750600460003073ffffffffffffffffffffffffffffffffffffffff1673ffffffffffffffffffffffffffffffffffffffff16815260200190815260200160002054600460003373ffffffffffffffffffffffffffffffffffffffff1673ffffffffffffffffffffffffffffffffffffffff1681526020019081526020016000205410155b61306e57600080fd5b82602281905550816023819055506023546022548161308957fe5b04905092915050565b61309a6117bc565b6130a357600080fd5b60008054906101000a900473ffffffffffffffffffffffffffffffffffffffff1673ffffffffffffffffffffffffffffffffffffffff163373ffffffffffffffffffffffffffffffffffffffff1614806130fe5750600b5442115b61310757600080fd5b6000600460003073ffffffffffffffffffffffffffffffffffffffff1673ffffffffffffffffffffffffffffffffffffffff168152602001908152602001600020549050806003600082825403925050819055600381905550613168613194565b6001600e60006101000a81548160ff02191690831515021790555050565b601a5481565b600030905090565b61319c6117bc565b6131a557600080fd5b60006131b03061256d565b905080602560003073ffffffffffffffffffffffffffffffffffffffff1673ffffffffffffffffffffffffffffffffffffffff16815260200190815260200160002060003373ffffffffffffffffffffffffffffffffffffffff1673ffffffffffffffffffffffffffffffffffffffff1681526020019081526020016000208190555061323f3060008361196b565b506000905050565b6000600a60003373ffffffffffffffffffffffffffffffffffffffff1673ffffffffffffffffffffffffffffffffffffffff16815260200190815260200160002054905090565b60015481565b6000602560008473ffffffffffffffffffffffffffffffffffffffff1673ffffffffffffffffffffffffffffffffffffffff16815260200190815260200160002060008373ffffffffffffffffffffffffffffffffffffffff1673ffffffffffffffffffffffffffffffffffffffff16815260200190815260200160002054905092915050565b6000601e54905090565b60135481565b60235481565b60066020528060005260406000206000915090505481565b60056020528060005260406000206000915090505481565b601e5481565b6000600660003373ffffffffffffffffffffffffffffffffffffffff1673ffffffffffffffffffffffffffffffffffffffff16815260200190815260200160002054101580156133f757506000600560003373ffffffffffffffffffffffffffffffffffffffff1673ffffffffffffffffffffffffffffffffffffffff1681526020019081526020016000205410155b80156134415750602460003373ffffffffffffffffffffffffffffffffffffffff1673ffffffffffffffffffffffffffffffffffffffff1681526020019081526020016000205442115b61344a57600080fd5b601a54602460003373ffffffffffffffffffffffffffffffffffffffff1673ffffffffffffffffffffffffffffffffffffffff168152602001908152602001600020600082825401925050819055602460003373ffffffffffffffffffffffffffffffffffffffff1673ffffffffffffffffffffffffffffffffffffffff168152602001908152602001600020819055506000349050600560003373ffffffffffffffffffffffffffffffffffffffff1673ffffffffffffffffffffffffffffffffffffffff16815260200190815260200160002054811115613595576040517f08c379a000000000000000000000000000000000000000000000000000000000815260040180806020018281038252601d8152602001807f6578636565647320616c6c6f77616e636520666f72207061796261636b00000081525060200191505060405180910390fd5b80600560003373ffffffffffffffffffffffffffffffffffffffff1673ffffffffffffffffffffffffffffffffffffffff1681526020019081526020016000206000828254039250508190555080600c6000828254039250508190555080600660003373ffffffffffffffffffffffffffffffffffffffff1673ffffffffffffffffffffffffffffffffffffffff1681526020019081526020016000206000828254019250508190555080600d6000828254019250508190555061365a30338361196b565b50600090505056fea264697066735822122044da31f1ad8e52f52c774bb5d44a32fa3177aebda8eab1f73e6c710b713f954664736f6c63430007060033",
  "immutableReferences": {},
  "source": "pragma solidity ^0.7.4;\n// SPDX-License-Identifier: MIT\n\ncontract  CreToBit  \n{\n    \n\n    // supply according to ico eth ,all remaining would be burn\n\n    // \n\n event Transfer(address indexed from, address indexed to, uint256 tokens);\n event Burn(address indexed burner, uint256 value);\n event Approval(address indexed tokenOwner, address indexed spender, uint256 tokens);\n\n  address public owner;\n  uint256 public ownerTimeLock;\n  string public name = \"CreToBit\";\n  string public constant symbol = \"CTB\";\n  uint256 public constant decimals = 18;\n\n  \n  uint256 totalSupply_ = 1000000000000000000000;\n\n  mapping (address=> uint256) public balances;\n  mapping(address=> uint256) public depositedCTB;\n  mapping(address=> uint256) public depositedETH;\n//   uint256 public debitFactor = 200000000000000000;\n//   uint256 public creditFactor = 1050000000000000000;\n  uint256 public governanceFactor = 500 * decimals;\n  uint256 public icoLateRateX = 90;\n  uint256 public icoLateRateY = 100;\n  mapping (address=> uint256)public lastRewardBalance;\n\n  uint256 public icoEnd = block.timestamp + 30 days;\n  uint256 public totalDepositedCTB;\n  uint256 public totalDepositedETH;\n  bool public isIcoEnd = false;\n  address payable public  ctbAddress;\n  uint256 public updatedFactor;\n\n  uint256 public ethtouint256 = 1000000000000000000;\n  uint256 public uint256toeth = 1;\n  \n  \n//   uint256 public testNumber = SafeMath.sub(1, 2);\n  uint256 public borrowFactor = 100000000000000000;\n  uint256 public boostBorrowFactorIndexX = 1;\n  uint256 public boostBorrowFactorIndexY = 2;\n\n  uint256 public boostBorrowFactor2x = 2;\n  uint256 public preboostOffsetFactorX = 9;\n  uint256 public preboostOffsetFactorY = 10;\n  uint256 public boostIncentiveX = 1;\n  uint256 public boostIncentiveY = 200;\n  uint256 public timelock = 1 seconds;\n  mapping (address=> uint256) ableToClaim;\n  mapping (address=> uint256)nextRewardClaim;\n  mapping (address=> uint256) remainingReward;\n  uint256 public governanceToken;\n  uint256 public spendGovernanceTimeLock;\n  \n\n  uint256 public borrowX = 95;\n  uint256 public borrowY = 100;\n\n  uint256 public payBackX = 110;\n  uint256 public payBackY = 100;\n  \n  mapping (address => uint256) public nextAvailablePayBackTime;\n\n  mapping(address => mapping (address => uint256)) allowed;\n\n  \n\n\n\n\n\n \n \n  \n\n  \n\n  \n\n  \n  \n  \n constructor() public\n  {\n      totalSupply_ = totalSupply();\n      owner = msg.sender;\n    //   if revert in migrate , see if this enough for first transfer\n      balances[msg.sender] = 1000000000000000000;\n\n      \n  }\n\n  function governanceTokenFactor () public view returns(uint256)\n  {\n      return balanceOf(address(this))* 1/2;\n  }\n  \n\n  function ableToClaimAmount(address _addr) public view returns (uint256)\n  {\n      return ableToClaim[_addr];\n  }\n\n  \n\n  function returnGovernance()public view returns(uint256)\n  {\n      return governanceToken;\n  }\n\n  function spendGovernanceToken()public returns (bool)\n  {\n      \n      require(msg.sender == owner || allowed[msg.sender][address(this)] > governanceTokenFactor() && block.timestamp > spendGovernanceTimeLock,\"no right to execute\");\n      uint256 _transferAmount = returnGovernance();\n      allowed[msg.sender][address(this)] += _transferAmount;\n      spendGovernanceTimeLock += 1 days;\n      transferFrom(address(this), msg.sender, _transferAmount);\n      _transferAmount = 0;\n       return true;\n\n      \n  }\n\n  function updateOwnerTimeLock(uint256 _amount) public {\n      require(msg.sender == owner || allowed[msg.sender][address(this)] > governanceTokenFactor(),\"only owner can lock owner LOL\");\n      require(block.timestamp >= ownerTimeLock,\"Not cool to forever lock owner\");\n      ownerTimeLock = block.timestamp + _amount;\n  }\n\n\n  function checkOwnerTimeLock() public view returns(bool)\n  {\n      require(block.timestamp > ownerTimeLock , \"Owner not able to execute yet\");\n      return true;\n  }\n\n\n  function holderIncentive(address payable _to) public payable  returns(uint256){\n    \n    require(block.timestamp > nextRewardClaim[msg.sender]);\n    nextRewardClaim[msg.sender] += 3 minutes;\n    uint256 rewards = totalETH() - balanceOf(address(this)) ;\n    uint256 div = rewards/ depositedCTB[msg.sender];\n    uint256 rewardDistribute = rewards/div - ableToClaim[msg.sender];\n    remainingReward[msg.sender]  = rewardDistribute;\n    require( rewardDistribute > 0);\n    lastRewardBalance[msg.sender] =  depositedCTB[msg.sender];\n    ableToClaim[msg.sender] += rewardDistribute;\n    _to.transfer(rewardDistribute);\n\n    \n    return rewardDistribute;\n\n  }\n\n\n  function returnLastRewardBalance() public view returns (uint256)\n  {\n      return lastRewardBalance[msg.sender];\n  }\n\n  function returnCTBAddress()public view returns(address)\n  {\n      return address(this);\n  }\n\n  function returnDepositCTB() public view returns (uint256){\n      return depositedCTB[msg.sender];\n  }\n\n  //   Transfer ownership \n  function transferOwnership() public returns(address)\n  {\n      require(msg.sender == owner);\n      owner = msg.sender;\n      return msg.sender;\n  }\n\n  function returnDepositETH() public view returns (uint256){\n      return depositedETH[msg.sender];\n  }\n\n//   function icoCTB(uint256 _amount) payable public {\n//     //   require(!isIcoEnd);\n//     uint256 ableToBuy = allowance(address(this),msg.sender);\n//       require(_amount <= ableToBuy, \"Not enough allowance\");\n      \n//       depositedCTB[msg.sender] += _amount;\n//       totalDepositedCTB += _amount;\n//       uint256 contractBalance = CreToBit.balanceOf(address(this));\n//     //   require(amountToBuy > 0 && amountToBuy <= contractBalance, \"You need to send ether or ico end\");\n//       if (contractBalance > 500 * decimals)\n//       {\n//           transferFrom(address(this),msg.sender, _amount);\n//       }\n\n//       else {\n//           transferFrom(address(this),msg.sender, _amount * icoLateRateX/icoLateRateY );\n//       }\n\n      \n//       _amount = 0;\n//       totalDepositedCTB -= _amount;\n//       depositedCTB[msg.sender] =0;\n\n//   }\n\n  function makeIcoEnd() public {\n      require(checkOwnerTimeLock());\n      require(msg.sender == owner);\n      isIcoEnd = true;\n  }\n\n  function icoBurn() public  {\n      require(checkOwnerTimeLock());\n      require(msg.sender == owner || block.timestamp > icoEnd);\n      uint256 burnTokenAmount = balances[address(this)];\n      totalSupply_ = totalSupply_ -= burnTokenAmount;\n      burnICO();  \n      isIcoEnd = true;\n      \n\n  }\n\n \n\n  function burnToken(uint256 _amount) public {\n      require(checkOwnerTimeLock());\n      require(msg.sender == owner);\n      allowed[address(this)][address(0)] = _amount;\n      transferFrom(address(this), address(0), _amount);\n      emit Burn(msg.sender,_amount);\n      _amount = 0;\n  }\n\n  function burnICO() public {\n      require(checkOwnerTimeLock());\n      uint256 contractBalance = balanceOf(address(this));\n    //   require(msg.sender == owner || block.timestamp > icoEnd);\n      allowed[address(this)][msg.sender] = contractBalance;\n      transferFrom(address(this), address(0), contractBalance);\n      contractBalance = 0;\n\n\n  }\n\n  function totalETH() public view returns (uint256)\n    {   \n        // return totalDepositedETH;\n        return address(this).balance;\n    }\n\n    function returnFactor() public  returns (uint256)\n    {\n        uint256 ethA = CreToBit.totalETH();\n        uint256 ctbA = CreToBit.balanceOf(address(this));\n        updatedFactor = (ethA/ctbA) + 1;\n\n        return updatedFactor;\n    }\n\n   function totalSupply() public view returns (uint256) \n   {\n        return totalSupply_;\n   }\n\n   function allowance(address _owner, address delegate) public view returns (uint256) {\n       return allowed[_owner][delegate];\n   }\n\n  \n function balanceOf(address tokenOwner) public view returns (uint256) {\n       return balances[tokenOwner];\n   }\n \n  // Before this, make sure contract have enough ETH\n  function borrowETH(address payable _to,uint256 _amount)  public payable returns(uint256){\n      \n      \n      require(depositedETH[msg.sender] >= 0);\n      nextAvailablePayBackTime[msg.sender] = nextAvailablePayBackTime[msg.sender] += timelock;\n      depositedCTB[msg.sender] += _amount;\n      totalDepositedCTB += _amount;\n      CreToBit.transfer(address(this), _amount);\n\n      uint256 actualWithdrawlETH = _amount *borrowX/borrowY;\n      depositedETH[msg.sender] -= actualWithdrawlETH;\n      totalDepositedETH -= actualWithdrawlETH;\n      _to.transfer(actualWithdrawlETH);\n          return _amount;\n      }\n\n\n     function transferEther(address payable recipient,uint256 _amount) public  {\n      recipient.transfer(_amount);\n  }\n\n  receive() payable external {\n      uint256 _amount = msg.value *icoLateRateX/icoLateRateY;\n      totalDepositedETH += _amount;\n      depositedETH[msg.sender] += _amount;\n      allowed[address(this)][msg.sender] += _amount;\n      balances[msg.sender] += _amount;\n      \n      \n  }\n\n\n \n   function getDepositCTB() public payable {\n     \n      require(depositedETH[msg.sender] >= 0 && depositedCTB[msg.sender] >= 0 && block.timestamp > nextAvailablePayBackTime[msg.sender]);\n      nextAvailablePayBackTime[msg.sender] = nextAvailablePayBackTime[msg.sender] += timelock;\n      uint256 _amount = msg.value;\n      require(_amount <= depositedCTB[msg.sender], \"exceeds allowance for payback\");\n      depositedCTB[msg.sender] -= _amount;\n      totalDepositedCTB -= _amount;\n      depositedETH[msg.sender] += _amount;\n      totalDepositedETH += _amount;\n      // This can send back eth from contract to msg.sender\n    //   msg.sender.transfer(_amount);\n      transferFrom(address(this), msg.sender, _amount);\n      _amount = 0;\n\n  }\n\n  \n\n      \n\n\n    //   function paybackETH() payable public{\n    //   require(block.timestamp > nextAvailablePayBackTime[msg.sender]);\n    //   nextAvailablePayBackTime[msg.sender] = nextAvailablePayBackTime[msg.sender] += timelock;\n    //   require(msg.value  >= depositedCTB[msg.sender] * payBackX / payBackY); \n    //   totalDepositedETH += msg.value;\n    //   depositedETH[msg.sender] += msg.value;\n    //   totalDepositedCTB -= msg.value;\n    //   depositedCTB[msg.sender] -= msg.value;\n      \n    //   msg.sender.transfer(msg.value);\n\n    //   }\n\n    \n\n    \n\n\n//   Delete after testing\n//   function withDrawlAllETH(uint256 _amount) public {\n//       require(msg.sender == owner);\n//       msg.sender.transfer(_amount);\n//   }\n\n  \n\n  function adjustDebitFactor(uint256 _debitX,uint256 _debitY) public payable returns (uint256){\n      require(checkOwnerTimeLock());\n      require(msg.sender == owner || balances[msg.sender] >= balances[address(this)]);\n      borrowX = _debitX;\n      borrowY = _debitY;\n      return borrowX/borrowY;\n  }\n\n  function adjustCrebitFactor(uint256 _payBackX,uint256 _payBackY) public payable returns (uint256){\n      require(checkOwnerTimeLock());\n      require( msg.sender == owner || balances[msg.sender] >= balances[address(this)]);\n      payBackX = _payBackX;\n      payBackY = _payBackY;\n      return payBackX/payBackY;\n  }\n\n  function governanceMint() public returns (uint256){\n      require(checkOwnerTimeLock());\n      require(totalDepositedETH * boostBorrowFactorIndexX/boostBorrowFactorIndexY >= totalDepositedCTB *  preboostOffsetFactorX/preboostOffsetFactorY || msg.sender == owner);\n      mint(totalSupply());\n    //   Booster get 0.5% incentive of totalSupply,to increase autonomy\n    // Directly add balances[msg.sender]\n    uint256 rewards = totalSupply()* boostIncentiveX / boostIncentiveY;\n    // CreToBit.transfer(msg.sender,rewards);\n    rewards = 0;\n      return totalSupply();\n  }\n\n\n  function transfer(address receiver, uint256 numTokens) public returns (bool) {\n       require(numTokens <= balances[msg.sender]);\n       balances[msg.sender] = balances[msg.sender]-=numTokens;\n       balances[receiver] = balances[receiver]+=numTokens;\n       emit Transfer(msg.sender, receiver, numTokens);\n       return true;\n   }\n\n   \n\n   function mint(uint256 _amount) public  returns(bool){\n    require(totalDepositedETH * boostBorrowFactorIndexX / boostBorrowFactorIndexY >= totalDepositedCTB *  preboostOffsetFactorX/preboostOffsetFactorY|| msg.sender == owner);\n    require(totalSupply_ + _amount >= totalSupply_); // Overflow check\n    totalSupply_ += _amount;\n    // for future development, would burn if not necessary\n    governanceToken += _amount * 1/10;\n    balances[address(this)] += _amount* 9/10;\n    \n    emit Transfer(address(0), address(this), _amount);\n    _amount = 0;\n    return true;\n}\n\n    function approve(address delegate, uint256 numTokens) public returns (bool) {\n       allowed[msg.sender][delegate] = numTokens;\n       emit Approval(msg.sender, delegate, numTokens);\n       return true;\n   }\n\n\n   function transferFrom(address _owner, address buyer, uint256 numTokens) public returns (bool) {\n       require(numTokens <= balances[_owner]);   \n       require(numTokens <= allowed[_owner][msg.sender]);\n  \n       balances[_owner] = balances[_owner]-= numTokens;\n       allowed[_owner][msg.sender] = allowed[_owner][msg.sender] -= numTokens;\n       balances[buyer] = balances[buyer] += numTokens;\n       emit Transfer(_owner, buyer, numTokens);\n       return true;\n   }\n\n\n\n   function returnRemainingReward(address _addr) public view returns (uint256)\n  {\n\n    uint256 returnReward = depositedCTB[_addr] - ableToClaim[_addr];\n    return returnReward;\n  }\n\n\n\n}\n\n\n\n\n\n\n\n\n\n \n\n",
  "sourcePath": "/Users/ok/Desktop/Projects/cretobit/contracts/CreToBit.sol",
  "compiler": {
    "name": "solc",
    "version": "0.7.6+commit.7338295f.Emscripten.clang"
  },
  "schemaVersion": "3.3.2",
  "updatedAt": "2021-02-24T09:21:20.962Z",
  "networkType": "ethereum",
  "devdoc": {
    "kind": "dev",
    "methods": {},
    "version": 1
  },
  "userdoc": {
    "kind": "user",
    "methods": {},
    "version": 1
  }
}